:020000040801F1
:1010000030300020C9110108651C0108611B01086E
:10101000611C01081919010885230108000000005E
:101020000000000000000000000000000B2101088B
:101030001D19010800000000E1200108ED11010860
:10104000E3110108E3110108E3110108E3110108AC
:10105000E3110108E311010821190108E311010856
:10106000E3110108E3110108E3110108E31101088C
:10107000E3110108E3110108E3110108E31101087C
:10108000E3110108E3110108E3110108E31101086C
:10109000E3110108E3110108E3110108E31101085C
:1010A000E3110108E3110108E3110108E31101084C
:1010B000E3110108E3110108E3110108E31101083C
:1010C000E3110108E3110108E3110108E31101082C
:1010D000E31101089D220108352301083D23010881
:1010E000E3110108E5200108E3110108E3110108FB
:1010F000E3110108E3110108E3110108E3110108FC
:10110000E311010803210108E3110108E3110108BB
:10111000E3110108E3110108E31101089522010818
:10112000E3110108E3110108E3110108E3110108CB
:10113000E3110108E3110108E3110108E3110108BB
:10114000E3110108E3110108E3110108E3110108AB
:10115000E3110108E3110108E3110108E31101089B
:10116000E3110108E3110108E3110108E31101088B
:10117000E3110108E3110108E31101080000000078
:10118000E3110108E3110108E3110108E31101086B
:10119000E3110108E3110108E31101080000000058
:1011A000E3110108E3110108E3110108DFF814D08D
:1011B00000F0B8FA00F094F800480047056B010809
:1011C000AFF30080303000200648804706480047D3
:1011D000FEE7FEE7FEE7FEE7FEE7FEE7FEE7FEE7E7
:1011E000FEE7FEE719210108AD11010830B410B582
:1011F0000348804730BCAE4630BC02480047000080
:101200009D7201080F21010800BF70472DE9F041D0
:101210000024061B254671F1000605DA012400278B
:10122000D0EB070067EB0101161E73F1000605DA2B
:101230000027D2EB0702012567EB030300F089F8D2
:1012400086460E4617469C46AC4204D00025D0EB9D
:10125000050E65EB010624B10020D2EB000760EB20
:10126000030C704631463A466346BDE8F08140EAD9
:1012700001039B0703D009E008C9121F08C0042A14
:10128000FAD203E011F8013B00F8013B521EF9D2FB
:101290007047D2B201E000F8012B491EFBD2704723
:1012A0000022F6E710B513460A4604461946FFF732
:1012B000F0FF204610BD421C10F8011B0029FBD195
:1012C000801A704730B504460020034600E05B1CDE
:1012D000934203D2E05CCD5C401BF8D030BD0000EF
:1012E00070B5054C054D03E0206820448047241D5F
:1012F000AC42F9D170BD00005CCC010860CC0108A3
:1013000000F0004230F000400AD0C10D01F56071DC
:10131000C0F3160042EA0151C2084007114370476A
:1013200000200146704730B50B46014600202022C0
:10133000012409E021FA02F59D4205D303FA02F5E2
:10134000491B04FA02F52844151EA2F10102F1DC42
:1013500030BD2DE9F05F0546002092469B46884649
:101360000646814640241BE0284641464746224621
:1013700000F0F9F953465A46C01A914110D311466C
:101380001846224600F0E0F92D1A67EB01084F4697
:1013900022460120002100F0D7F917EB00094E4149
:1013A000201EA4F10104DFDC484631462A464346AC
:1013B000BDE8F09F2DE9FE4F804681EA0300C00F93
:1013C0000C46009021F0004123F00045B8EB0200EC
:1013D000A94105D24046214690461C460B4602468E
:1013E00023F00040104347D0270DC7F30A00C3F392
:1013F0000A510290401A019040286BDAC3F313009F
:1014000040F4801B0098924620B10023D2EB030ADF
:1014100063EB0B0B01985946C0F14002504600F0B7
:1014200093F906460D4650465946019A00F0ABF92D
:1014300010EB08006141002487EA115284EAE77347
:101440001A4340D0009A62B3019A012A4FEA075228
:1014500015DC001B61EB02014FF0004202EA07526B
:10146000CDE90042001C41F5801132462B4600F0C8
:10147000ABF903B0BDE8F08F40462146F9E7001B09
:1014800061EB0201001C41F5801300185B4120183C
:10149000A2F5001747EB030140EAD570B6196D417C
:1014A00011E06D084FEA360645EAC0754FEA07526B
:1014B000001B61EB0201001C41F5801149084FEA55
:1014C00030000019514132462B4603B0BDE8F04FC1
:1014D00000F06BB90098012240000023D0EB02021B
:1014E00063EBE073009821464FEAE074B8EB00002C
:1014F00061EB0401E9E783F000435BE781F0004121
:1015000058E72DE9FE4F81EA030404F0004421F07E
:10151000004100944FF0000B23F0004350EA010417
:101520005ED052EA03045BD0C3F30A54C1F30A55F8
:101530002C44A4F2F3340194A0FB0254C1F3130130
:1015400041F48011C3F3130343F4801301FB0244FD
:1015500000FB034E840A970A44EA815447EA835702
:10156000A4FB076802958D0A05FB07854FEA932CBB
:1015700004FB0C542705029D4FEA065847EA16372C
:10158000B5EB08056EEB070C870E920E47EA811744
:1015900042EA8312A7FB0201B6EB0B0164EB0004E5
:1015A0002B0D43EA0C335E1844EB1C50DA465146CF
:1015B000E7FB0201C5F313044FEA0B3343EA14536C
:1015C0004FEA0432019C43EA0603A4F10C0402949E
:1015D000009CCDE900B400F0F7F803B0BDE8F08F4F
:1015E00000200146F9E72DE9F04D81EA030404F0FB
:1015F000004B21F0004514464FF0000A23F0004153
:1016000050EA050220D054EA01021DD0C5F30A5762
:101610000246C5F31303C1F31300C1F30A5640F4A5
:10162000801543F48013A7EB0608101BD64608F27A
:10163000FD3873EB050002D308F1010801E09218B0
:101640005B41B8F1000F03DA00200146BDE8F08DE0
:1016500000204FF48011064684460EE0171B73EB02
:10166000050705D3121B63EB050306434CEA010C87
:1016700049084FEA300092185B4150EA0107EDD16A
:1016800052EA030012D082EA040083EA050108430B
:1016900005D0101BAB4106D20122002306E0002238
:1016A0004FF0004302E06FF0010253101AEB060006
:1016B0004CEB085110EB0A0041EB0B01BDE8F04D7B
:1016C00000F073B8C1F30A52C1F3130140F2FF33C3
:1016D00041F480119A4202DA00200146704740F23C
:1016E00033439A42A2F2334202DC524200F03BB84A
:1016F00000F02AB830B5041E71F1000404DB4FF08D
:101700000044404264EB0101141E73F1000405DB48
:101710001C464FF00043524263EB0403994208BF5A
:10172000904230BD064C074D06E0E06840F00103F2
:1017300094E8070098471034AC42F6D3FFF73AFD1F
:101740003CCC01085CCC0108202A04DB203A00FADA
:1017500002F1002070479140C2F1200320FA03F308
:10176000194390407047202A04DB203A21FA02F006
:101770000021704721FA02F3D040C2F120029140CB
:10178000084319467047202A06DBCB17203A41FA56
:1017900002F043EAE07306E041FA02F3D040C2F1FE
:1017A0002002914008431946704710B5141E73F18A
:1017B000000408DA401C41F1000192185B411A4311
:1017C00001D120F0010010BD2DE9F04D92469B465D
:1017D00011B1B1FA81F202E0B0FA80F22032904603
:1017E000FFF7B2FF04460F4640EA0A0041EA0B0148
:1017F00053465A46084313D0114653EA010019D004
:10180000C8F140025046FFF7AEFF05460E4650466F
:1018100059464246FFF798FF084305D0012004E0EF
:1018200020463946BDE8F08D0020054346EAE076C3
:101830002C4337430A986305E40AA0EB0800002212
:10184000FD0A44EA47540A3002D500200146E9E780
:10185000010510196941DDE9084500196941BDE834
:10186000F04DA2E770B58C1810F8015B15F0070376
:1018700001D110F8013B2A1106D110F8012B03E029
:1018800010F8016B01F8016B5B1EF9D12B0705D431
:101890000023521E0DD401F8013BFAE710F8013B7A
:1018A000CB1A921C03E013F8015B01F8015B521E96
:1018B000F9D5A142D8D3002070BD000007281AD264
:1018C000DFE800F004070A0D101316009FED0B0A65
:1018D00070479FED0B0AFBE79FED0A0AF8E79FEDC3
:1018E0000A0AF5E79FED090AF2E79FED090AEFE71B
:1018F0009FED080AECE79FED030AE9E7A69BC440C9
:101900006F1283406F1203406F12833F6F12033FC9
:101910006F12833E6F12833D00BFFEE700BFFEE7FC
:1019200010B5012004F09AF910B1012004F090F9EB
:1019300010BD000070B52DED028B05460C469FEDE5
:101940002C0AB0EE408A2B48008865F343002949F1
:1019500008800846008864F3061008800978C907E3
:10196000090C244A1278C2F3420241EA0231214AA8
:101970001278C2F3021241EA42211E4A1278C2F3DF
:10198000C01241EA02211B4A1288C2F3022241EA34
:101990004211184A1288C2F3C02241EA0211154AC4
:1019A0001288C2F3003241EAC201124A1288C2F31D
:1019B000413241EA42010F4A128841EAD23008F02E
:1019C00079FE06462046FFF779FF30B200EE900A16
:1019D000F8EEE00A20EE200ADFED070A80EE201A7A
:1019E000B0EE418AB0EE480ABDEC028B70BD00003B
:1019F000000000001C0000200000004710B5534804
:101A0000008820F00100514908800846008820F035
:101A10000E00083008800846008820F07000203052
:101A200008800846008820F080000880084600886A
:101A300020F4E06000F5007008800846008820F47B
:101A4000006008800846008820F4805000F580502F
:101A500008800846008820F4C04000F50050088047
:101A60000846008820F4004000F50040088038480F
:101A700008F054FC35490978C907090C334A127833
:101A8000C2F3420241EA0231304A1278C2F3021232
:101A900041EA42212D4A1278C2F3C01241EA0221E2
:101AA0002A4A1288C2F3022241EA4211274A1288C6
:101AB000C2F3C02241EA0211244A1288C2F3003262
:101AC00041EAC201214A1288C2F3413241EA42018D
:101AD0001E4A128841EAD23008F0ECFD1B4800781B
:101AE000C007000C19490978C1F3420140EA0130EE
:101AF00016490978C1F3021140EA412013490978D7
:101B0000C1F3C01140EA012010490988C1F3022144
:101B100040EA41100D490988C1F3C02140EA011093
:101B20000A490988C1F3003140EAC1000749098820
:101B3000C1F3413140EA41000449098840EAD13209
:101B400004A1064805F0FAF910BD00001C000020B1
:101B50000030014030782534580D0A000010014053
:101B600000BFFEE710B54FF4407300220121394851
:101B700004F019FE4FF4407302220021354804F0AE
:101B800039FE4FF44071334804F0C7FD0A2002F0DB
:101B90002BFE002411E04FF480712E4804F0BBFDB1
:101BA000052002F021FE4FF480712A4804F0B5FDB3
:101BB000052002F019FE601CC4B2092CEBDB4FF4C7
:101BC0008071244804F0A9FD4FF40071214804F00D
:101BD000A2FD052002F008FE4FF400711D4804F03C
:101BE0009CFD052002F000FE4FF40073012202214B
:101BF000184804F0D8FD4FF4007302220121154863
:101C000004F0F8FD4FF4807301220221114804F022
:101C1000CAFD4FF48073022201210E4804F0EAFD50
:101C20000D4804F083FE00220C490B4804F00CFE22
:101C3000722300221146084804F0DEFE064804F034
:101C4000A9FE4FF48061044804F0F5FD0A2002F07B
:101C5000CBFD10BD0004024000540040801A060075
:101C600000BFFEE700BFFEE770B5002415E004F1F9
:101C7000B001C8B200F0B4F8002000F0B1F81020B4
:101C800000F0AEF8002504E0002000F069F9681CBF
:101C9000C5B2802DF8DB601CC4B2042CE7DB70BD3C
:101CA00010B5642002F0A0FD01200C49087000244A
:101CB00009E00B49085D00F093F80848007800B986
:101CC00010BD601CC4B2162CF3D3FFF7CDFF00216A
:101CD000084600F007F800BFF2E700001E000020F1
:101CE0001F00002070B504460D4605F1B001C8B2D2
:101CF00000F076F8102141EA141000F071F804F0B9
:101D00000F0000F06DF870BD2DE9F04707460E4654
:101D10009046994600250024A8F12000C5B27F2FE7
:101D200002DD0027701CC6B2B9F1100F22D1314676
:101D30003846FFF7D7FF002407E004EB0511174AE8
:101D4000505C00F00DF9601CC4B2082CF5DB701C6F
:101D5000C1B23846FFF7C6FF002408E004EB0511C6
:101D600008310E4A505C00F0FBF8601CC4B2082C2D
:101D7000F4DB11E031463846FFF7B4FF002409E0F8
:101D800005EB4501064A02EB4101085D00F0E8F869
:101D9000601CC4B2062CF3DBBDE8F087E4BA01088E
:101DA000BCB801082DE9F04104460F461546984697
:101DB00000260FE0AA5D434639462046FFF7A4FF00
:101DC00004F10800C4B2782C02DD0024B81CC7B2AC
:101DD000701CC6B2A85D0028ECD1BDE8F0810000FF
:101DE00070B5054642F210745848007800B970BDCD
:101DF0000020574908700846457040F20161554877
:101E000004F0E1FD08B1FFF7ADFE02E0012002F0B1
:101E1000EBFC40F201614F4804F0D5FD10B1601EAB
:101E2000041EF3D194B9FFF79DFE42F2107402E054
:101E3000012002F0D9FC40F20161464804F0C3FDE4
:101E400010B1601E041EF3D104B9D0E7414804F07C
:101E5000E1FD414A4FF4A0613E4805F0B2F928B9CE
:101E6000FFF780FE002039490870C0E76FF00102DB
:101E70007821384804F0B6FD374805F06DF968B9A7
:101E8000344804F0CCFD42F21071324805F0ABF951
:101E9000FFF768FE00202D490870A8E740F20151C5
:101EA0002C4804F07CFD2C4A40F20751294805F0EB
:101EB00088F928B9FFF756FE00202449087096E7F4
:101EC000234B00220621254803F06FF80222062149
:101ED000224803F09FFA4FF400611E4804F052FDBF
:101EE00006211E4802F065FF1B4A06211B4805F02B
:101EF00055F968B90621194802F04BFF0021154831
:101F000004F040FDFFF72EFE0020104908706EE738
:101F100020220621114802F0E2FF06210F4802F0BC
:101F200038FF00210B4804F02DFD0A4804F077FD2E
:101F30000949084805F057F928B9FFF713FE0020B2
:101F40000249087053E700BF51E700001E0000205F
:101F50000400002000540040A08601000060024000
:101F600070B5054642F210745848007800B970BD4B
:101F70004020574908700846457040F201615548B5
:101F800004F021FD08B1FFF7EDFD02E0012002F0B1
:101F90002BFC40F201614F4804F015FD10B1601EAA
:101FA000041EF3D194B9FFF7DDFD42F2107402E094
:101FB000012002F019FC40F20161464804F003FDE3
:101FC00010B1601E041EF3D104B9D0E7414804F0FB
:101FD00021FD414A4FF4A0613E4805F0F2F828B9CE
:101FE000FFF7C0FD002039490870C0E76FF001021B
:101FF0007821384804F0F6FC374805F0ADF868B9A8
:10200000344804F00CFD42F21071324805F0EBF850
:10201000FFF7A8FD00202D490870A8E740F2015104
:102020002C4804F0BCFC2C4A40F20751294805F02A
:10203000C8F828B9FFF796FD00202449087096E7F4
:10204000234B00220621254802F0AFFF0222062181
:10205000224803F0DFF94FF400611E4804F092FCBF
:1020600006211E4802F0A5FE1B4A06211B4805F06A
:1020700095F868B90621194802F08BFE0021154831
:1020800004F080FCFFF76EFD0020104908706EE739
:1020900020220621114802F022FF06210F4802F0FB
:1020A00078FE00210B4804F06DFC0A4804F0B7FCF0
:1020B0000949084805F097F828B9FFF753FD0020B3
:1020C0000249087053E700BF51E700001E000020DE
:1020D0000600002000540040A0860100006002407D
:1020E00000BFFEE710B54FF4807006F0DFF818B1BE
:1020F0004FF4807006F0D2F84FF4003003F0A8FDE2
:1021000010BD10B507F0A6FA10BD00BFFEE710B570
:1021100002F05EFB10BD00001CB55A48006840F498
:102120007000584908605848006840F0010056495E
:10213000086000BF5448006800F002000028F9D091
:1021400051480830006800F00C0008286ED100BF2C
:102150000020019002E00198401C01900198502855
:10216000F9D34948083000680090009820F0F0004A
:102170000090009840F0800000904349083100989A
:1021800008600020019002E00198401C0190019835
:102190005028F9D33C48083000680090009820F09F
:1021A000F0000090009840F090000090364908310F
:1021B000009808600020019002E00198401C019006
:1021C00001985028F9D330480830006800900098F2
:1021D00020F0F0000090009840F0A00000902A4904
:1021E0000831009808600020019002E00198401C2E
:1021F000019001985028F9D32348083000680090D6
:10220000009820F0F0000090009840F0B00000909E
:102210001D490831009808600020019002E00198F3
:10222000401C019001985028F9D300BFC82000F04D
:10223000A1FD15480830006820F00300124908315C
:10224000086011480068114908400F4908600846B5
:10225000006820F48020086000200B4908310860E5
:1022600000BF09480830006800200028F9D108485C
:102270000549091D0860002003490C31086008F079
:1022800075FD1CBD88ED00E000380240FFFFF6FE42
:102290001030002410B504F07FFD10BD70B51F494B
:1022A0001F4809F079F8002837D01D4808F0BEFF14
:1022B00002211C4802F06DFD02211A4803F0B2F819
:1022C000C0F50074ACB1B4F5007F12D82546B5F561
:1022D000007F01D340F2FF154FF400711248FEF762
:1022E000DFFF2A4611491048FEF7C1FF01201049BF
:1022F00008704FF400710D48FEF7D2FF2022022132
:10230000084802F0ECFD4FF400720221054803F08A
:1023100081F80221034802F04CFD70BD0403040063
:1023200000100140006402408407002004030020E4
:102330006A01002010B504F013FD10BD10B50E4960
:102340000E4809F029F8A8B10C4808F06FFF0121E8
:102350000B4802F01EFD20220121094802F0BFFDBA
:102360004FF480720121064803F054F8012104481B
:1023700002F01FFD10BD00000403040000480040EF
:102380000060024000BFFEE70FB4084B10B504A97F
:1023900002AA039800F060F9044602A9002000F0A8
:1023A000F7FC204610BC5DF814FB0000912D0108DD
:1023B0007CB50C001D461646014601D0601E00E0AB
:1023C0000020CDE90010064B6A462946304600F051
:1023D00043F9002C02D0009A002111707CBD00004E
:1023E0005F2D010810B5002804DB0A07130E054A0B
:1023F000135406E00A07140E034A00F00F031B1FD4
:10240000D45410BD00E400E018ED00E008B5044627
:102410000D46164600960DB1284600E006A003467C
:102420000CB1204600E004A0024604A10C4804F0D0
:1024300085FD00BFFEE700003F000000415353450B
:1024400052543A2025732C2066696C653A20257316
:102450002C206C696E653A2025640D0A000000008E
:102460000010014010B52DED028BB1EEC08A18EEC0
:10247000100A20F00040C0F1FF40C00F0AD010EE5B
:10248000100A20F00040C0F1FF40C00F04BF01203F
:1024900000F01AF8B0EE480ABDEC028B10BD10B582
:1024A000012004F0C1FA10BD704702E008C8121FF5
:1024B00008C1002AFAD170477047002001E001C12D
:1024C000121F002AFBD170470149086070470000C5
:1024D000D00200202DE9FF5F82B00021DDE9043049
:1024E000020DDDF840B0034318D044F61050A2F2BC
:1024F000FF3242431514119801281FD0A5EB0B00A1
:10250000401C5FEA000A4FF000064E4FDFF838919A
:10251000B046504615D5CAF1000413E011980124C5
:102520004AA3012801D16FEA0B010298119AC0E970
:102530000031C0E9024206B0BDE8F09FCBF10000D7
:10254000DFE704460021404A491842EB0450CDE938
:10255000001012E0E00707D032463B4640464946AD
:10256000FEF7CFFF8046894632463B461046194665
:10257000FEF7C7FF06460F466410002CEAD1DDE9DE
:102580000401DDE90023BAF1000F06DAFEF7B9FF16
:1025900042464B46FEF7B5FF05E0FFF724F84246FA
:1025A0004B46FFF720F804460E460022284BFFF763
:1025B000A1F803D84FF0FF30014607E00022254B79
:1025C00020463146FEF7F6FEFFF77CF8102409E0BE
:1025D000002C0ADB0A220023FEF7BBFE039B3032ED
:1025E0001A55641E50EA0102F2D1641C039AC4F128
:1025F00011031444119A012A03D0012208430DD17A
:102600000AE0084304D000204FF0110B119072E74C
:10261000A3EB0B056D1E0DE05B4504DD4FF00002E2
:1026200005F1010504E003DA4FF00002A5F1010510
:10263000002AECD002981199C0E90231C0E90045A6
:1026400079E70000000014400000F03F3000000077
:102650000000F0430000E03F2DE9FF4F95B09A469F
:10266000884606460025EEE1252877D10024274636
:10267000F94A0121039400E0044316F8013F203B8E
:1026800001FA03F01042F7D130782A2811D06FF008
:102690002F033078A0F13002092A16D8039A44F0AB
:1026A000020402EB820203EB42021044761C039008
:1026B000EFE758F8042B0392002A03DA504244F45F
:1026C0000054039044F00204761C30782E2816D172
:1026D00016F8010F44F004042A280DD06FF02F02E1
:1026E0003078A0F13003092B09D807EB870302EB00
:1026F0004303C718761CF3E758F8047B761C307840
:102700006C280FD006DC4C2817D068280DD06A281A
:1027100014D104E0742810D07A280FD10DE044F4CD
:1027200000140AE044F4801401E044F44014727888
:10273000824202D104F58014761C761C307866281B
:102740000BD013DC582877D009DC002875D0452839
:10275000F6D04628F4D047281AD193E118E0632830
:1027600035D0642879D0652812D18BE1702873D0D8
:1027700008DC6728F1D069286FD06E280DD06F284B
:1027800006D1ACE073282CD0752874D0782853D0AB
:102790005246179990476D1C54E1C4F30250022829
:1027A00009D003280DD0D8F8001004280DD00D60F2
:1027B00008F1040846E1D8F80010EA17C1E9005210
:1027C000F6E7D8F800100D80F2E70D70F0E718F882
:1027D000041B8DF8001000208DF80100EB4601204D
:1027E00003E058F804BB4FF0FF3061074FF00001E1
:1027F00002D40DE009F101018946B9420FDA8145A1
:10280000F8DB1BF809100029F4D108E009F10101F7
:1028100089468142FADB1BF809100029F6D103989A
:102820005346A0EB090721463846179A00F080FA74
:10283000284400EB090507E044E008E10DE01BF83F
:10284000010B524617999047B9F10109F7D2534647
:1028500021463846179AF2E039E00A21C4F30252C1
:102860004FF0000B0091022A06D058F8040BC11754
:10287000032A09D00AE023E008F1070020F007024C
:10288000F2E80201904605E000B2C117042A01D126
:1028900040B2C117002906DA0A460021404261EB26
:1028A00002012D2202E0220504D52B228DF80420FE
:1028B000012203E0E20701D02022F7E7914657E02A
:1028C0000A2100E010214FF0000B00910BE01021D5
:1028D0004FF0000B44F004040827009103E00820A7
:1028E0004FF0000B0090C4F30252022A05D058F8B2
:1028F000040B0021032A08D008E008F1070020F0AB
:102900000702F2E80201904603E080B2042A00D1F7
:10291000C0B24FF0000922072AD53278702A07D0BA
:10292000DDF800C08CF0100C5CEA0B0C05D00EE05A
:1029300040228DF80420012208E050EA010306D06D
:1029400030238DF804308DF8052002229146009B3B
:1029500083F0080353EA0B030AD150EA010201D1C4
:10296000620705D530228DF804204FF001097F1E43
:102970003278582A04D039A20C920CAA02920BE0A9
:102980003BA2F9E75B46009AFEF7E3FC0C9B9B5CDD
:10299000029A521E0292137050EA0102F2D102987A
:1029A00004A9081A00F1200B600702D524F4803432
:1029B00000E001275F4502DDA7EB0B0000E00020EF
:1029C00000EB0B01009003984944401A0390E00388
:1029D00006D453462146179A039800F0A9F90544F6
:1029E000002706E001A85246C05D179990476D1C6C
:1029F0007F1C4F45F6DBE0030CD553462146179A62
:102A0000039800F095F9054404E0302052461799E8
:102A100090476D1C0099481E00900029F5DC08E0E5
:102A20000298029952460078491C029117999047E2
:102A30006D1CBBF10001ABF1010BF1DC5BE100F0BF
:102A400065F90544761C307800287FF40DAE19B086
:102A50002846BDE8F08F00000928010030313233EC
:102A600034353637383961626364656600000000CA
:102A700030313233343536373839414243444546B4
:102A800000000000600700D4062708F1070020F0CE
:102A90000700F0E80223804603F0004C5FEA0C00D8
:102AA00001D097A009E0200501D596A005E0E00738
:102AB00001D095A001E0AFF24C001390307823F0E4
:102AC000004365280CD006DC452809D046281DD0D7
:102AD00047287FD13BE0662818D067287AD136E0B6
:102AE0000021112F01DB112000E0781CCDE900014D
:102AF00004A90CA8FFF7EEFCDDE90D010C9A4FF0DC
:102B0000000B07F10109109200914EE04FF00040D8
:102B10000097CDE9011004A90CA8FFF7DBFCDDE963
:102B20000D020C9B0F994FF0000B914610930092F1
:102B300011B9791C00EB0109B7EB090003D4C0F10E
:102B4000FF3B07F10109A9EB0700019042E0012FCB
:102B500000DA01270021112F01DD112000E03846A5
:102B6000CDE9000104A90CA8FFF7B4FCDDE90D01D3
:102B70000C9A00914FF0000BB946109221070FD428
:102B8000009A4A4503DA914601E0A9F10109B9F139
:102B9000010F05DD109AA9F10101515C3029F4D033
:102BA000B84202DA10F1040F03DA0121CDE9011075
:102BB00010E0002803DC8344A9EB000102E0411C83
:102BC000494500DD8946A0EB0B00401C01904FF009
:102BD00000400290200705D40198484502DB4FF0E1
:102BE000FF30019000208DF84B0002980DF14B074B
:102BF000B0F1004F25D002200C902B200D900298B0
:102C000000280CDA404202902D200D9007E00A21A6
:102C10000298FEF788FB3031029007F8011D0C99ED
:102C2000481E0C900029F2DC02980028EFD1791E92
:102C30000D980870307800F0200040F0450007F84B
:102C4000020D11A8C01BC01D02901398007800B19E
:102C5000012000EB0901019801EBE07102980144A9
:102C60000398401A401E0390E00306D453462146C1
:102C7000179A039800F05CF805441398007818B18F
:102C80005246179990476D1CE00323D553462146C1
:102C9000179A039800F04CF805441BE0BBF1000FB5
:102CA00007DB0098584504DD1098179910F80B00C1
:102CB00001E0179930205246904701980BF1010B23
:102CC000401E05F10105019004D12E2052461799AE
:102CD00090476D1CB9F10001A9F10109DEDC05E0A6
:102CE00017F8010B5246179990476D1C0299481E20
:102CF00002900029F4DC53462146179A03989EE679
:102D00002D0000002B000000200000002DE9F04104
:102D1000044600251E461746880404D405E03946BB
:102D20002020B0476D1C641EF9D52846BDE8F0810F
:102D30002DE9F041044600251E469046C80301D502
:102D4000302700E02027880404D505E041463846B6
:102D5000B0476D1C641EF9D52846BDE8F0814A686D
:102D6000002A06D00A68531C0B6010704868401E89
:102D70004860704708B50021009102E00099491CA5
:102D8000009100EB8001009AB2EB410FF6D308BD31
:102D90000A68531C0B6010707047816841F008018D
:102DA000816000BF816801F008010029FAD18168C3
:102DB00041F00401816000BF816801F00401002935
:102DC000FAD1704730B5012902D0022920D10FE095
:102DD0006AB1102A0BD8C36A23F47003C362C36AB2
:102DE000541E4FF4700505EA04542343C36210E0F7
:102DF0006AB1042A0BD8836B23F440138363836B7B
:102E0000541E4FF4401505EA04542343836300E045
:102E100000BF00BF30BD00000649096821F4E02171
:102E2000054AC2F804131146D1F804130143C2F84D
:102E300004137047042301400020014021B182683F
:102E400042F40062826003E0826822F400628260E1
:102E50007047816841F4807181607047816841F4F6
:102E6000007181607047816801F0010119B98168C2
:102E700041F0010181607047012902D0022912D17D
:102E800008E0836823F040538360836843EA027359
:102E9000836009E0836823F440138360836843EA16
:102EA0000253836000E000BF00BF7047012902D0D9
:102EB000022910D107E0836823F070638360836880
:102EC0001343836008E0836823F47023836083687E
:102ED0001343836000E000BF00BF7047F0B51D469C
:102EE00006290CDA436B01EB81071F26BE40B34372
:102EF00001EB810602FA06F63343436322E00C2914
:102F00000EDA036B8E1F06EB86071F26BE40B34307
:102F10008E1F06EB860602FA06F63343036311E0C2
:102F200010290FDAC36AA1F10C0606EB86071F26EB
:102F3000BE40B343A1F10C0606EB860602FA06F684
:102F40003343C3620A2A0CDA046902EB42070726FC
:102F5000BE40B44302EB420605FA06F63443046170
:102F600011E0122A0FDCC468A2F10A0606EB46073C
:102F70000726BE40B443A2F10A0606EB460605FA50
:102F800006F63443C460F0BD012902D002290AD1FB
:102F900004E0826842F08042826005E0826842F488
:102FA0008002826000E000BF00BF7047AAB101F458
:102FB00080731BB1436843F48073436001F4806302
:102FC0001BB1436843F48063436001F00203CBB15B
:102FD000836843F00203836014E001F480731BB143
:102FE000436823F48073436001F480631BB143683A
:102FF00023F48063436001F002031BB1836823F074
:1030000002038360704700000649096821F01F0130
:10301000054AC2F804131146D1F804130143C2F85B
:1030200004137047042301400020014010B507F04D
:1030300025FD024800880249088010BD08000020D4
:103040000C000020014601EB41004FF4805202EBDE
:10305000C00070471CB50548054900231A46CDE954
:1030600000100721034802F077FC1CBD9173010892
:10307000157401086400002070B50446002007E0C4
:1030800051F8205052F82060354044F82050401C40
:103090005D1E012606EB55158542F1D870BD30B591
:1030A00001F01F05012404FA05F33AB14C0950F868
:1030B00024401C434D0940F8254006E04C0950F8D7
:1030C00024409C434D0940F8254030BD2DE9F04196
:1030D00005460E461446601E012101EB5010820089
:1030E00031462846FEF7EEF807463846BDE8F0813F
:1030F0000246480952F8203001F01F0023FA00F080
:1031000000F00100704770B502460B460024002114
:103110001BE052F82100B8B152F821004FF05535AC
:1031200005EA5005401B00F033354FF0333606EA10
:103130009006A81900EB101505F00F3000EB0045C4
:1031400005EB05252D0E2C44491C581E012505EBC9
:1031500050108842DDD8204670BD70B5044600206E
:1031600007E051F8205052F82060354344F82050D1
:10317000401C5D1E012606EB55158542F1D870BD39
:1031800030B501460B4600222024002002E01D5CE1
:103190002A44401CA042FAD3104630BD10B540F678
:1031A000024004F0ADFF41F2091004F0A9FF4FF412
:1031B0004030FFF731FE022300220321174803F0BD
:1031C000F2FA0020FFF720FF002202211448FFF747
:1031D000EDFE00224FF480711148FFF7E7FE002159
:1031E0000F48FFF72BFE012211460D48FFF7EAFDBD
:1031F00001230B2200210A48FFF770FE0022012163
:103200000748FFF739FE0648FFF72DFE012001F0C1
:10321000D5FA0348FFF7C1FD10BD000000080240C9
:103220000021014000B589B040F6024004F068FF7B
:1032300041F2081004F064FF40F6164004F060FF0D
:103240004FF44030FFF7E8FD0523002203213C48FE
:1032500003F0A9FA04213B4801F0EEFD3A48009042
:103260000120019039480290002003904FF4006043
:1032700004900020069002200790000408906A46FF
:103280000421304801F0AEFF002204212D4801F056
:10329000A0FD04212B4801F0BFFD0421294801F0C5
:1032A00088FD0020FFF7B0FE0122022126484C389D
:1032B000FFF77CFE0122110223484C38FFF776FE0F
:1032C000002121484C38FFF7B9FD022201211E4898
:1032D0004C38FFF777FD01230A2200211A484C38A9
:1032E000FFF7FCFD01230C22194617484C38FFF765
:1032F000F5FD0022012114484C38FFF7D7FD0022CC
:10330000012111484C38FFF7B7FD0F484C38FFF743
:10331000A5FD0D484C38FFF79CFD0B484C38FFF7D6
:10332000A2FD012001F04AFA07484C38FFF735FDAD
:10333000012105484C38FFF727FE09B000BD000009
:1033400000080240006402404C20014008000020B8
:1033500010B540F6014004F0D3FE40F6044004F0FE
:10336000CFFE4FF4406004F0CBFE4AF680230122EA
:103370000021084803F017FA01231A4600210648E5
:1033800003F011FA01231A460021044803F00BFA56
:1033900010BD000000100240000402400000024086
:1033A00010B54FF4406004F0ABFE41F21D0004F094
:1033B000A7FE41F2040004F0A3FE10230022032123
:1033C0000D4803F0F0F90D4801F0A2F90022114672
:1033D0000A4801F0CBF90021084801F0BAF90022AF
:1033E0001146064801F0D6F90021044801F0A4F97D
:1033F00007F0E8FC10BD000000000240007400402F
:1034000000B587B040F6014004F07AFE41F20E00AC
:1034100004F076FE40F6154004F072FE4FF4604270
:1034200005211B4803F048F94FF4604300220221B4
:10343000174803F0B8F94FF4604302220021144802
:1034400003F0D8F94FF4805300220121104803F013
:10345000AAF94FF48053022200210D4803F0CAF963
:10346000002001904FF48270009000200290032011
:1034700005904FF4007003901020069000200490F7
:103480006946044807F0A8F907F00AF807B000BD3C
:10349000000402400038004000B587B04FF440609F
:1034A00004F02EFE40F6044004F02AFE41F20C1017
:1034B00004F026FE40F6164004F022FEE02205212C
:1034C0001C4803F0F9F8E02300220221194803F018
:1034D0006AF9E02302220021164803F08BF94FF429
:1034E000807300220121144803F05DF94FF48073CA
:1034F00002220021104803F07DF94FF480710E483C
:1035000003F00BF9002001904FF48270009000202E
:1035100002900120059040020390102006900020A8
:1035200004906946054807F057F9FEF767FA07B0B7
:1035300000BD0000000002400010024000300140C9
:1035400010B540F6034004F0DBFD4FF47C5301223C
:103550001146194803F027F94FF47C530222002149
:10356000154803F047F900BF00BF4FF480701249BF
:103570002831086000BF00BF00BF00BF40000860E6
:1035800000BF00BF00BF00BF4000086000BF00BF19
:1035900000BF00BF4000086000BF00BF00BF00BF09
:1035A0004000086000BF00BF00BF00BF40000860CF
:1035B00000BF00BF10BD0000000C024000B589B084
:1035C00040F6014004F09CFD41F2150004F098FD26
:1035D00040F6154004F094FD4FF400720421304889
:1035E00003F06AF84FF4807204212D4803F064F868
:1035F0004FF4007301220221294803F0D4F84FF45C
:10360000007302220121264803F0F4F84FF480737E
:1036100001220221224803F0C6F84FF480730222EF
:1036200001211F4803F0E6F800221E491E4803F05E
:103630000BF97223002211461B4803F0DDF91A48EA
:1036400003F0A8F94FF48061174803F0F4F806215D
:10365000164801F0F1FB684601F070FE402006902C
:1036600013480290002003900490022007900E4817
:1036700010300090012001904FF4403008906A46CD
:1036800006210A4801F0AEFD0621084801F0B4FB0E
:1036900001220621054801F09CFB09B000BD000095
:1036A00000040240801A06000054004000600240FE
:1036B0000600002010B54FF4406004F021FD41F2F7
:1036C000110004F01DFD4FF4406004F019FD0C22C0
:1036D0000721244802F0F0FF0C2301220221214897
:1036E00003F061F80C23022200211E4803F082F847
:1036F0000223012211461B4803F055F802231A4603
:103700000021184803F076F800BF022015498862AE
:1037100000BF154807F094FD4FF4E131124807F05F
:1037200011FD0021104807F074FE00210E4807F03B
:1037300050FE00210C4807F05CFE04210A4807F007
:1037400050FE0821084807F05CFE0021064807F0FB
:10375000EAFD054807F0F1FD00220121262003F0D3
:1037600021FC10BD000002400044004010B50024C0
:1037700041F21C0004F0C4FC03F000FE00F010F85D
:1037800005480068C0F301200449086000F026F8ED
:1037900004F034FB204610BD7038024018000020B1
:1037A00010B54FF4E05004F0EBFB4FF4E05004F0A0
:1037B000F9FB4FF4807004F0D9FCFF200549086044
:1037C0007F200549086041F60F4004F099FC04F0A1
:1037D00007FE10BD14000020100000202DE9F0416C
:1037E00000272324592550261048006810490881D5
:1037F000104800684881252008700620C870042001
:1038000048703020887000200861C8600846047144
:103810004571867104F054FD08B97F1E03E043F240
:10382000F020054908603846BDE8F081100000200E
:1038300004070020140000205028004000B589B083
:1038400040F6154004F05CFC0121404801F0F4FA18
:10385000002006903E480290002003904FF48070B4
:1038600007903C48009001200190002004904FF404
:10387000403008906A460121344801F0B3FC012130
:10388000324801F0B9FA04220121304801F0A1FACE
:1038900001212E4801F08DFA40F6014004F030FC81
:1038A00041F2120004F02CFC4FF4806207212A48F8
:1038B00002F002FF4FF400620721274802F0FCFEED
:1038C0004FF4806301220221234802F06CFF4FF481
:1038D000806302220021204802F08CFF4FF4006335
:1038E000012202211C4802F05EFF4FF40063022215
:1038F0000021194802F07EFF1648001F07F0A0FCC7
:103900004FF4E1311348001F07F01CFC042111485B
:10391000001F07F066FD08210E48001F07F071FD2B
:1039200040210C48001F07F0FEFC0A48001F07F06A
:1039300004FD00220321272003F034FB4FF44171E2
:103940000448001F07F01BFD09B000BD00600240E5
:1039500004060020044800400004024010B500F0B6
:1039600005F8FFF76BFFFFF7A5FE10BD00B589B0A6
:1039700040F6164004F0C4FB0221404801F05CFA16
:10398000002006903E480290002003904FF4007003
:1039900007903C48009001200190002004904FF4D3
:1039A000403008906A460221344801F01BFC022195
:1039B000324801F021FA04220221304801F009FACC
:1039C00002212E4801F0F5F94FF4406004F098FB15
:1039D00041F2041004F094FB4FF4007207212A48CE
:1039E00002F06AFE4FF480620721274802F064FE6D
:1039F0004FF4007301220221234802F0D4FE4FF459
:103A0000007302220021204802F0F4FE4FF480638C
:103A1000012202211C4802F0C6FE4FF480630222FC
:103A20000021194802F0E6FE1648001F07F008FCC6
:103A30004FF4E1311348001F07F084FB04211148C3
:103A4000001F07F0CEFC08210E48001F07F0D9FC2C
:103A500040210C48001F07F066FC0A48001F07F0D1
:103A60006CFC00221146252003F09CFA4FF44171B2
:103A70000448001F07F083FC09B000BD0064024049
:103A800004030020041001400000024010B502F0C1
:103A9000B3FD044601F08EFF10BD00002DE9F0419A
:103AA0002DED028B96B004A805F0BCF804461D2C41
:103AB0007ED156A15C4803F041FA9DF848000828E1
:103AC00023D2DFE800F004090E222213181D57A1AB
:103AD000554803F033FA1DE05FA1534803F02EFA76
:103AE00018E068A1504803F029FA13E06EA14E488F
:103AF00003F024FA0EE074A14B4803F01FFA09E02A
:103B00007CA1494803F01AFA04E084A1464803F076
:103B100015FA00BF00BF0C98401C85024FF40076D8
:103B200005F02CF800EE100AF8EE400A9FED811A1D
:103B300080EE810ADFED7F0A80EE201A11EE107A06
:103B40003846FDF7DDFB41EC180B05F017F8804611
:103B50008DED008B424678A1334803F0EFF93246F1
:103B60007EA1314803F0EAF92A4683A12E4803F0EA
:103B7000E5F99DF8102087A12B4803F0DFF9BDF887
:103B800012208AA1284803F0D9F90598000E8DF873
:103B900008000598000C8DF809000598000A8DF8BA
:103BA0000A000598C0B28DF80B009DF8180000E0DF
:103BB00021E08DF80C0000208DF80D0002AA82A1F2
:103BC000194803F0BBF99DF8190000F00F039DF8A8
:103BD0001900020981A1144803F0B0F9079A86A1DF
:103BE000114803F0ABF99DF82400421C8AA10E484D
:103BF00003F0A4F904E022468CA10B4803F09EF9DF
:103C000016B0BDEC028BBDE8F08100000D0A2A2A37
:103C10002A205344204361726420496E666F202A33
:103C20002A2A0D0A0000000000100140436172645E
:103C300020547970653A205374616E646172642017
:103C400043617061636974792053442043617264F5
:103C50002056312E310D0A00436172642054797070
:103C6000653A205374616E646172642043617061CF
:103C70006369747920534420436172642056322E64
:103C8000300D0A004361726420547970653A20480F
:103C900069676820436170616369747920534420C7
:103CA000436172640D0A00004361726420547970AC
:103CB000653A204D756C74696D6564696120436176
:103CC00072640D0A00000000436172642054797030
:103CD000653A204869676820436170616369747957
:103CE000204D756C74696D6564696120436172640F
:103CF0000D0A00004361726420547970653A2048CF
:103D0000696768205370656564204D756C74696DD2
:103D10006564696120436172640D0A0043617264E5
:103D200020547970653A20556E6B6E6F776E0D0A70
:103D300000000000000080440D0A23232044657623
:103D40006963652073697A652069732025644B4235
:103D50002028252E32664742292323000D0A2323DB
:103D600020426C6F636B2073697A6520697320252C
:103D700064422023230000000D0A232320426C6F9D
:103D8000636B20636F756E74206973202564202334
:103D9000230000004D616E75666163747572657213
:103DA0002049443A20307825580D0A004F454D2FC0
:103DB0004170706C69636174696F6E2049443A2088
:103DC000307825580D0A000050726F6475637420B6
:103DD0004E616D653A2025730D0A000050726F64C4
:103DE000756374205265766973696F6E3A20256435
:103DF0002E25640D0A00000050726F6475637420F4
:103E000053657269616C204E756D6265723A20303F
:103E100078253038580D0A00435344205665727394
:103E2000696F6E3A2025642E300D0A000D0A466136
:103E3000696C656420746F20676574205344206347
:103E400061726420696E666F726D6174696F6E2C49
:103E5000206572726F7220636F64653A2025640D6D
:103E60000A00000070B504460D46607801232A461A
:103E700004F1300100F037FF08B1032070BD94F861
:103E80002E1294F82F0241EA00204AF6552188426A
:103E900001D00220F2E794F86900010694F8680066
:103EA00041EA004194F8670041EA002094F8661066
:103EB000084320F07F400E49884201D10020DDE711
:103EC00094F88500010694F8840041EA004194F8D2
:103ED000830041EA002094F88210084320F07F40DC
:103EE0000349884201D10020C8E70120C6E700004D
:103EF000464154002DE9F04103F0A2F9461C41F17E
:103F0000000703F08DF904460D4603F029FA40B18D
:103F1000311B67EB0500103970F1000001DBA419BB
:103F20007D4120462946BDE8F081024600E0521C52
:103F3000107810B110788842F9D1107870470000DD
:103F40002DE9F74F88B00898006801900198007833
:103F500030380790079809280AD8019840783A28FD
:103F600006D10198801C019008990198086001E031
:103F700000200790079818B10B200BB0BDE8F08F18
:103F8000D049079851F82040099804600CB90C20DA
:103F9000F3E7207878B1607800F0CDFE804608F035
:103FA000010040B90A9820B108F0040008B10A20C5
:103FB000E3E70020E1E70020207007986070607858
:103FC00000F04BFE804608F0010008B10320D4E762
:103FD0000A9820B108F0040008B10A20CDE74FF09C
:103FE000000B59462046FFF73DFF054600BF012D57
:103FF00021D14FF0000ABAF1000F03D0AAF101005D
:1040000000F0FF0A4FF4DF7000EB0A1104F13000FA
:104010000F18387978B1F87A0106B87A41EA004188
:10402000787A41EA0020397A40EA010B5946204665
:10403000FFF718FF0546032D01D101209DE70DB1C3
:104040000D209AE73B20015D94F83C0041EA0020F6
:10405000B0F5007F01D00D208FE74620015D94F878
:10406000470041EA0029B9F1000F0ED194F857003A
:10407000010694F8560041EA004194F8550041EADF
:10408000002094F8541040EA0109C4F81C90402024
:10409000065DE670012E03D0022E01D00D206CE7E4
:1040A00009FB06F93D20005D0646A07016B1701EA2
:1040B000304008B10D2060E74120015D94F84200D6
:1040C00041EA00202081207A00F00F0008B10D2085
:1040D00053E74320015D94F8440041EA0020069034
:1040E000069870B994F85300010694F8520041EA1A
:1040F000004194F8510041EA002094F85010084320
:1041000006903E20015D94F83F0041EA00200290B5
:10411000029808B90D2030E702984844218900EB45
:1041200011100590DDE90501814201D20D2024E73F
:10413000DDE90510401AA178B0FBF1F00490049875
:1041400008B90D2019E7012540F6F6710498884258
:1041500000D302254FF6F6710498884200D3032558
:104160000498801CA06105985844A06202985844A5
:104170002062032D16D1208908B10D20FDE694F8A8
:104180005F00010694F85E0041EA004194F85D008A
:1041900041EA002094F85C1008436062A069800046
:1041A000039014E0208908B90D20E6E6206A48440F
:1041B0006062022D02D1A069400007E0207E00F07D
:1041C0000100A16901EB410100EB51000390E1699D
:1041D000039800F2FF10B1EB502F01D20D20CCE676
:1041E0004FF0FF3020610020E060032D5CD1607152
:1041F00094F8601094F8610041EA0020584460612E
:104200006078012304F13001626900F06CFDE8BBC5
:1042100094F82E1294F82F0241EA00204AF6552114
:10422000884241D13320005D01063220005D41EA21
:1042300000413120005D41EA002094F8301008432D
:104240002149884230D194F81702010694F81602E9
:1042500041EA004194F8150241EA002094F8141252
:1042600008431A4988421FD194F81F02010694F8A6
:104270001E0241EA004194F81D0241EA002094F830
:104280001C120843E06094F81B0200E00CE00106F9
:1042900094F81A0241EA004194F8190241EA002018
:1042A00094F8181208432061257009480088401CC2
:1042B00080B207490880E0800020E062207100BFE2
:1042C0005BE600005C000020525261417272416165
:1042D000600000200246891E9069801E884201D835
:1042E000002070479378906A01FB0300F9E7000013
:1042F00070B51D25084C00E0641E802005F08CFF81
:1043000008B9002CF8D114B91325284670BD03480C
:1043100005F07CFF2846F9E7A0860100FF07C000F2
:104320002DE9F04705460C46207820F04000401E5D
:1043300000EB800101EBC00600274FF0010800BF31
:104340001A48C05D205C1949C95D2144497840EA9A
:104350000129B8F1000F10D0484601F0D7FF804680
:10436000FF2E07D23146761C35F8110001F0CEFF42
:10437000404508D00020BDE8F0874FF6FF7081452A
:1043800001D00020F7E7781C07460D28D8D3207805
:1043900000F0400038B1B8F1000F04D035F8160035
:1043A00008B10020E7E70120E5E7000054C3010859
:1043B0000146012904D0022905D0032909D105E0CD
:1043C0004FF47A70704740F6B830FBE741F288301E
:1043D000F8E70020F6E72DE9F04704468946B9F1F1
:1043E000000F06D1E76817B1A069B84211D80127BC
:1043F0000FE04946204602F08BF80646022E02D214
:104400000120BDE8F087A069B04201D93046F8E745
:104410004F463D4600BF6D1CA069A84204D8022546
:10442000BD4201D90020ECE72946204602F070F891
:10443000064606B909E0701C08B1012E01D13046CC
:10444000DFE7BD42E7D10020DBE700BF6FF070423D
:104450002946204603F0DAFA8046B8F1000F08D169
:10446000B9F1000F05D02A464946204603F0CEFA9E
:104470008046B8F1000F09D1E5602069401C68B1A1
:104480002069401E20610120607107E0B8F1010F32
:1044900002D14FF0FF3000E0012005462846B0E78A
:1044A0002DE9F34F83B082460498D0F800B001E0C4
:1044B0000BF1010B9BF800002F28F9D09BF80000AE
:1044C0005C28F5D0DAF81C9000252E4600BF304657
:1044D000761C1BF80040202C03DB2F2C01D05C2C19
:1044E00000D11CE0FF2D03D3062005B0BDE8F08FFE
:1044F000E4B20121204601F0E3FE04460CB9062097
:10450000F3E7802C06DA21466BA0FFF70EFD08B119
:104510000620EAE728466D1C29F81040D7E700BFBF
:104520000BEB060104980160202C01DA042000E066
:104530000020074608E0681E39F81040202C02D001
:104540002E2C00D002E06D1E002DF4D100BF0DB95D
:104550000620CAE7002029F815000B222021DAF8EE
:10456000180002F095FC002600E0761C39F81600D1
:104570002028FAD039F816002E28F6D00EB147F0D0
:10458000030700E06D1E25B1681E39F810002E28C3
:10459000F8D14FF00008CDF808800820019000BF46
:1045A0003046761C39F8104004B955E0202C03D071
:1045B0002E2C04D1AE4202D047F00307F0E7DDE92C
:1045C0000110884201D2AE4216D101980B2802D1C7
:1045D00047F0030740E0AE4201D047F00307AE4288
:1045E00000D939E02E46082002900B2001904FEAB6
:1045F00088604FEA1068D3E7802C0BDB002120464F
:1046000001F05EFE04461CB1A4F180002D490C5C53
:1046100047F0020700BF24B121462BA0FFF785FC1D
:1046200018B15F2447F003070FE0412C04DB5A2C3C
:1046300002DC48F0020808E0612C06DB7A2C04DC7E
:1046400048F00108A4F1200084B2DAF8183002988A
:10465000411C02911C54A3E700BFDAF8180000784F
:10466000E52803D10520DAF8181008700198082809
:1046700003D14FEA88604FEA106808F00C000C285C
:1046800003D008F00300032801D147F0020707F028
:10469000020058B908F00300012801D147F01007C3
:1046A00008F00C00042801D147F00807DAF81800D8
:1046B000C772002019E70000222A3A3C3E3F7C7F67
:1046C0000000000061C301082B2C3B3D5B5D000036
:1046D00069B922B1012A04D0022A06D103E083601D
:1046E00004E0C36002E0036100E000BF0FE00129C5
:1046F0000DD122B1012A04D0022A06D103E0436180
:1047000004E0836102E0C36100E000BF00BF7047C6
:1047100010B504460748204440B940F61D0003F098
:1047200013FD40F61D0003F0FDFC00E000BF00BFDC
:1047300010BD0000008CFFBF21B9026842F00102E9
:10474000026005E0012903D1026842F48032026070
:10475000704721B9026842F00402026005E00129B5
:1047600003D1026842F480220260704739B90368BD
:1047700023F03803036003681343036009E0012951
:1047800007D1036823F460130360036843EA02431C
:104790000360704739B9036823F0C00303600368FE
:1047A0001343036009E0012907D1036823F44003A0
:1047B0000360036843EA02430360704703490860EB
:1047C00000BF024909680029FBD1704700000020A2
:1047D0000448006820B103480068401E0149086091
:1047E00070470000000000202DE9F0410746114805
:1047F0000068A7FB005006460F4800685A2802DDF3
:104800000D48006800E05A200446E017611BB041E3
:1048100001DBBDE8F0812D1B66EBE47601F01CFFA7
:1048200045194E4100BF01F017FF401BB141FADBB3
:1048300000BFEEE7A8020020A00200202DE9F0470B
:1048400004460021204600F0BAF9074617B1384661
:10485000BDE8F0874FF0FF09CA4600BF2169206814
:1048600002F032FB074607B154E065692E780EB9B5
:1048700004274FE0E87A00F03F08E52E05D008F065
:10488000080028B1B8F10F0F02D04FF0FF093AE04D
:10489000B8F10F0F1CD1E069A0B306F0400030B1B1
:1048A00095F80DA026F04006B146E08820844E45DC
:1048B0000AD1687B504507D12946E069FFF730FDF2
:1048C00010B1A9F1010000E0FF2000F0FF091AE09B
:1048D000B9F1000F05D1284605F097FF504500D1EA
:1048E00018E04FF0FF094FF6FF702084A069C07AEE
:1048F00000F0010030B90B222846A16902F0A8FAA5
:1049000000B907E0FFE70021204600F006F807465F
:10491000002FA3D000BF38469AE72DE9F0410446A6
:10492000884600BFE088401C86B20EB1206910B9ED
:104930000420BDE8F08106F00F0000286FD1206947
:10494000401C2061E06828B920680089B04266DC1C
:104950000420EEE720688078401E00EA1610002848
:104960005DD1E168206801F0D3FD0546012D01D835
:104970000220DEE7681C08B90120DAE720688069B8
:10498000A84246D8B8F1000F01D10420D1E7E16870
:104990002068FFF720FD05460DB90720C9E7012D66
:1049A00001D10220C5E7681C08B90120C1E7002138
:1049B000206802F089FA08B10120BAE7216801F104
:1049C00030004FF40072002102F062FA294620689C
:1049D000FFF780FC2168C862002710E001202168F1
:1049E00008710021206802F06FFA08B10120A0E7E9
:1049F0002068C06A401C2168C862781CC7B2206861
:104A00008078B842EADC2068C06AC01B2168C862AE
:104A100000BFE56029462068FFF75CFC2061E68066
:104A20002068303006F00F0100EB4110606100207B
:104A30007FE72DE9F04F85B00446D4F81880D4F80C
:104A40001CB00C22414601A802F015FA00BF9DF8E7
:104A50000F0000F0010030B3002088F80B00E06187
:104A600001270DE03B465A4601A9404601F0FCFCF7
:104A70002046FFF7E3FE054605B103E0781C87B248
:104A8000642FEFDB00BF642F03D1072005B0BDE822
:104A9000F08F042D01D02846F8E79DF80F0088F824
:104AA0000B00C4F81CB09DF80F0000F0020070B1BC
:104AB000002601E0701C86B23BF816000028F9D1F0
:104AC00006F119000D2190FBF1F086B200E00126FD
:104AD0000021204600F073F805460DB12846D5E7C1
:104AE00000200746049000BF2169206802F0ECF91D
:104AF000054605B119E0606990F80090B9F1E50F3D
:104B000002D0B9F1000F08D10FB9E0880490781CE9
:104B100080B20746B04201D107E0002701212046BC
:104B2000FFF7FBFE0546002DDED000BF4DBB012E7A
:104B300027DD2046049900F042F805460DBBA06928
:104B400005F063FE0090701E86B200BF21692068E8
:104B500002F0BAF9054605B112E0F2B26169E06906
:104B6000009B01F0EFFB0120216808710021204625
:104B7000FFF7D3FE05461DB9701E80B2061EE5D1B3
:104B800000BFD5B92169206802F09EF90546A5B994
:104B9000D4F814A020220021504602F079F90B220B
:104BA0005046A16902F067F9A069C07A00F01800C8
:104BB0008AF80C00012021680871284666E72DE973
:104BC000F04104460E46E680A568012D03D020681A
:104BD0008069A84202D80220BDE8F0812DB9206882
:104BE0000078032801D12068456A65B9E56020682E
:104BF0000089B04201DC0220EEE72068406A00EB49
:104C00001610206120E020688078070112E0294614
:104C1000206801F07DFC0546681C08B90120DBE72F
:104C2000022D03D320688069A84201D80220D3E76F
:104C3000F01B86B2BE42EADAE56029462068FFF73B
:104C400049FB00EB161020612068303006F00F01A0
:104C500000EB411060610020BEE730B593B005461F
:104C600000200090002D39D104F0D0FC04461D2C0A
:104C700004D101A803F0D6FF044602E0012013B0DE
:104C800030BD1D2C05D1BDF8480004F0B9F904462B
:104C900001E00120F3E7684604F022FA0446009898
:104CA00000F0007008B100BFFEE71D2C05D14FF4E5
:104CB000006003F09BFE044601E00120DFE71D2CAD
:104CC00004D1002005F0BCF9044601E00120D6E73C
:104CD0001D2C01D10020D2E70120D0E70120CEE732
:104CE0000346002070472DE9F04107460C46154663
:104CF0001E464FF01C0814B90420BDE8F0810EB91F
:104D00000420FAE787B9012E06D169027202204613
:104D100003F0D0FB804607E0690233464FF400728F
:104D2000204604F02FFD8046B8F11D0F01D1002070
:104D3000E3E70120E1E7014609B9002070470120BF
:104D4000FCE72DE9F04107460C4615461E464FF09C
:104D50001C0814B90420BDE8F0810EB90420FAE75C
:104D600087B9012E06D169027202204603F0AEFC1B
:104D7000804607E0690233464FF40072204604F093
:104D80004FFE8046B8F11D0F01D10020E3E701205E
:104D9000E1E710B501EB4102D30000F11002D25857
:104DA00022F0010301EB4102D40000F11002135183
:104DB00010BD10B501EB4102D30000F11002D25832
:104DC00042F0010301EB4102D40000F11002135143
:104DD00010BD30B5134601EB4104E50000F11004AD
:104DE000625922F0606242EA436201EB4104E5004D
:104DF00000F11004625130BD10B501EB4102D30047
:104E000000F11002D25822F4807301EB4102D40069
:104E100000F11002135110BD10B501EB4102D30097
:104E200000F11002D25842F4807301EB4102D40029
:104E300000F11002135110BD10B501EB4102D30077
:104E400000F11002D25822F0010301EB4102D4001C
:104E500000F110021351002301EB4102D40000F1D4
:104E60001002135101EB4102D40000F1140213515E
:104E700001EB4102D40000F11802135101EB410291
:104E8000D40000F11C02135101EB4102D40000F1E7
:104E900020021351212301EB4102D40000F124022E
:104EA000135104290CDA01EB41025300C1F3400213
:104EB00003EB82033D229A4083681A4382600DE02F
:104EC0000A1FD1B201EB41025300C1F3400203EBD0
:104ED00082033D229A40C3681A43C26010BD10B5D8
:104EE00004290CDA01EB41035C00C1F3400304EB3D
:104EF000830302FA03F38468234383600DE00B1FEE
:104F0000D9B201EB41035C00C1F3400304EB83031E
:104F100002FA03F3C4682343C36010BD30B50346EF
:104F2000002004290FDA01EB41046500C1F34004BD
:104F300005EB840402FA04F41D682C400CB1012036
:104F400012E0002010E00C1FE1B201EB410465000B
:104F5000C1F3400405EB840402FA04F45D682C40BC
:104F60000CB1012000E0002030BD30B572B901EB7A
:104F70004103DC0000F110031B5923F0200401EB76
:104F80004103DD0000F110035C510DE001EB410332
:104F9000DC0000F110031B5943F0200401EB410336
:104FA000DD0000F110035C5130BD30B532B101EBD2
:104FB0004104E50000F12004635105E001EB4104E8
:104FC000E50000F11C04635130BD000070B501EB39
:104FD0004104E50000F124046459156A45F0040514
:104FE0002C4301EB4105EE0000F12405AC5101EB2F
:104FF0004104E60000F118041568A55101EB4104D5
:10500000E60000F11C04D568A55101EB4104E6005F
:1050100000F11404D56AA55101EB4104E50000F14B
:1050200010046359414C2340156954682C43156B97
:105030002C43956A2C4395692C43D5692C43234313
:1050400001EB4104E50000F110046351946874B968
:1050500001EB4104E50000F11004645944F40075CB
:1050600001EB4104E60000F11004A5511FE0946833
:10507000012C0ED101EB4104E50000F1100464594C
:1050800024F4007501EB4104E60000F11004A55181
:105090000DE001EB4104E50000F11004645944F413
:1050A000004501EB4104E60000F11004A5515469EC
:1050B00074B901EB4104E50000F11004645944F4B3
:1050C000806501EB4104E60000F11004A5510DE0FC
:1050D00001EB4104E50000F11004645924F48065FB
:1050E00001EB4104E60000F11004A551546A74B9C3
:1050F00001EB4104E50000F11004645944F48075AB
:1051000001EB4104E60000F11004A5510DE001EBB4
:105110004104E50000F11004645924F4807501EBAA
:105120004104E60000F11004A55170BD3F871CFE4C
:1051300030B58DB004460D46012203212748FFF704
:10514000CEFE042203212548FFF7C9FE08220321D1
:105150002248FFF7C4FE102203212048FFF7BFFEBC
:10516000202203211D48FFF7BAFE03211B48FFF749
:1051700010FE03211948FFF75FFE194800900394C1
:1051800000200A900B9001200290002005904FF41F
:1051900080500190800004904FF440300C904FF408
:1051A00000100790800006900320089001200990CD
:1051B0006A4603210948FFF709FF01220321074836
:1051C000FFF7D3FE042203210448FFF702FE032168
:1051D0000248FFF7EEFD0DB030BD00000064024054
:1051E000802C014070B501EB4104E50000F124047E
:1051F000645924F0040501EB4104E60000F12404A5
:10520000A55101EB4104E60000F118041568A55111
:1052100001EB4104E60000F11C049568A55101EB87
:105220004104E60000F11404D569A55101EB4104E5
:10523000E50000F1100463593F4C2340146944EA2F
:105240008404156A2C4395692C43234301EB4104E4
:10525000E50000F110046351546874B901EB410496
:10526000E50000F11004645944F4007501EB4104B9
:10527000E60000F11004A5511FE05468012C0ED186
:1052800001EB4104E50000F11004645924F40075B9
:1052900001EB4104E60000F11004A5510DE001EB23
:1052A0004104E50000F11004645944F4004501EBA9
:1052B0004104E60000F11004A551D46874B901EB73
:1052C0004104E50000F11004645944F4806501EBE9
:1052D0004104E60000F11004A5510DE001EB41048A
:1052E000E50000F11004645924F4806501EB4104E9
:1052F000E60000F11004A551546974B901EB4104B2
:10530000E50000F11004645944F4807501EB410498
:10531000E60000F11004A5510DE001EB4104E500A9
:1053200000F11004645924F4807501EB4104E60097
:1053300000F11004A55170BD3F87FCFF0021016002
:1053400001214160002181600121C16000210161D2
:105350000121416100218161C1610162704700004A
:1053600030B58DB004460D46012203212748FFF7D2
:10537000B6FD042203212548FFF7B1FD08220321D1
:105380002248FFF7ACFD102203212048FFF7A7FDBC
:10539000202203211D48FFF7A2FD03211B48FFF730
:1053A000F8FC03211948FFF747FD194800900394C2
:1053B00040200A9000200B900120029000200590D0
:1053C0004FF480500190800004904FF440300C90D6
:1053D0004FF40010079080000690012009900320F0
:1053E00008906A4603210948FFF7F0FD01220321D6
:1053F0000648FFF7BAFD042203210448FFF7E9FC41
:1054000003210248FFF7D5FC0DB030BD0064024017
:10541000802C014010B501EB4103DC0000F11403C6
:105420001A5110BD024601EB4100C30002F1140005
:10543000C058704710B5002406480078012806D1EE
:1054400005480068804700200249087000E00624F3
:10545000204610BDC6010020CC0100202DE9F047F8
:1054600005460C464FF0000A2088052837D1687899
:105470004FEA0028A87840EA080808F101001FFA5E
:1054800080F8E878060228790643012E24DB7D2E79
:1054900022DA2F4600202080042007F8010B208804
:1054A000401C20807006000E07F8010B2088401C6D
:1054B000208032464146384600F0F8F98146B9F17D
:1054C000000F04D0484602F0DBF9824609E020884C
:1054D00000EB4600208004E04FF0030A01E04FF0AB
:1054E000030A5046BDE8F0872DE9F04705460C4613
:1054F00016461F46DDF820904FF000081CB1012C25
:1055000001DBF72C02DD4FF0020835E01C48047087
:1055100005BB1C481C4908601C481D4908601D4803
:105520001D4908601D481E49086000201D4908608B
:105530001D481E4908601E481E4908601E481F4934
:1055400008604B463A4631460D48007800F0D8F8DE
:10555000804602E04FF0020800BF00BFB8F1000F24
:105560000AD105F0E1FF10B94FF0030804E0144838
:1055700005700120134908704046BDE8F08700001F
:10558000C401002081580108CC0100209D58010869
:10559000D0010020F9570108C80100205157010827
:1055A000D4010020D801002091B60108DC010020C0
:1055B000F9B70108E00100206DB70108E4010020FF
:1055C000C5010020C601002038B5002541480078FB
:1055D00008B1062038BD684605F094FF012877D150
:1055E0009DF8000030B1012805D0022818D003280A
:1055F0006DD16BE06BE0384A38493948394B1B684C
:10560000984705465DB93648007837490978884299
:1056100002D03348007810B9022005F08DFF56E023
:105620002E48006800783149087001203049087020
:10563000002417E02F4810F8340000B914E02D487A
:1056400010F834002949097888420AD1294800EB2A
:10565000C4002149426821480068904724490870E5
:1056600002E0641C102CE5DB00BF1D48007858B335
:105670001F480078C8B10020174908801B480078EF
:1056800040F08001144802880088401C124B1880AA
:10569000124800688154164802781846018800882C
:1056A000401C18800D4800684254134800780128B7
:1056B00000D100BF08480288084801680A480078FD
:1056C0000E4B1B689847054601E001E000BF00BF94
:1056D00000207FE7C6010020760200207002002033
:1056E00074020020D4010020C401002075020020B3
:1056F00078020020F0010020C5010020C801002030
:105700002DE9F04781460E4614461F464FF000082B
:105710003B4608222146304605F028FF012802D0EA
:105720004FF003080FE0B4F5964F01D9232503E0AD
:1057300060000649B1FBF0F5A8B205F065FF01284D
:1057400001D04FF003084046BDE8F087A07F170066
:105750002DE9F04104460D46164600271148008801
:10576000FF2800DC04E0A3220FA118A0FCF74EFEE6
:105770000C480088042810DB0A4801881D4805F001
:10578000C5FC50B91B480078207006480088C01E30
:1057900030801848401C286000E005273846BDE8E6
:1057A000F0810000860200202E2E5C50726F746F14
:1057B000636F6C5C667265656D6F646275735C7255
:1057C00074755C6D627274752E630000757352633C
:1057D00076427566666572506F73203C204D425F5D
:1057E0005345525F5044555F53495A455F4D4158A8
:1057F00000000000200F00202DE9F04105460E4674
:1058000017464FF0000819480078012829D1701E6A
:10581000174908600120174908801548006805707D
:105820000846008838440880084601881048006807
:1058300005F06CFC04460F490888411C0D4B19808B
:105840000D490C54221219460888411C19800A4936
:105850000A540120094908700121002005F0E2FDE9
:1058600001E04FF005084046BDE8F0817D020020D0
:105870008002002084020020200F00207C020020F3
:1058800010B50020044908700021012005F0CAFD70
:1058900005F00CFE10BD00007D02002010B50021B7
:1058A000084605F0BFFD05F0F1FD10BD10B503463B
:1058B0000C460BB104B10AB9022010BD601E81B2C2
:1058C000062904D2C1F1060080B2904201DA01201B
:1058D000F3E70EE0094830F81100001203F8010B5D
:1058E000064810F8110003F8010B481C81B2501E45
:1058F00082B2002AEED10020DFE700002010002055
:105900002DE9F0410746134C00250DE0C5EBC5031A
:10591000226802EB8300E1698847804642462946B7
:105920003846FDF7BCFB6D1CA088A842EEDC26695A
:10593000A5880AE0301DE16988478046424629462D
:105940003846FDF7ACFB36686D1C002EF2D1BDE881
:10595000F0810000280700202DE9F04782460D461F
:1059600016461F46DDE90889114CB9F1000F02D037
:10597000B8F1000F02D10020BDE8F0873C2120469D
:10598000FBF78EFCC4F800A0A580A660A781C4F830
:105990001890C4F81C80002084F830004FF6FF7087
:1059A0006086002060634FF4FA70A0630120E3E793
:1059B000280700201CB5044600200090019068468E
:1059C000FFF79EFF2146684600F05EF81CBD2DE9FA
:1059D000FC4707460D4616461C46DDF82880214642
:1059E0003046FDF785FB00F0FF0921462846FDF70C
:1059F0007FFB00F0FF0A002043464A465146CDE9AE
:105A00000040384601F082FDBDE8FC872DE9FF47E4
:105A100006460F4615461C46DDF8308000200290F1
:105A2000039040212046FDF76EFB08B9BDE8FF87D3
:105A300040232246294602A8FDF71EFB40222146AC
:105A400002A8FDF743FB08B9012000E000208146D1
:105A500040232246394602A8FDF70EFB402221468C
:105A600002A8FDF733FB08B9012000E000208246C0
:105A70000120811E43464A46CDE90010514630467A
:105A800001F044FD00BFD1E72DE9FE4F07468846EF
:105A90006C4C94F8300000F0010ABAF1000F0ED0FF
:105AA00004F1280B402002900298401E012202EBD4
:105AB000501081005846FBF7F3FB00BF00BFBAF15E
:105AC000000F49D0002521E000200190029005EB55
:105AD000C501A06800EB810B40235A46394601A856
:105AE000FDF7CAFA4022594601A8FDF7EFFA08B9B6
:105AF000012000E000200090009830B140235A4679
:105B000004F128010846FDF728FB6D1CA089A84276
:105B1000DADC66691EE000200190029006F1040BB9
:105B200040235A46394601A8FDF7A6FA40225946B5
:105B300001A8FDF7CBFA08B9012000E00020009091
:105B4000009830B140235A4604F128010846FDF779
:105B500004FB3668002EDED1002518E0BAF1000FF4
:105B600006D0294604F12800FDF7C2FA00B10DE085
:105B7000CDF80080C5EBC502216801EB82002B4601
:105B80003A4604F12001FFF722FF00BF6D1CA088F8
:105B9000A842E3DCD4F81090A58817E0BAF1000F12
:105BA00006D0294604F12800FDF7A2FA00B10AE068
:105BB0002B463A4604F1200109F10400CDF800809B
:105BC000FFF705FF00BFD9F800906D1CB9F1000F79
:105BD000E4D1002512E0CDF8008005EBC502A168F4
:105BE00001EB820305EBC50201EB820101F1080024
:105BF0003A4604F12001FFF709FF6D1CA089A84275
:105C0000E9DC66690AE0331D3A4604F1200106F139
:105C10000C00CDF80080FFF7F9FE3668002EF2D1B7
:105C200004F120004FF0400B0290ABF10100012184
:105C300001EB5010820039460298FBF718FB00BFB9
:105C4000BDE8FE8F280700200246501A704700006A
:105C50000149086070470000143C01400146044AB5
:105C600012680A400AB1012000E0002070470000DD
:105C7000143C014070B50446204600F0BEF90546CC
:105C80000DB900202060284670BD00000246012AA0
:105C900001DB0B207047074850F822300BB1002081
:105CA000187009B100200870024840F82210002046
:105CB000F0E700005C0000202DE9F743ADF50C7D16
:105CC000054616460020286006F01F0626F0010251
:105CD00083A98DA8FEF734F9074680A88990CDF8EE
:105CE00028D227B983A88D9900F06CFB0746889CC1
:105CF0000FB904B9062706F01C00002858D04FB190
:105D0000042F03D183A8FEF794FE074646F0080649
:105D1000889C09E0E07A00F0110008B1072703E051
:105D200006F0040000B10827002F40D106F008005B
:105D300000283CD000F05EFC804684F80E804FEADC
:105D40001821E1734FEA184121744FEA1861617418
:105D50000020E072207700216177A177E177A17EB2
:105D6000E07E41EA0021227D607D42EA002041EA96
:105D700000490020A0760021E176207561750120A0
:105D800083990871B9F1000F11D08398D0F82C8055
:105D90004946839802F0F6F9074647B9A9F1010090
:105DA0008399C8604146839801F08EF807460EE05B
:105DB0006FB9E07A00F0100008B1042707E006F0A0
:105DC000020020B1E07A00F0010000B1072747B9D6
:105DD00006F0080008B146F020068398C06AE86122
:105DE0002C62F7B9AE71A17EE07E41EA0021227DEE
:105DF000607D42EA002041EA00402861E07F010620
:105E0000A07F41EA0041607F41EA0020217F0843F2
:105E1000E8600020A860A861839828608398C08803
:105E2000A88038460DF50F7DBDE8F0832DE9FF4FC2
:105E300083B0044615469A46DDF810B00020CAF833
:105E40000000A188206805F047FB0290029818B175
:105E5000029807B0BDE8F08FA07900F0800008B18B
:105E60000220F6E7A07900F0010008B90720F0E76A
:105E7000D4E90210401A00900098854200D9009D94
:105E8000B6E02089C0F3080000287DD12068807822
:105E9000401EA16800EA512000F0FF09B9F1000F8F
:105EA0001DD1A06810B92069019004E061692068E3
:105EB00000F02EFB01900198022805D2A07940F055
:105EC0008000A0710220C4E70198401C28B9A07985
:105ED00040F08000A0710120BBE70198606161691A
:105EE0002068FEF7F7F906462EB9A07940F0800049
:105EF000A0710220ADE74E444FEA5528B8F1000FDB
:105F00002DD009EB080021688978884203D92068E0
:105F10008078A0EB090808F0FF0321684878324632
:105F20005946FEF7E0FE28B1A07940F08000A0714C
:105F300001208EE7A07900F0400068B1A069801BC5
:105F4000404509D2A169891B0BEB41204FF4007237
:105F500004F1240100F08FFF4FEA48273EE0A069DA
:105F6000B04227D0A07900F04000A0B12168487865
:105F7000012304F12401A269FEF7E3FE38B1A07900
:105F800040F08000A07100E015E0012061E7A079F9
:105F900020F04000A071216848780123324604F1C6
:105FA0002401FEF7A0FE28B1A07940F08000A07186
:105FB00001204EE7A6612089C0F30800C0F50077F4
:105FC000AF4200D92F462089C0F3080204F1240013
:105FD00011183A46584600F04EFF00BFBB44A06877
:105FE0003844A060DAF800003844CAF80000ED1B1D
:105FF000002D7FF446AF00202BE72DE9F041044649
:10600000A188206805F068FA0746002F4FD1A079D3
:1060100000F0200000284AD0A07900F0400078B1BC
:1060200021684878012304F12401A269FEF789FE62
:1060300010B10120BDE8F081A07920F04000A071EE
:10604000E169206800F040FF0746002F2FD1256A44
:10605000E87A40F02000E872207B2877A089010AC6
:106060006977E068010CA977E068010EE977207C88
:10607000A876208A010AE9762069000C2875206933
:10608000010E697500F0B6FA0646AE75310AE9757B
:10609000310C2976310E6976A07920F02000A071AC
:1060A000012021680871206804F0BFFB07463846CC
:1060B000C0E72DE9FF4F83B0044615469B46049880
:1060C00001900020CBF80000A188206805F004FAB8
:1060D0000290029818B1029807B0BDE8F08FA0793D
:1060E00000F0800008B10220F6E7A07900F002007D
:1060F00008B90720F0E7E0682844E168884200D248
:106100000025CDE02089C0F30800002877D1206861
:106110008078401EA16800EA512000F0FF0ABAF121
:10612000000F2AD1A06858B9D4F81080B8F1000F38
:106130000BD100212068FEF74EF98046206104E073
:1061400061692068FEF747F98046B8F1000F00D179
:10615000A9E0B8F1010F05D1A07940F08000A0714D
:106160000220B9E708F1010028B9A07940F08000C9
:10617000A0710120B0E7C4F81480A07900F04000BD
:1061800090B121684878012304F12401A269FEF747
:10619000D8FD28B1A07940F08000A07101209BE7D4
:1061A000A07920F04000A07161692068FEF792F8A4
:1061B00006462EB9A07940F08000A07102208BE73E
:1061C00056444FEA5529B9F1000F2FD00AEB0900C8
:1061D00021688978884203D920688078A0EB0A0971
:1061E00009F0FF032168487832460199FEF7A9FDBE
:1061F00030B1A07940F08000A07101206CE72CE064
:10620000A069801B48450ED2A069801B019A02EB51
:1062100040214FF4007204F1240000F02CFEA0791C
:1062200020F04000A0714FEA49272DE0A069B0425C
:1062300012D0D4E9020188420ED2216848780123A5
:10624000324604F12401FEF74EFD28B1A07940F05A
:106250008000A07101203FE7A6612089C0F30800FB
:10626000C0F50077AF4200D92F462189C1F308025B
:1062700004F1240150183A46019900F0FCFDA07980
:1062800040F04000A07100BF019838440190A06820
:106290003844A060DBF800003844CBF80000ED1B68
:1062A000002D7FF42FAF00BFD4E90201884201D94D
:1062B000A068E060A07940F02000A07100200BE70A
:1062C00010B50246802A01DA10461BE051B1FF2AC0
:1062D00001DD002304E0A2F180030B4C34F81330FD
:1062E00018460FE0002007E0074B33F810309342C8
:1062F00000D103E0431C98B28028F5DB00BF00F119
:106300008003D8B210BD0000E2C30108024600219C
:1063100000E0491C094830F8110020B1074830F866
:1063200011009042F5D1054830F8110018B1044829
:1063300030F8110070471046FCE70000E2C4010885
:10634000C2C60108F0B504461D464D730F27CF7233
:1063500000270F738F76BC4681F81BC0571E07EBD2
:10636000870C0CEBC706002738463B4600BF4FF6AC
:10637000FF77B84203D03746761C34F81700DFF8B1
:1063800040C01CF803C001F80C000712DFF830C051
:106390001CF803C08C448CF8017008B94FF6FF70EC
:1063A0005F1C3B460D2FE2D34FF6FF77B84202D079
:1063B00034F816700FB942F040020A70F0BD0000C8
:1063C00054C301082DE9F3410446019800782F28B1
:1063D00003D0019800785C2802D10198401C0190FC
:1063E0000020A06001980078202807D200212046D4
:1063F000FEF7E5FB0646002060612FE000BF01A923
:106400002046FEF74DF8064606B126E02046FEF788
:1064100015FA0646A069C77A46B1042E00D01CE0E2
:1064200000BF07F0040000B9052616E007F00400DD
:1064300000B112E06569E87A00F0100008B905269D
:106440000BE0A97EE87E41EA00212A7D687D42EAD0
:10645000002041EA0040A060D1E700BF3046BDE81F
:10646000FC814FF0407070472DE9FC4780468A461A
:1064700017461C460B225146404600F0FCFC052CFA
:106480000ADD00BF601000EBC43137F8022B88181A
:1064900084B238880028F5D1072500BF2046E117CF
:1064A00004EB11710911A4EB0111303101F0FF0966
:1064B000B9F1390F03DD09F1070000F0FF092846A3
:1064C0006D1E0DF800902046E11704EB1171C1F329
:1064D0000F14002CE2D17E200DF80500002600E00C
:1064E000761CAE4203D218F806002028F8D100BF6F
:1064F000082D04D228466D1C1DF8000000E0202065
:106500003146761C08F80100082EF1D3BDE8FC875F
:106510002DE9F04105460C46022C02D3A869A042A1
:1065200002D80120BDE8F0812878012804D0022893
:106530002CD003285AD13DE0274607EB5707286A9D
:1065400000EB5721284600F0BFFC00B14EE0C7F336
:10655000080105F1300010F801807F1C286A00EB6B
:106560005721284600F0B0FC00B13FE0C7F3080116
:1065700005F13000405C48EA002804F0010010B149
:106580004FEA1810CEE7C8F30B00CBE7286A00EB00
:106590001421284600F098FC00B127E040F2FF10DB
:1065A00000EA440105F130000E183078717840EAB5
:1065B0000120B7E7286A00EBD411284600F084FCDC
:1065C00000B113E040F2FF1000EA840105F1300051
:1065D0000E18F0780006B17840EA0140717840EA80
:1065E00001203178084320F070409BE700BF4FF056
:1065F000FF3097E7002070472DE9F04700210C4657
:106600000D4600F007FE06464FF0000915E0FDF7C5
:1066100071FC0E4A1268871841F100010C480268AB
:1066200000233846FAF7F2FD0A4A13685268C41884
:1066300041EB0205304600F09BFEB9F1000009F184
:106640000409E4D020462946BDE8F087AC020020CA
:10665000A8020020B80200202DE9F04100210C46DC
:106660000D4600F0D7FD0646002718E0FDF742FC76
:106670000F4A13685268C41841EB02050D490868B7
:106680004968201A75EB010003DA0A480468456876
:1066900002E0084804604560304600F069FE381E9C
:1066A00007F10407E2D020462946BDE8F08100004A
:1066B000C802002098020020F0B503461C6A5D6AFB
:1066C00000200DE00126864016403EB187000F26CF
:1066D000BE40B443860001FA06F63443461CB0B20D
:1066E0000828EFD3082011E00126864016405EB14D
:1066F000A0F10806B7000F26BE40B543A0F108067A
:10670000B60001FA06F63543461CB0B21028EBD3AA
:106710001C625D62F0BD816270478161704700005C
:1067200010B54FF4F8520C211848FFF7C5FF0422AA
:106730000C211748FFF7C0FF4FF4706301220221BC
:10674000124800F030F84FF47063012200210F4826
:1067500000F050F84FF48053002202210B4800F063
:1067600022F84FF4805301220021084800F042F83B
:10677000042301220221064800F015F80423012217
:106780000021034800F036F810BD00000008024068
:10679000000C02400246002013690B400BB101209F
:1067A00000E000207047F0B504460D46164621680B
:1067B000E268002019E0012787401F409FB14FEA9F
:1067C000400C032707FA0CF7B943470005FA07F70F
:1067D00039434FEA400C032707FA0CF7BA43470046
:1067E00006FA07F73A43471CB8B21028E3D32160F2
:1067F000E260F0BDF0B50C461546012C03D14668A9
:106800001E43466002E046689E434660826800215F
:106810000DE001268E401E403EB14F000326BE40D3
:10682000B2434E0005FA06F632434E1CB1B21029AF
:10683000EFD38260F0BD0A460021016821F4806137
:1068400011430160704700002DE9F05F04460E46D9
:106850009346022001F0DCFA07463148B7FBF0F915
:10686000B9F13C0F01D34FF03C09D4F804A02AF051
:106870003F0A4AEA090AC4F804A02A4886421ED8F8
:106880002748B7FBF0F000F10108B8F13C0F02D344
:106890003C20206207E0B8F1020F02D802202062FB
:1068A00001E0C4F820807000B7FBF0F5042D00D2A1
:1068B0000425E069C5F30B010843E0612EE01A48A6
:1068C00086422BD84FF4967009FB00F04FF47A7192
:1068D000B0FBF1F0401C2062BBF1000F08D106EBC9
:1068E0004600B7FBF0F5E06920F48040E06109E084
:1068F00006EBC60000EB0610B7FBF0F5E06940F4CC
:106900008040E061C5F30B0008B945F00105E0697E
:1069100040F40040E061E0692843E061BDE8F09F99
:1069200040420F00A0860100801A060010B5044600
:106930001348204430B1B0F5806F0CD0B0F5006F33
:106940001BD111E040F6150001F0FEFB40F61500EA
:1069500001F0E8FB12E040F6160001F0F5FB40F60E
:10696000160001F0DFFB09E040F6170001F0ECFB38
:1069700040F6170001F0D6FB00E000BF00BF10BDDD
:1069800000ACFFBF0A460021416821F400611143B9
:1069900041607047016841F001010160704710B526
:1069A00040F20152914202D1426982690AE000EB51
:1069B0009112126801F01F040123A3409A4300EBD7
:1069C00091131A6010BD30B5024602EB91131B689B
:1069D00001F01F050124AC4023400BB1012000E071
:1069E000002030BD12F1020F02D121F0010101E0BF
:1069F00041F001010161704730B50C46002101688A
:106A000021F0020121430160C3F3090342EA0305B7
:106A1000856030BD016841F4807101607047016894
:106A200041F40071016070472DE9F04104460025F2
:106A300000F0F0FB0646002708E0204600F005FCC9
:106A4000054600F0DFFB304600F092FC381E07F1EF
:106A50000407F2D004F020FB0021094A11605160C4
:106A6000084A11605160084A116051600020074ACD
:106A700010605060FBF718FD2846BDE8F08100006B
:106A8000C8020020B8020020C002002098020020A6
:106A900010B500BF4FF480701949086000BF04F0C2
:106AA00029F840B100BF00BF4FF4007014491439F9
:106AB000086000BF08E000BF00BF4FF4007010493D
:106AC000091F086000BF00BF00BF00BF4FF4806017
:106AD0000B49091F086000BF00BF00BF00BF400096
