:020000040801F1
:10100000B0BE0020F5120108911D01088D1C0108D9
:101010008D1D0108451A01083D2601080000000049
:101020000000000000000000000000004F22010846
:10103000491A0108000000002522010819130108BF
:101040000F1301080F1301080F1301080F130108F4
:101050000F1301080F1301084D1A01080F1301089F
:101060000F1301080F1301080F1301080F130108D4
:101070000F1301080F1301080F1301080F130108C4
:101080000F1301080F1301080F1301080F130108B4
:101090000F1301080F1301080F1301080F130108A4
:1010A0000F1301080F1301080F1301080F13010894
:1010B0000F1301080F1301080F1301080F13010884
:1010C0000F1301080F1301080F1301080F13010874
:1010D0000F130108E924010881250108F5250108FD
:1010E0000F130108292201080F1301080F1301082B
:1010F0000F1301080F1301080F1301080F13010844
:101100000F130108472201080F1301080F130108EC
:101110000F1301080F1301080F1301080F13010823
:101120000F1301080F1301080F1301080F13010813
:101130000F1301080F1301080F1301080F13010803
:101140000F1301080F1301080F1301080F130108F3
:101150000F1301080F1301080F1301080F130108E3
:101160000F1301080F1301080F1301080F130108D3
:101170000F1301080F1301080F13010800000000EE
:101180000F1301080F1301080F1301080F130108B3
:101190000F1301080F1301080F13010800000000CE
:1011A0000F1301080F1301080F130108DFF810D007
:1011B00000F04EFB00F02AF900480047B175010825
:1011C000B0BE002010B5494C00E0641E4FF48030E2
:1011D00005F0E2FC08B1002CF7D10CB1012010BDE4
:1011E0000020FCE710B5012005F0D0FC102005F030
:1011F000CDFC802005F0CAFC402005F0C7FC10BDE6
:101200002DE9F04104460F4617B1B4F1006F02D248
:101210000020BDE8F081E019451E3548854201D91E
:101220000020F6E7C4F30B00261AC5F30B002D1AB5
:1012300005F03AFDFFF7D6FF0DE0304605F0C0FCA3
:10124000FFF7C0FF18B905F0B1FC0020E1E7FFF798
:10125000C9FF06F58056AE42EFD905F0A7FC012084
:10126000D7E72DE9F04104460E46154606B115B9FB
:101270000020BDE8F081B4F1006F04D36019401E76
:101280001B49884201D90020F3E705F00DFDFFF767
:10129000A9FF0FE0D6F800804146204605F016FD74
:1012A000FFF790FF18B905F081FC0020E1E7241D4D
:1012B000361D2D1F04F0030008B9042DEAD20027C3
:1012C0000BE0F15DE01905F039FCFFF77BFF18B981
:1012D00005F06CFC0020CCE77F1CAF42F1D3FFF798
:1012E00081FF05F063FC0120C3E70000FFFF3F0022
:1012F000FFFF07080648804706480047FEE7FEE76D
:10130000FEE7FEE7FEE7FEE7FEE7FEE7FEE7FEE7B5
:101310006D230108AD11010830B410B503488047B2
:1013200030BCAE4630BC024800470000D184010802
:101330005322010800BF70472DE9F0410024061B2D
:10134000254671F1000605DA01240027D0EB0700DD
:1013500067EB0101161E73F1000605DA0027D2EBD8
:101360000702012567EB030300F089F886460E4665
:1013700017469C46AC4204D00025D0EB050E65EB29
:10138000010624B10020D2EB000760EB030C70468D
:1013900031463A466346BDE8F08140EA01039B07C7
:1013A00003D009E008C9121F08C0042AFAD203E0DA
:1013B00011F8013B00F8013B521EF9D27047D2B23E
:1013C00001E000F8012B491EFBD270470022F6E72E
:1013D00010B513460A4604461946FFF7F0FF2046AB
:1013E00010BD421C10F8011B0029FBD1801A704768
:1013F00030B504460020034600E05B1C934203D254
:10140000E05CCD5C401BF8D030BD000070B5054CF1
:10141000054D03E0206820448047241DAC42F9D1EB
:1014200070BD000034F4010838F4010800F00042F7
:1014300030F000400AD0C10D01F56071C0F3160014
:1014400042EA0151C208400711437047002001469B
:10145000704730B50B46014600202022012409E0E8
:1014600021FA02F59D4205D303FA02F5491B04FA5D
:1014700002F52844151EA2F10102F1DC30BD2DE970
:10148000F05F0546002092469B4688460646814608
:1014900040241BE0284641464746224600F0F9F921
:1014A00053465A46C01A914110D311461846224657
:1014B00000F0E0F92D1A67EB01084F4622460120A3
:1014C000002100F0D7F917EB00094E41201EA4F1CE
:1014D0000104DFDC484631462A464346BDE8F09F1A
:1014E0002DE9FE4F804681EA0300C00F0C460090B4
:1014F00021F0004123F00045B8EB0200A94105D2DC
:101500004046214690461C460B46024623F00040CA
:10151000104347D0270DC7F30A00C3F30A510290C6
:10152000401A019040286BDAC3F3130040F4801B8B
:101530000098924620B10023D2EB030A63EB0B0B19
:1015400001985946C0F14002504600F093F9064612
:101550000D4650465946019A00F0ABF910EB0800D1
:101560006141002487EA115284EAE7731A4340D0AC
:10157000009A62B3019A012A4FEA075215DC001B58
:1015800061EB02014FF0004202EA0752CDE900424E
:10159000001C41F5801132462B4600F0ABF903B038
:1015A000BDE8F08F40462146F9E7001B61EB0201E0
:1015B000001C41F5801300185B412018A2F50017AC
:1015C00047EB030140EAD570B6196D4111E06D0893
:1015D0004FEA360645EAC0754FEA0752001B61EB39
:1015E0000201001C41F5801149084FEA3000001942
:1015F000514132462B4603B0BDE8F04F00F06BB9C5
:101600000098012240000023D0EB020263EBE0735C
:10161000009821464FEAE074B8EB000061EB04014A
:10162000E9E783F000435BE781F0004158E72DE9EB
:10163000FE4F81EA030404F0004421F000410094CD
:101640004FF0000B23F0004350EA01045ED052EA51
:1016500003045BD0C3F30A54C1F30A552C44A4F22B
:10166000F3340194A0FB0254C1F3130141F480113F
:10167000C3F3130343F4801301FB024400FB034E46
:10168000840A970A44EA815447EA8357A4FB07680F
:1016900002958D0A05FB07854FEA932C04FB0C5439
:1016A0002705029D4FEA065847EA1637B5EB0805AD
:1016B0006EEB070C870E920E47EA811742EA8312FF
:1016C000A7FB0201B6EB0B0164EB00042B0D43EA10
:1016D0000C335E1844EB1C50DA465146E7FB02011E
:1016E000C5F313044FEA0B3343EA14534FEA0432B1
:1016F000019C43EA0603A4F10C040294009CCDE98A
:1017000000B400F0F7F803B0BDE8F08F0020014608
:10171000F9E72DE9F04D81EA030404F0004B21F0D4
:10172000004514464FF0000A23F0004150EA05023C
:1017300020D054EA01021DD0C5F30A570246C5F372
:101740001303C1F31300C1F30A5640F4801543F4A8
:101750008013A7EB0608101BD64608F2FD3873EB82
:10176000050002D308F1010801E092185B41B8F1CD
:10177000000F03DA00200146BDE8F08D00204FF491
:101780008011064684460EE0171B73EB050705D350
:10179000121B63EB050306434CEA010C49084FEAB0
:1017A000300092185B4150EA0107EDD152EA030084
:1017B00012D082EA040083EA0501084305D0101B19
:1017C000AB4106D20122002306E000224FF0004385
:1017D00002E06FF0010253101AEB06004CEB0851C7
:1017E00010EB0A0041EB0B01BDE8F04D00F073B8BF
:1017F000C1F30A52C1F3130140F2FF3341F48011E7
:101800009A4202DA00200146704740F233439A427E
:10181000A2F2334202DC524200F03BB800F02AB898
:1018200030B5041E71F1000404DB4FF00044404267
:1018300064EB0101141E73F1000405DB1C464FF03C
:101840000043524263EB0403994208BF904230BD0B
:10185000064C074D06E0E06840F0010394E80700FD
:1018600098471034AC42F6D3FFF7A4FC14F40108F7
:1018700034F40108202A04DB203A00FA02F10020A7
:1018800070479140C2F1200320FA03F319439040BE
:101890007047202A04DB203A21FA02F00021704729
:1018A00021FA02F3D040C2F12002914008431946C8
:1018B0007047202A06DBCB17203A41FA02F043EAB0
:1018C000E07306E041FA02F3D040C2F120029140F9
:1018D00008431946704710B5141E73F1000408DA66
:1018E000401C41F1000192185B411A4301D120F0E4
:1018F000010010BD2DE9F04D92469B4611B1B1FAA1
:1019000081F202E0B0FA80F220329046FFF7B2FF97
:1019100004460F4640EA0A0041EA0B0153465A4684
:10192000084313D0114653EA010019D0C8F1400210
:101930005046FFF7AEFF05460E4650465946424612
:10194000FFF798FF084305D0012004E02046394600
:10195000BDE8F08D0020054346EAE0762C4337438E
:101960000A986305E40AA0EB08000022FD0A44EA95
:1019700047540A3002D500200146E9E70105101955
:101980006941DDE9084500196941BDE8F04DA2E76C
:1019900070B58C1810F8015B15F0070301D110F831
:1019A000013B2A1106D110F8012B03E010F8016B5E
:1019B00001F8016B5B1EF9D12B0705D40023521EE1
:1019C0000DD401F8013BFAE710F8013BCB1A921C49
:1019D00003E013F8015B01F8015B521EF9D5A14247
:1019E000D8D3002070BD000007281AD2DFE800F02D
:1019F00004070A0D101316009FED0B0A70479FEDA8
:101A00000B0AFBE79FED0A0AF8E79FED0A0AF5E7E4
:101A10009FED090AF2E79FED090AEFE79FED080A3B
:101A2000ECE79FED030AE9E7A69BC4406F128340F1
:101A30006F1203406F12833F6F12033F6F12833E9A
:101A40006F12833D00BFFEE700BFFEE710B5012027
:101A500004F0C0FC10B1012004F0B6FC10BD000081
:101A600070B52DED028B05460C469FED2C0AB0EEAD
:101A7000408A2B48008865F34300294908800846BE
:101A8000008864F3061008800978C907090C244A05
:101A90001278C2F3420241EA0231214A1278C2F3BB
:101AA000021241EA42211E4A1278C2F3C01241EAF0
:101AB00002211B4A1288C2F3022241EA4211184A4B
:101AC0001288C2F3C02241EA0211154A1288C2F3F9
:101AD000003241EAC201124A1288C2F3413241EA9D
:101AE00042010F4A128841EAD2300BF013F8064641
:101AF0002046FFF779FF30B200EE900AF8EEE00AD8
:101B000020EE200ADFED070A80EE201AB0EE418AAF
:101B1000B0EE480ABDEC028B70BD00000000000072
:101B20001C0000200000004710B55348008820F03A
:101B30000100514908800846008820F00E00083056
:101B400008800846008820F0700020300880084691
:101B5000008820F0800008800846008820F4E060BB
:101B600000F5007008800846008820F400600880B6
:101B70000846008820F4805000F580500880084610
:101B8000008820F4C04000F5005008800846008816
:101B900020F4004000F50040088038480AF0EFFDCE
:101BA00035490978C907090C334A1278C2F3420251
:101BB00041EA0231304A1278C2F3021241EA42216C
:101BC0002D4A1278C2F3C01241EA02212A4A128831
:101BD000C2F3022241EA4211274A1288C2F3C0220C
:101BE00041EA0211244A1288C2F3003241EAC201DA
:101BF000214A1288C2F3413241EA42011E4A128848
:101C000041EAD2300AF086FF1B480078C007000C7A
:101C100019490978C1F3420140EA013016490978AF
:101C2000C1F3021140EA412013490978C1F3C01100
:101C300040EA012010490988C1F3022140EA41101D
:101C40000D490988C1F3C02140EA01100A490988F9
:101C5000C1F3003140EAC10007490988C1F34131AD
:101C600040EA41000449098840EAD13204A106480B
:101C700005F016FE10BD00001C00002000300140E1
:101C800030782534580D0A000010014000BFFEE7EF
:101C900010B54FF4407300220121394805F0A3FA32
:101CA0004FF4407302220021354805F0C3FA4FF487
:101CB0004071334805F051FA0A2003F017FB002465
:101CC00011E04FF480712E4805F045FA052003F02D
:101CD0000DFB4FF480712A4805F03FFA052003F010
:101CE00005FB601CC4B2092CEBDB4FF48071244867
:101CF00005F033FA4FF40071214805F02CFA052065
:101D000003F0F4FA4FF400711D4805F026FA05209F
:101D100003F0ECFA4FF4007301220221184805F099
:101D200062FA4FF4007302220121154805F082FA8D
:101D30004FF4807301220221114805F054FA4FF448
:101D40008073022201210E4805F074FA0D4805F057
:101D500027FB00220C490B4805F0B0FA7223002241
:101D60001146084805F087FB064805F052FB4FF482
:101D70008061044805F09AFA0A2003F0B7FA10BD12
:101D80000004024000540040801A060000BFFEE735
:101D900000BFFEE770B5002415E004F1B001C8B241
:101DA00000F0C0F8002000F0BDF8102000F0BAF8F4
:101DB000002504E0002000F075F9681CC5B2802DF4
:101DC000F8DB601CC4B2042CE7DB70BD10B58D20BD
:101DD00000F0A8F8102000F0A5F8AF2000F0A2F85D
:101DE00010BD000010B5642003F080FA01200C49FA
:101DF0000870002409E00B49085D00F093F80848DA
:101E0000007800B910BD601CC4B2162CF3D3FFF7E4
:101E1000C1FF0021084600F007F800BFF2E700000C
:101E20001E0000201F00002070B504460D4605F17D
:101E3000B001C8B200F076F8102141EA141000F0A9
:101E400071F804F00F0000F06DF870BD2DE9F04757
:101E500007460E469046994600250024A8F120002A
:101E6000C5B27F2F02DD0027701CC6B2B9F1100F7A
:101E700022D131463846FFF7D7FF002407E004EBB4
:101E80000511174A505C00F00DF9601CC4B2082C13
:101E9000F5DB701CC1B23846FFF7C6FF002408E02E
:101EA00004EB051108310E4A505C00F0FBF8601C91
:101EB000C4B2082CF4DB11E031463846FFF7B4FF1A
:101EC000002409E005EB4501064A02EB4101085DEB
:101ED00000F0E8F8601CC4B2062CF3DBBDE8F08724
:101EE000F4E40108CCE201082DE9F04104460F4674
:101EF0001546984600260FE0AA5D4346394620461F
:101F0000FFF7A4FF04F10800C4B2782C02DD00241E
:101F1000B81CC7B2701CC6B2A85D0028ECD1BDE8E1
:101F2000F081000070B5054642F210745848007800
:101F300000B970BD0020574908700846457040F24E
:101F40000161554805F07EFA08B1FFF7A1FE02E0F5
:101F5000012003F0CBF940F201614F4805F072FA1D
:101F600010B1601E041EF3D194B9FFF791FE42F246
:101F7000107402E0012003F0B9F940F20161464813
:101F800005F060FA10B1601E041EF3D104B9D0E769
:101F9000414805F07EFA414A4FF4A0613E4805F001
:101FA000F2FD28B9FFF774FE002039490870C0E738
:101FB0006FF001027821384805F053FA374805F0F0
:101FC000ADFD68B9344805F069FA42F21071324843
:101FD00005F0EBFDFFF75CFE00202D490870A8E737
:101FE00040F201512C4805F019FA2C4A40F20751F1
:101FF000294805F0C8FD28B9FFF74AFE002024490A
:10200000087096E7234B00220621254803F079FD4E
:1020100002220621224803F0A9FF4FF400611E4866
:1020200005F0EFF906211E4803F06FFC1B4A06215C
:102030001B4805F095FD68B90621194803F055FCC9
:102040000021154805F0DDF9FFF722FE00201049B8
:1020500008706EE720220621114803F0ECFC0621EF
:102060000F4803F042FC00210B4805F0CAF90A486A
:1020700005F014FA0949084805F097FD28B9FFF75B
:1020800007FE00200249087053E700BF51E7000037
:102090001E0000200400002000540040A086010023
:1020A0000060024070B5054642F21074584800784E
:1020B00000B970BD4020574908700846457040F28D
:1020C0000161554805F0BEF908B1FFF7E1FD02E0F6
:1020D000012003F00BF940F201614F4805F0B2F91D
:1020E00010B1601E041EF3D194B9FFF7D1FD42F286
:1020F000107402E0012003F0F9F840F20161464853
:1021000005F0A0F910B1601E041EF3D104B9D0E7A8
:10211000414805F0BEF9414A4FF4A0613E4805F040
:1021200032FD28B9FFF7B4FD002039490870C0E737
:102130006FF001027821384805F093F9374805F02F
:10214000EDFC68B9344805F0A9F942F21071324843
:1021500005F02BFDFFF79CFD00202D490870A8E736
:1021600040F201512C4805F059F92C4A40F2075130
:10217000294805F008FD28B9FFF78AFD0020244909
:10218000087096E7234B00220621254803F0B9FC8E
:1021900002220621224803F0E9FE4FF400611E48A6
:1021A00005F02FF906211E4803F0AFFB1B4A06215C
:1021B0001B4805F0D5FC68B90621194803F095FBCA
:1021C0000021154805F01DF9FFF762FD00201049B8
:1021D00008706EE720220621114803F02CFC06212E
:1021E0000F4803F082FB00210B4805F00AF90A486A
:1021F00005F054F90949084805F0D7FC28B9FFF75C
:1022000047FD00200249087053E700BF51E7000076
:102210001E0000200600002000540040A08601009F
:102220000060024000BFFEE710B54FF4807008F078
:102230001BFA18B14FF4807008F00EFA4FF400301A
:1022400004F0C2F810BD10B509F01EFC10BD00BFAF
:10225000FEE710B503F03EF810BD00002DE9FF4782
:102260000FF2E80ADAE900C8DAE9029ACDE900C813
:10227000CDE9029ADFF8E4C0DCF800C0CCF38107B6
:1022800027B1012F09D0022F43D10DE0DFF8D0C0D4
:10229000DFF8D080C8F800C042E0DFF8CCC0DFF83B
:1022A000C480C8F800C03BE0DFF8B0C0ACF1040C5B
:1022B000DCF800C00CF03F01DFF8A0C0ACF1040C6A
:1022C000DCF800C0CCF38812DFF890C0ACF1040C4D
:1022D000DCF800C0CCF3014C0CF1010C4FEA4C04CB
:1022E000DFF878C0ACF1040CDCF800C00CF480031B
:1022F000B3F5800F01D11C4800E01948B0FBF1FC98
:102300000CFB02FCBCFBF4FCDFF85880C8F800C0F2
:1023100006E0DFF84CC0DFF84C80C8F800C000BF12
:1023200000BFDFF838C0DCF800C0CCF303151DF89F
:102330000560DFF830C0DCF800C02CFA06FCDFF8DE
:102340002480C8F800C0BDE8FF870000000000003E
:1023500000000000010203040607080908380240D3
:102360000024F400D801002040787D011CB55A48B3
:10237000006840F47000584908605848006840F010
:1023800001005649086000BF5448006800F0020090
:102390000028F9D051480830006800F00C000828E7
:1023A0006ED100BF0020019002E00198401C019016
:1023B00001985028F9D349480830006800900098E7
:1023C00020F0F0000090009840F080000090434919
:1023D0000831009808600020019002E00198401C3C
:1023E000019001985028F9D33C48083000680090CB
:1023F000009820F0F0000090009840F090000090CD
:1024000036490831009808600020019002E00198E8
:10241000401C019001985028F9D3304808300068DA
:102420000090009820F0F0000090009840F0A0008C
:1024300000902A490831009808600020019002E0CD
:102440000198401C019001985028F9D32348083086
:1024500000680090009820F0F0000090009840F094
:10246000B00000901D4908310098086000200190DC
:1024700002E00198401C019001985028F9D300BF58
:10248000C82000F0CBFD15480830006820F003009C
:1024900012490831086011480068114908400F4985
:1024A00008600846006820F48020086000200B497E
:1024B0000831086000BF0948083000680020002883
:1024C000F9D108480549091D0860002003490C316D
:1024D00008600BF023FB1CBD88ED00E000380240D3
:1024E000FFFFF6FE1030002470B51F491F480BF0A7
:1024F000ABFE002837D01D480BF0D6FD02211C484A
:1025000003F0F3F902211A4803F038FDC0F5007416
:10251000ACB1B4F5007F12D82546B5F5007F01D3E4
:1025200040F2FF154FF400711248FEF74FFF2A46A4
:1025300011491048FEF731FF0120104908704FF48F
:1025400000710D48FEF742FF20220221084803F0E7
:1025500072FA4FF400720221054803F007FD0221D0
:10256000034803F0D2F970BD0403040000100140D9
:1025700000640240D40600205402002076010020AE
:1025800010B5164916480BF05FFE30B314480BF037
:102590008BFD0521134803F0A8F90521114803F02C
:1025A000EDFCC0F5807444B121460F4805F060FD94
:1025B0000E490C8001200E4908702022052109488F
:1025C00003F039FA4FF480720521064803F0CEFC7F
:1025D0000521044803F099F900BF10BD040304006D
:1025E00000440040006002405404002078010020B4
:1025F0007701002010B50E490E480BF025FEA8B15A
:102600000C480BF051FD01210B4803F06EF920221C
:102610000121094803F00FFA4FF4807201210648A6
:1026200003F0A4FC0121044803F06FF910BD000081
:1026300004030400004800400060024000BFFEE7C1
:102640000FB4084B10B504A902AA039800F044F98E
:10265000044602A9002000F0EFFC204610BC5DF803
:1026600014FB0000393001087CB5044600201D46EB
:10267000164600290BD0491ECDE90041044B6A469D
:102680002946304600F028F9009A002111707CBDDF
:102690000730010810B5002804DB0A07130E054AAD
:1026A000135406E00A07140E034A00F00F031B1F21
:1026B000D45410BD00E400E018ED00E0BFF34F8FEC
:1026C0000648006800F4E06005490843001D03491E
:1026D0000860BFF34F8F00BF00BFFDE70CED00E0C7
:1026E0000000FA0510B52DED028BB1EEC08A18EE90
:1026F000100A20F00040C0F1FF40C00F0AD010EED9
:10270000100A20F00040C0F1FF40C00F04BF0120BC
:1027100000F01AF8B0EE480ABDEC028B10BD10B5FF
:10272000012004F0C1FE10BD704702E008C8121F6E
:1027300008C1002AFAD170477047002001E001C1AA
:10274000121F002AFBD17047014908607047000042
:10275000200200202DE9FF5F82B00021DDE9043076
:10276000020DDDF840B0034318D044F61050A2F239
:10277000FF3242431514119801281FD0A5EB0B001E
:10278000401C5FEA000A4FF000064E4FDFF8389118
:10279000B046504615D5CAF1000413E01198012443
:1027A0004AA3012801D16FEA0B010298119AC0E9EE
:1027B0000031C0E9024206B0BDE8F09FCBF1000055
:1027C000DFE704460021404A491842EB0450CDE9B6
:1027D000001012E0E00707D032463B46404649462B
:1027E000FEF725FF8046894632463B46104619468D
:1027F000FEF71DFF06460F466410002CEAD1DDE906
:102800000401DDE90023BAF1000F06DAFEF70FFF3D
:1028100042464B46FEF70BFF05E0FEF77AFF4246C5
:102820004B46FEF776FF04460E460022284BFEF785
:10283000F7FF03D84FF0FF30014607E00022254B99
:1028400020463146FEF74CFEFEF7D2FF102409E089
:10285000002C0ADB0A220023FEF711FE039B303214
:102860001A55641E50EA0102F2D1641C039AC4F1A5
:1028700011031444119A012A03D0012208430DD1F7
:102880000AE0084304D000204FF0110B119072E7CA
:10289000A3EB0B056D1E0DE05B4504DD4FF0000260
:1028A00005F1010504E003DA4FF00002A5F101058E
:1028B000002AECD002981199C0E90231C0E9004524
:1028C00079E70000000014400000F03F30000000F5
:1028D0000000F0430000E03F2DE9FF4F95B09B461C
:1028E0008946064600250FE2252877D10024274691
:1028F000F84A0121059400E0044316F8013F203B0B
:1029000001FA03F01042F7D130782A2811D06FF085
:102910002F033078A0F13002092A16D8059A44F026
:10292000020402EB820203EB42021044761C059083
:10293000EFE759F8042B0592002A03DA504244F4D9
:102940000054059044F00204761C30782E2816D1ED
:1029500016F8010F44F004042A280DD06FF02F025E
:102960003078A0F13003092B09D807EB870302EB7D
:102970004303C718761CF3E759F8047B761C3078BC
:102980006C280FD006DC4C2817D068280DD06A2898
:1029900014D104E0742810D07A280FD10DE044F44B
:1029A00000140AE044F4801401E044F44014727806
:1029B000824202D104F58014761C761C3078662899
:1029C0000BD013DC582877D009DC002875D04528B7
:1029D000F6D04628F4D047281AD19DE118E06328A4
:1029E00035D0642879D0652812D195E1702873D04C
:1029F00008DC6728F1D069286FD06E280DD06F28C9
:102A000006D1B5E073282CD0752875D0782874D0FD
:102A10005A46179990476D1C75E1C4F3025002287D
:102A200009D003280DD0D9F8001004280DD00D606E
:102A300009F1040967E1D9F80010EA17C1E9005269
:102A4000F6E7D9F800100D80F2E70D70F0E719F8FD
:102A5000041B8DF8001000208DF80100EA460120CB
:102A600003E059F804AB4FF0FF3061074FF000016D
:102A700002D40DE008F101018846B9420FDA804521
:102A8000F8DB1AF808100029F4D108E008F1010178
:102A900088468142FADB1AF808100029F6D1059819
:102AA0005B46A0EB080721463846179A00F094FAD7
:102AB000284400EB080507E04DE029E10DE01AF895
:102AC000010B5A4617999047B8F10108F7D25B46B7
:102AD00021463846179A13E142E00A220092C4F3D5
:102AE00002524FF0000A022A08D059F804CB032AF8
:102AF0004FEAEC710AD00DE029E02AE009F1070164
:102B000021F00702F2E802C1914609E00FFA8CFCBD
:102B10004FEAEC71042A03D14FFA8CFC4FEAEC71B6
:102B2000002907DA0A460021DCF1000C61EB020102
:102B30002D2202E0220504D52B228DF8042001224B
:102B400003E0E20701D02022F7E7904659E00A218E
:102B500002E010220DE010214FF0000A00910BE07E
:102B600010224FF0000A44F004040827009203E00A
:102B700008224FF0000A0092C4F30252022A05D044
:102B800059F804CB0021032A08D009E009F1070114
:102B900021F00702F2E802C1914605E01FFA8CFC21
:102BA000042A01D10CF0FF0C4FF00008220728D5B1
:102BB000702806D0009B83F0100353EA0A0305D067
:102BC0000EE040228DF80420012208E05CEA0102B8
:102BD00006D030228DF804208DF8050002229046A0
:102BE000009B83F0080353EA0A030AD15CEA01025E
:102BF00001D1620705D530228DF804204FF001087D
:102C00007F1E582804D034A003900EA802900DE037
:102C100036A0F9E753466046009AFEF730FC84463A
:102C20000398825C0298401E029002705CEA0100E8
:102C3000F0D1029806A9081A00F1200A600702D50F
:102C400024F4803400E00127574502DDA7EB0A0099
:102C500000E0002000EB0A01009005984144401A72
:102C60000590E00306D45B462146179A059800F0CC
:102C7000B3F90544002706E001A85A46C05D17993C
:102C800090476D1C7F1C4745F6DBE0030CD55B4687
:102C90002146179A059800F09FF9054404E030207A
:102CA0005A46179990476D1C0099481E00900029BC
:102CB000F5DC08E0029802995A460078491C029116
:102CC000179990476D1CBAF10001AAF1010AF1DCD5
:102CD00065E10000092801003031323334353637E0
:102CE0003839616263646566000000003031323358
:102CF00034353637383941424344454600000000F8
:102D000000F058F90544761C307800287FF4ECADCB
:102D100019B02846BDE8F08F620700D4062709F1F4
:102D2000070222F0070CFCE80223E14603F000480A
:102D30005FEA080C02D00FF2702C0DE05FEA045C31
:102D400002D50FF2682C07E05FEAC47C02D00FF2D4
:102D5000602C01E0AFF2700C4FF0FF3823F000431D
:102D6000CDF850C065280CD006DC452809D046288F
:102D70001DD047283DD13DE0662818D067287ED178
:102D800038E00021112F01DB112000E0781CCDE993
:102D9000000106A90EA8FFF7DDFCDDE90F010E9A80
:102DA00003910021009207F1010A04914DE04FF0D8
:102DB00000400097CDE9011006A90EA8FFF7CAFC54
:102DC000DDE90F0203920E9B11990022DDF80CA0A1
:102DD0000093049211B9791C00EB010AB7EB0A00C9
:102DE00004D4C0F1FF3007F1010A0490AAEB0700F8
:102DF000019044E0012F00DA01270021112F01DDAD
:102E0000112000E03846CDE9000106A90EA8FFF721
:102E1000A1FCDDE90F010E9A0391002104910092BB
:102E2000BA4621070CD40399514500DA8A46BAF113
:102E3000010F05DD009AAAF10101515C302908D08B
:102E4000B84202DA10F1040F06DA0121CDE90110CF
:102E500015E0AAF10101E9E7002805DC0499014425
:102E60000491AAEB000102E0411C514500DD8A46B5
:102E70000499401A401C01904FF000400290200736
:102E800004D40198504501DBCDF8048000208DF872
:102E90004F0002980DF14F07B0F1004F25D02B20C5
:102EA0000E9002984FF0020800280CDA404202907F
:102EB0002D200E9007E00A210298FEF7CAFA303161
:102EC000029007F8011DB8F10001A8F10108F2DC39
:102ED00002980028EFD1791E0E980870307800F023
:102EE000200040F0450007F8020D12A8C01B00F1B9
:102EF00007081498007800B1012000EB0A0101983E
:102F000001EBE07105984144401A401E0590E00332
:102F100006D45B462146179A059800F05DF80544F3
:102F20001498007818B15A46179990476D1CE00321
:102F300024D55B462146179A059800F04DF80544C4
:102F40001CE00498002807DBDDE90301884203DD6B
:102F50000098405C179901E0179930205A46904735
:102F6000049805F10105401C04900198401E019051
:102F700004D12E205A46179990476D1CBAF10001D2
:102F8000AAF1010ADDDC05E017F8010B5A46179992
:102F900090476D1CB8F10001A8F10108F4DC5B4614
:102FA0002146179A0598ABE62D0000002B00000083
:102FB000200000002DE9F041044600251E4617467A
:102FC000880404D405E039462020B0476D1C641EF7
:102FD000F9D52846BDE8F0812DE9F04104460025E9
:102FE0001E469046C80301D5302700E020278804FC
:102FF00004D505E041463846B0476D1C641EF9D53E
:103000002846BDE8F0814A68002A06D00A68531CA9
:103010000B6010704868401E4860704708B500217A
:10302000009102E00099491C009100EB8001009A98
:10303000B2EB410FF6D308BD0A68531C0B60107049
:103040007047816841F00801816000BF816801F02C
:1030500008010029FAD1816841F00401816000BFB4
:10306000816801F004010029FAD1704730B50129C7
:1030700002D0022920D10FE06AB1102A0BD8C36A0E
:1030800023F47003C362C36A541E4FF4700505EA4B
:1030900004542343C36210E06AB1042A0BD8836B43
:1030A00023F440138363836B541E4FF4401505EAE9
:1030B00004542343836300E000BF00BF30BD000021
:1030C0000649096821F4E021054AC2F804131146B3
:1030D000D1F804130143C2F80413704704230140DC
:1030E0000020014021B1826842F40062826003E066
:1030F000826822F4006282607047816821F00101D9
:1031000081607047816821F48071816070478168B7
:1031100041F4807181607047816841F40071816081
:103120007047816801F0010119B9816841F001011E
:1031300081607047012902D0022912D108E083681A
:1031400023F040538360836843EA0273836009E09D
:10315000836823F440138360836843EA02538360E7
:1031600000E000BF00BF7047012902D0022910D142
:1031700007E0836823F07063836083681343836090
:1031800008E0836823F470238360836813438360BB
:1031900000E000BF00BF704702688A4302607047CA
:1031A0000246002013680B4003B101207047000065
:1031B00000EE100AB8EE400A9FED041AC0EE010AB4
:1031C0009FED030A20EE800A7047000000F07F4563
:1031D00033335340F0B51D4606290CDA436B01EB3F
:1031E00081071F26BE40B34301EB810602FA06F6B3
:1031F0003343436322E00C290EDA036B8E1F06EB88
:1032000086071F26BE40B3438E1F06EB860602FAD2
:1032100006F63343036311E010290FDAC36AA1F104
:103220000C0606EB86071F26BE40B343A1F10C0631
:1032300006EB860602FA06F63343C3620A2A0CDA64
:10324000046902EB42070726BE40B44302EB420684
:1032500005FA06F63443046111E0122A0FDCC46853
:10326000A2F10A0606EB46070726BE40B443A2F1C8
:103270000A0606EB460605FA06F63443C460F0BDBE
:103280000146C86C80B27047012902D002290AD1D8
:1032900004E0826842F08042826005E0826842F485
:1032A0008002826000E000BF00BF7047AAB101F455
:1032B00080731BB1436843F48073436001F48063FF
:1032C0001BB1436843F48063436001F00203CBB158
:1032D000836843F00203836014E001F480731BB140
:1032E000436823F48073436001F480631BB1436837
:1032F00023F48063436001F002031BB1836823F071
:1033000002038360704700000649096821F01F012D
:10331000054AC2F804131146D1F804130143C2F858
:1033200004137047042301400020014010B509F048
:10333000F7FF024800880249088010BD08000020FD
:103340000C000020014601EB41004FF4805202EBDB
:10335000C00070471CB50548054900231A46CDE951
:1033600000100721034802F03DFE1CBD41940108F6
:10337000CD9401086400002070B504460D48008813
:10338000AA2806D34FF4805009F0F6FA0020094924
:10339000088008480088FFF7D5FF0546182229460F
:1033A000204609F01BFA03480088401C01490880A8
:1033B00070BD0000B80100202DE9F04104460D4623
:1033C000207803F058FF0646607803F054FF074664
:1033D000FF2E01D0FF2F03D14FF0FF30BDE8F08169
:1033E00047EA061028700020F8E7014601F00F00B8
:1033F0000A0902EB820200EB4200C0B270470000F3
:1034000070B505F021F80446002512E005F0CFF86C
:1034100005F0C0F818B105F00FF805F059F803F001
:103420003BFE064A1060516005F000F8204605F0AA
:10343000B9F8281E05F10405E8D070BD1802002077
:1034400070B50446002007E051F8205052F8206083
:10345000354044F82050401C5D1E012606EB5515F2
:103460008542F1D870BD30B501F01F05012404FA82
:1034700005F33AB14C0950F824401C434D0940F87B
:10348000254006E04C0950F824409C434D0940F883
:10349000254030BD2DE9F04105460E461446601E1C
:1034A000012101EB5010820031462846FDF7A0FFB4
:1034B00007463846BDE8F0810246480952F82030F8
:1034C00001F01F0023FA00F000F00100704770B512
:1034D00002460B46002400211BE052F82100B8B13F
:1034E00052F821004FF0553505EA5005401B00F019
:1034F00033354FF0333606EA9006A81900EB101565
:1035000005F00F3000EB004505EB05252D0E2C4492
:10351000491C581E012505EB50108842DDD8204675
:1035200070BD70B50446002007E051F8205052F8F5
:103530002060354344F82050401C5D1E012606EBF8
:1035400055158542F1D870BD30B501460B460022B5
:103550002024002002E01D5C2A44401CA042FAD333
:10356000104630BD10B540F6024006F025FE41F28F
:10357000091006F021FE4FF44030FFF7A1FD0223B1
:1035800000220321174803F02EFE0020FFF7BCFEA7
:10359000002202211448FFF789FE00224FF48071B7
:1035A0001148FFF783FE00210F48FFF79BFD012222
:1035B00011460D48FFF75AFD01230B2200210A484E
:1035C000FFF708FE002201210748FFF7B3FD064878
:1035D000FFF7A7FD012001F073FE0348FFF731FD5F
:1035E00010BD0000000802400021014010B502217A
:1035F0000A48FFF7D1FD01210848FFF745FE00BF4B
:1036000002210648FFF7CCFD0128F9D10221034829
:10361000FFF7C2FD0148FFF733FE10BD0021014056
:1036200000B589B040F6024006F0C6FD41F2081030
:1036300006F0C2FD40F6164006F0BEFD4FF44030E5
:10364000FFF73EFD0523002203213C4803F0CBFD9C
:1036500004213B4802F09CF93A4800900120019077
:1036600039480290002003904FF40060049000203D
:10367000069002200790000408906A460421304812
:1036800002F05CFB002204212D4802F04EF90421D7
:103690002B4802F06DF90421294802F036F9002088
:1036A000FFF732FE0122022126484C38FFF7FEFDCB
:1036B0000122110223484C38FFF7F8FD0021214870
:1036C0004C38FFF70FFD022201211E484C38FFF74E
:1036D000CDFC01230A2200211A484C38FFF77AFD5D
:1036E00001230C22194617484C38FFF773FD0022BE
:1036F000012114484C38FFF737FD00220121114801
:103700004C38FFF717FD0F484C38FFF705FD0D4803
:103710004C38FFF7FCFC0B484C38FFF702FD01204A
:1037200001F0CEFD07484C38FFF78BFC012105481E
:103730004C38FFF7A9FD09B000BD000000080240A9
:10374000006402404C2001400800002010B540F603
:10375000014006F031FD40F6044006F02DFD4FF427
:10376000406006F029FD4AF6802301220021084826
:1037700003F039FD01231A460021064803F033FD0A
:1037800001231A460021044803F02DFD10BD00005E
:1037900000100240000402400000024010B54FF447
:1037A000406006F009FD41F21D0006F005FD41F202
:1037B000040006F001FD1023002203210D4803F050
:1037C00012FD0D4801F0F4FC002211460A4801F0F8
:1037D0002AFD0021084801F019FD00221146064883
:1037E00001F035FD0021044801F003FD0AF0C2F9A3
:1037F00010BD0000000002400074004010B5FEF74C
:10380000B5FDFEF72BFD0AF08DF90AF09FFB00F0E5
:10381000D1F9FFF79BFF00F0DBFC00F0FBFB00F0B1
:103820009FFA00F021FAFEF7DDFAFFF7F9FEFFF745
:10383000B5FFFFF797FE00F04BF800F095F807F0A2
:1038400099FE10BD10B541F21C0006F0B5FC72B631
:1038500000F078FC00F0ECF900F09EFB00F088FB33
:103860001748FFF74AFC1648FFF74CFC042115489F
:1038700002F03BF80021144801F0AEFC13480AF0B6
:103880005FFA00F0C5F800F033FD002004F0A2FE5E
:10389000012004F09FFEFFF7B3FD4FF0E020006928
:1038A00020F002004FF0E021086162B600224FF4E0
:1038B0004021012004F0A6FEFFF7A0FF10BD00008C
:1038C00000200140006402400074004000100040ED
:1038D00000B587B040F6014006F06EFC41F20E00E4
:1038E00006F06AFC40F6154006F066FC4FF46042B4
:1038F00005211B4803F000FC4FF460430022022125
:10390000174803F070FC4FF4604302220021144872
:1039100003F090FC4FF4805300220121104803F083
:1039200062FC4FF48053022200210D4803F082FC18
:10393000002001904FF4827000900020029003203C
:1039400005904FF400700390102006900020049022
:103950006946044809F070F908F0D2FF07B000BDCD
:10396000000402400038004000B587B04FF44060CA
:1039700006F022FC40F6044006F01EFC41F20C105A
:1039800006F01AFC40F6164006F016FCE02205216F
:103990001C4803F0B1FBE02300220221194803F088
:1039A00022FCE02302220021164803F043FC4FF4DE
:1039B000807300220121144803F015FC4FF480733A
:1039C00002220021104803F035FC4FF480710E48AC
:1039D00003F0C3FB002001904FF4827000900020A0
:1039E00002900120059040020390102006900020D4
:1039F00004906946054809F01FF9FEF795F807B0ED
:103A000000BD0000000002400010024000300140F4
:103A100010B54FF4406006F0CFFB40F6014006F0D1
:103A2000CBFB40F6024006F0C7FB40F6034006F031
:103A3000C3FB40F6044006F0BFFB00BF00BF4FF4DD
:103A400080705749086000BF00BF00BF00BF400042
:103A5000086000BF00BF00BF00BF4000086000BF9B
:103A600000BF00BF00BF4000086000BF00BF00BF34
:103A700000BF4000086000BF00BF00BF00BF4000A3
:103A8000086000BF00BF4AF680230022032145489A
:103A900003F0A9FB012300220321434803F0A3FB09
:103AA0004FF4C06300220321404803F09CFB0C2329
:103AB000002203213D4803F096FB0223002201214E
:103AC0003A4803F090FB022300221146374803F0E6
:103AD000B1FB00BF02203549886200BF4FF440634C
:103AE00000220321304803F07EFB4FF44073002294
:103AF00003212D4803F077FB4FF46043002203219C
:103B0000294803F070FB4FF480530022012126481E
:103B100003F069FB4FF4805300221146224803F062
:103B200089FB4FF48050204918310860E0230022BF
:103B300003211E4803F057FB4FF48073002201213C
:103B4000184803F050FB4FF48073002211461548CB
:103B500003F070FB4FF48070124988610523002246
:103B60000321134803F03FFB1023002203210F48D9
:103B700003F039FB4FF4F853002203210C4803F003
:103B800032FB0423002203210548283803F02BFBD5
:103B900001231A460021054803F025FB10BD000053
:103BA000280C0240001002400004024000000240C5
:103BB0000008024010B540F6034006F0FDFA4FF44D
:103BC0007C5301221146194803F00DFB4FF47C533E
:103BD00002220021154803F02DFB00BF00BF4FF467
:103BE000807012492831086000BF00BF00BF00BFCD
:103BF0004000086000BF00BF00BF00BF4000086079
:103C000000BF00BF00BF00BF4000086000BF00BF92
:103C100000BF00BF4000086000BF00BF00BF00BF82
:103C20004000086000BF00BF10BD0000000C024053
:103C300010B5FEF7CBF80021084803F0E2FB06219F
:103C4000074801F052FE054803F0D6FB4FF44073DD
:103C500000220321034803F0C6FA10BD00540040BF
:103C6000006002400004024000B589B040F6014007
:103C700006F0A2FA41F2150006F09EFA40F6154051
:103C800006F09AFA4FF400720421304803F034FA37
:103C90004FF4807204212D4803F02EFA4FF4007384
:103CA00001220221294803F09EFA4FF400730222F8
:103CB0000121264803F0BEFA4FF48073012202214D
:103CC000224803F090FA4FF48073022201211F482A
:103CD00003F0B0FA00221E491E4803F0EFFA7223E7
:103CE000002211461B4803F0C6FB1A4803F091FB63
:103CF0004FF48061174803F0D9FA0621164801F005
:103D000047FE684602F0C6F840200690134802902D
:103D1000002003900490022007900E48103000907D
:103D2000012001904FF4403008906A4606210A486D
:103D300002F004F80621084801F00AFE01220621DB
:103D4000054801F0F2FD09B000BD0000000402408A
:103D5000801A060000540040006002400600002067
:103D600000B589B040F6154006F026FA052148480E
:103D700001F00EFE002006904648029000200390BD
:103D80004FF480700790444800900120019000207B
:103D900004904FF4403008906A4605213C4801F0F9
:103DA000CDFF05213A4801F0D3FD04220521384812
:103DB00001F0BBFD0521364801F0A7FD4FF440603E
:103DC00006F0FAF941F2110006F0F6F90422072193
:103DD000324803F091F908220721304803F08CF9AA
:103DE0000423012202212D4803F0FDF904230222BD
:103DF00000212A4803F01EFA082301220221274845
:103E000003F0F1F9082302220021244803F012FAFA
:103E10002148001F0AF052F94FF496411E48001F36
:103E20000AF0CEF804211C48001F0AF02AFA0821E3
:103E30001948001F0AF02DFA40211748001F0AF008
:103E4000B0F91548001F0AF0B6F90022012126201A
:103E500003F070FD4FF441710F48001F0AF0E7F9BD
:103E60004FF4406006F0A8F90223012211460B48E6
:103E700003F0B9F902231A460021084803F0DAF9E1
:103E800000BF02200549886200BF09B000BD0000E4
:103E9000006002405404002004440040000002403E
:103EA00010B5002441F21C0006F086F904F088FBEE
:103EB00000F010F805480068C0F3012004490860CC
:103EC00000F026F805F0F6FF204610BD70380240DD
:103ED0001800002010B54FF4E05006F0ADF84FF494
:103EE000E05006F0BBF84FF4807006F09BF9FF201D
:103EF000054908607F200549086041F60F4006F03B
:103F00005BF906F087FC10BD1400002010000020B3
:103F10002DE9F04100272324592550261048006838
:103F20001049088110480068488125200870062043
:103F3000C870042048703020887000200861C86074
:103F4000084604714571867106F098FB08B97F1E1A
:103F500003E043F2F020054908603846BDE8F081EF
:103F600010000020540600201400002050280040BB
:103F700010B5312003F0C8FC08F04CFB08F0C8FA7B
:103F800008F034F908F03CFB0321024801F0ADFCD5
:103F900010BD00000064024010B54FF48051174876
:103FA00003F0DBF84FF48071154803F0D6F80121D7
:103FB000144808F0CEFB0021124808F0CAFB01218A
:103FC000114808F0C6FB00210F4808F0C2FB03218E
:103FD0000E4801F08AFC04210C4801F086FC002107
:103FE0000B4801F082FC0521094801F07EFC0548E0
:103FF00008F0AAFB044808F0A7FB10BD000402402B
:1040000000100240003800400030014000600240D3
:104010000064024000B589B040F6154006F0CCF8C7
:104020000121404801F0B4FC002006903E48029077
:10403000002003904FF4807007903C4800900120CE
:104040000190002004904FF4403008906A4601210E
:10405000344801F073FE0121324801F079FC04225A
:104060000121304801F061FC01212E4801F04DFC96
:1040700040F6014006F0A0F841F2120006F09CF86C
:104080004FF4806207212A4803F036F84FF40062AB
:104090000721274803F030F84FF480630122022102
:1040A000234803F0A0F84FF4806302220021204847
:1040B00003F0C0F84FF40063012202211C4803F012
:1040C00092F84FF4006302220021194803F0B2F87D
:1040D0001648001F09F0F2FF4FF4E1311348001FAA
:1040E00009F06EFF04211148001F0AF0CAF80821E8
:1040F0000E48001F0AF0CDF840210C48001F0AF0BE
:1041000050F80A48001F0AF056F800220321272021
:1041100003F010FC4FF441710448001F0AF087F8C7
:1041200009B000BD00600240540500200448004072
:104130000004024010B500F04BF8FFF76BFFFFF7EB
:104140000FFE10BD10B54FF441711C480AF062F823
:10415000252003F0D9FB002118480AF022F802219B
:10416000174801F0C2FB15480AF016F84FF44171E8
:1041700014480AF04FF8262003F0C6FB002111482E
:104180000AF00FF80521104801F0AFFB0D480AF0C6
:1041900003F84FF441710D480AF03CF8272003F072
:1041A000B3FB0021094809F0FCFF0121064801F09A
:1041B0009CFB064809F0F0FF10BD00000010014014
:1041C000006402400044004000600240004800409B
:1041D00000B589B040F6164005F0EEFF02214048D8
:1041E00001F0D6FB002006903E480290002003908C
:1041F0004FF4007007903C4800900120019000208F
:1042000004904FF4403008906A460221344801F08F
:1042100095FD0221324801F09BFB04220221304827
:1042200001F083FB02212E4801F06FFB4FF4406048
:1042300005F0C2FF41F2041005F0BEFF4FF400721A
:1042400007212A4802F058FF4FF4806207212748CF
:1042500002F052FF4FF4007301220221234802F0C2
:10426000C2FF4FF4007302220021204802F0E2FF57
:104270004FF48063012202211C4802F0B4FF4FF486
:10428000806302220021194802F0D4FF1648001F63
:1042900009F014FF4FF4E1311348001F09F090FEBC
:1042A00004211148001F09F0ECFF08210E48001FEF
:1042B00009F0EFFF40210C48001F09F072FF0A4887
:1042C000001F09F078FF00221146252003F032FB81
:1042D0004FF441710448001F09F0A9FF09B000BD67
:1042E000006402405402002004100140000002401B
:1042F00010B54FF4406005F05FFF41F20E1005F07D
:104300005BFF01231A4600210A4802F06CFF0021DE
:10431000084609F025FB02220021012001F0F6FFEA
:10432000012002F051F800220121062003F002FBD7
:1043300010BD00000000024010B502F07DFE0446F2
:1043400001F07EFE10BD0000054A02EB101212784B
:104350000A7000F00F02024B9A5C4A70704700002E
:10436000B8F301082DE9F0412DED028B96B004A8B9
:1043700006F072FE04461D2C7ED156A15C4803F067
:104380008FFA9DF84800082823D2DFE800F00409DE
:104390000E222213181D57A1554803F081FA1DE083
:1043A0005FA1534803F07CFA18E068A1504803F07D
:1043B00077FA13E06EA14E4803F072FA0EE074A192
:1043C0004B4803F06DFA09E07CA1494803F068FA14
:1043D00004E084A1464803F063FA00BF00BF0C98D4
:1043E000401C85024FF4007606F0E2FD00EE100A54
:1043F000F8EE400A9FED811A80EE810ADFED7F0A18
:1044000080EE201A11EE107A3846FDF70FF841ECD5
:10441000180B06F0CDFD80468DED008B424678A14D
:10442000334803F03DFA32467EA1314803F038FAB2
:104430002A4683A12E4803F033FA9DF8102087A165
:104440002B4803F02DFABDF812208AA1284803F06A
:1044500027FA0598000E8DF808000598000C8DF8D5
:1044600009000598000A8DF80A000598C0B28DF879
:104470000B009DF8180000E021E08DF80C000020F2
:104480008DF80D0002AA82A1194803F009FA9DF8DF
:10449000190000F00F039DF81900020981A11448CA
:1044A00003F0FEF9079A86A1114803F0F9F99DF887
:1044B0002400421C8AA10E4803F0F2F904E02246CF
:1044C0008CA10B4803F0ECF916B0BDEC028BBDE8F3
:1044D000F08100000D0A2A2A2A20534420436172E9
:1044E0006420496E666F202A2A2A0D0A0000000007
:1044F000001001404361726420547970653A205382
:1045000074616E646172642043617061636974797F
:1045100020534420436172642056312E310D0A002D
:104520004361726420547970653A205374616E64FB
:10453000617264204361706163697479205344201F
:10454000436172642056322E300D0A00436172645A
:1045500020547970653A204869676820436170612A
:104560006369747920534420436172640D0A00002A
:104570004361726420547970653A204D756C74699A
:104580006D6564696120436172640D0A000000007A
:104590004361726420547970653A204869676820E5
:1045A0004361706163697479204D756C74696D65E0
:1045B00064696120436172640D0A000043617264A2
:1045C00020547970653A20486967682053706565A2
:1045D00064204D756C74696D656469612043617216
:1045E000640D0A004361726420547970653A205565
:1045F0006E6B6E6F776E0D0A000000000000804445
:104600000D0A2323204465766963652073697A6502
:104610002069732025644B422028252E32664742AC
:10462000292323000D0A232320426C6F636B207320
:10463000697A6520697320256442202323000000E5
:104640000D0A232320426C6F636B20636F756E74B9
:104650002069732025642023230000004D616E75BE
:1046600066616374757265722049443A203078251A
:10467000580D0A004F454D2F4170706C696361748D
:10468000696F6E2049443A20307825580D0A0000A1
:1046900050726F64756374204E616D653A202573A6
:1046A0000D0A000050726F6475637420526576695C
:1046B00073696F6E3A2025642E25640D0A00000090
:1046C00050726F647563742053657269616C204E1B
:1046D000756D6265723A203078253038580D0A00C1
:1046E0004353442056657273696F6E3A2025642ED9
:1046F000300D0A000D0A4661696C656420746F20F4
:10470000676574205344206361726420696E666F2C
:10471000726D6174696F6E2C206572726F722063A6
:104720006F64653A2025640D0A00000030B52DED58
:10473000028B87B00446B0EE408AF0EE608A032C0C
:1047400003D307B0BDEC028B30BDB4EEE88AF1EEC6
:1047500010FA01DD012000E000200546E5B1104817
:10476000005DC8B9182101A8FCF730FE0D48019082
:1047700009F006F802908DF80C40CDED048A8DED1D
:10478000058A01A8FEF7F8FD07480078012802D144
:1047900001A801F0A2FD00BF0148055500BFD0E708
:1047A000B5010020EEFFC0A5B401002070B504469D
:1047B0000D46607801232A4604F1300101F03FF8EC
:1047C00008B1032070BD94F82E1294F82F0241EA2C
:1047D00000204AF65521884201D00220F2E794F8E1
:1047E0006900010694F8680041EA004194F8670006
:1047F00041EA002094F86610084320F07F400E49FB
:10480000884201D10020DDE794F88500010694F884
:10481000840041EA004194F8830041EA002094F8C2
:104820008210084320F07F400349884201D10020D4
:10483000C8E70120C6E70000464154002DE9F041D9
:1048400003F018FE461C41F1000703F003FE044686
:104850000D4603F09FFE40B1311B67EB0500103998
:1048600070F1000001DBA4197D4120462946BDE816
:10487000F081024600E0521C107810B11078884296
:10488000F9D11078704700002DE9F74F88B00898EB
:10489000006801900198007830380790079809283F
:1048A0000AD8019840783A2806D10198801C0190D6
:1048B00008990198086001E000200790079818B156
:1048C0000B200BB0BDE8F08FD049079851F820407D
:1048D000099804600CB90C20F3E7207878B160786F
:1048E00000F0D5FF804608F0010040B90A9820B1D9
:1048F00008F0040008B10A20E3E70020E1E7002007
:10490000207007986070607800F053FF804608F0D0
:10491000010008B10320D4E70A9820B108F0040090
:1049200008B10A20CDE74FF0000B59462046FFF7AB
:104930003DFF054600BF012D21D14FF0000ABAF11D
:10494000000F03D0AAF1010000F0FF0A4FF4DF705E
:1049500000EB0A1104F130000F18387978B1F87AB9
:104960000106B87A41EA0041787A41EA0020397AB2
:1049700040EA010B59462046FFF718FF0546032D74
:1049800001D101209DE70DB10D209AE73B20015D8B
:1049900094F83C0041EA0020B0F5007F01D00D20E2
:1049A0008FE74620015D94F8470041EA0029B9F1FC
:1049B000000F0ED194F85700010694F8560041EA12
:1049C000004194F8550041EA002094F8541040EA60
:1049D0000109C4F81C904020065DE670012E03D04A
:1049E000022E01D00D206CE709FB06F93D20005D89
:1049F0000646A07016B1701E304008B10D2060E769
:104A00004120015D94F8420041EA00202081207A93
:104A100000F00F0008B10D2053E74320015D94F82A
:104A2000440041EA00200690069870B994F85300BB
:104A3000010694F8520041EA004194F8510041EA1D
:104A4000002094F85010084306903E20015D94F831
:104A50003F0041EA00200290029808B90D2030E79B
:104A600002984844218900EB11100590DDE9050109
:104A7000814201D20D2024E7DDE90510401AA1781A
:104A8000B0FBF1F00490049808B90D2019E7012556
:104A900040F6F6710498884200D302254FF6F6716D
:104AA0000498884200D303250498801CA0610598CF
:104AB0005844A062029858442062032D16D12089E0
:104AC00008B10D20FDE694F85F00010694F85E0041
:104AD00041EA004194F85D0041EA002094F85C103E
:104AE00008436062A0698000039014E0208908B93F
:104AF0000D20E6E6206A48446062022D02D1A069DA
:104B0000400007E0207E00F00100A16901EB4101B7
:104B100000EB51000390E169039800F2FF10B1EB44
:104B2000502F01D20D20CCE64FF0FF302061002045
:104B3000E060032D5CD1607194F8601094F861001E
:104B400041EA0020584460616078012304F130019B
:104B5000626900F074FEE8BB94F82E1294F82F02FC
:104B600041EA00204AF65521884241D13320005DB8
:104B700001063220005D41EA00413120005D41EA3A
:104B8000002094F8301008432149884230D194F82D
:104B90001702010694F8160241EA004194F8150242
:104BA00041EA002094F8141208431A4988421FD1A0
:104BB00094F81F02010694F81E0241EA004194F89D
:104BC0001D0241EA002094F81C120843E06094F8AA
:104BD0001B0200E00CE0010694F81A0241EA0041D1
:104BE00094F8190241EA002094F818120843206151
:104BF000257009480088401C80B207490880E08081
:104C00000020E062207100BF5BE600005C00002035
:104C10005252614172724161600000200246891E59
:104C20009069801E884201D8002070479378906A6E
:104C300001FB0300F9E7000070B51D25084C00E0FA
:104C4000641E802007F014FD08B9002CF8D114B9B7
:104C50001325284670BD034807F004FD2846F9E7F0
:104C6000A0860100FF07C0002DE9F04705460C466D
:104C7000207820F04000401E00EB800101EBC006D0
:104C800000274FF0010800BF1A48C05D205C194999
:104C9000C95D2144497840EA0129B8F1000F10D0DC
:104CA000484601F0EFFE8046FF2E07D23146761CC3
:104CB00035F8110001F0E6FE404508D00020BDE8BF
:104CC000F0874FF6FF70814501D00020F7E7781C90
:104CD00007460D28D8D3207800F0400038B1B8F14D
:104CE000000F04D035F8160008B10020E7E70120D6
:104CF000E5E7000064ED01080146012904D002291E
:104D000005D0032909D105E04FF47A70704740F6C9
:104D1000B830FBE741F28830F8E70020F6E7000002
:104D20002DE9F0470746884691469A461C4805F00B
:104D300061FC1B49887908F075FC044618494879DC
:104D400008F070FC05461649087908F06BFC064629
:104D50003C443C20B4FBF0F005443C20B4FBF0F1B3
:104D600000FB1144B5FBF0F006443C20B5FBF0F12C
:104D700000FB11551820B6FBF0F100FB1166E0B204
:104D800008F056FC8AF80000E8B208F051FC89F8F7
:104D90000000F0B208F04CFC88F80000BDE8F08795
:104DA000540600203EB504466B4601AA02A92046DF
:104DB000FFF7B6FF012005F0BFFB4FF00040174999
:104DC000086000204860012008729DF808004872C1
:104DD0009DF8040088729DF80000C8720020C86029
:104DE000012005F077FB4FF4807005F035FC4FF49F
:104DF000805005F0F1FC012005F0DEFB0022114699
:104E00004FF4003001F082FA4FF4003001F0DCFA88
:104E100000220121292002F08DFD3EBD6806002000
:104E200070B504460D462A4621464FF0FF3000F08B
:104E300007F8064600F001F870BD0146C843704708
:104E400030B50B46002110E05D5C6840002409E0AD
:104E500000F001051DB1064D85EA500500E045084A
:104E60002846641C082CF3D3491C9142ECD330BD76
:104E70002083B8ED2DE9F04704468946B9F1000FCB
:104E800006D1E76817B1A069B84211D801270FE031
:104E90004946204602F05CF80646022E02D2012066
:104EA000BDE8F087A069B04201D93046F8E74F4627
:104EB0003D4600BF6D1CA069A84204D80225BD4232
:104EC00001D90020ECE72946204602F041F80646C9
:104ED00006B909E0701C08B1012E01D13046DFE7A8
:104EE000BD42E7D10020DBE700BF6FF070422946EA
:104EF000204604F0E8FD8046B8F1000F08D1B9F172
:104F0000000F05D02A464946204604F0DCFD8046C5
:104F1000B8F1000F09D1E5602069401C68B1206933
:104F2000401E20610120607107E0B8F1010F02D13D
:104F30004FF0FF3000E0012005462846B0E70000B2
:104F40002DE9F34F83B082460498D0F800B001E019
:104F50000BF1010B9BF800002F28F9D09BF8000003
:104F60005C28F5D0DAF81C9000252E4600BF3046AC
:104F7000761C1BF80040202C03DB2F2C01D05C2C6E
:104F800000D11CE0FF2D03D3062005B0BDE8F08F53
:104F9000E4B20121204601F04FFD04460CB9062081
:104FA000F3E7802C06DA21466BA0FFF762FC08B11C
:104FB0000620EAE728466D1C29F81040D7E700BF15
:104FC0000BEB060104980160202C01DA042000E0BC
:104FD0000020074608E0681E39F81040202C02D057
:104FE0002E2C00D002E06D1E002DF4D100BF0DB9B3
:104FF0000620CAE7002029F815000B222021DAF844
:10500000180002F0F7FB002600E0761C39F81600C5
:105010002028FAD039F816002E28F6D00EB147F025
:10502000030700E06D1E25B1681E39F810002E2818
:10503000F8D14FF00008CDF808800820019000BF9B
:105040003046761C39F8104004B955E0202C03D0C6
:105050002E2C04D1AE4202D047F00307F0E7DDE981
:105060000110884201D2AE4216D101980B2802D11C
:1050700047F0030740E0AE4201D047F00307AE42DD
:1050800000D939E02E46082002900B2001904FEA0B
:1050900088604FEA1068D3E7802C0BDB00212046A4
:1050A00001F0CAFC04461CB1A4F180002D490C5C3F
:1050B00047F0020700BF24B121462BA0FFF7D9FB20
:1050C00018B15F2447F003070FE0412C04DB5A2C92
:1050D00002DC48F0020808E0612C06DB7A2C04DCD4
:1050E00048F00108A4F1200084B2DAF818300298E0
:1050F000411C02911C54A3E700BFDAF818000078A5
:10510000E52803D10520DAF818100870019808285E
:1051100003D14FEA88604FEA106808F00C000C28B1
:1051200003D008F00300032801D147F0020707F07D
:10513000020058B908F00300012801D147F0100718
:1051400008F00C00042801D147F00807DAF818002D
:10515000C772002019E70000222A3A3C3E3F7C7FBC
:105160000000000071ED01082B2C3B3D5B5D000051
:1051700069B922B1012A04D0022A06D103E0836072
:1051800004E0C36002E0036100E000BF0FE001291A
:105190000DD122B1012A04D0022A06D103E04361D5
:1051A00004E0836102E0C36100E000BF00BF70471C
:1051B00010B504460748204440B940F61D0005F0EC
:1051C0001FF840F61D0005F009F800E000BF00BF21
:1051D00010BD0000008CFFBF21B9026822F001025F
:1051E000026005E0012903D1026822F480320260E6
:1051F000704721B9026842F00102026005E001290E
:1052000003D1026842F480320260704721B902681B
:1052100042F00402026005E0012903D1026842F471
:1052200080220260704739B9036823F038030360B5
:1052300003681343036009E0012907D1036823F4DD
:1052400060130360036843EA02430360704739B99F
:10525000036823F0C003036003681343036009E09D
:10526000012907D1036823F440030360036843EA7C
:10527000024303607047000070B504460D460CB150
:105280000C2C01D9002070BD022C05D1284602F05B
:105290003FF908B11D20F6E7601E0149085CF2E7FE
:1052A00054F3010801460A20B1FBF0F200FB121092
:1052B0000A22B1FBF2F240EA0210C0B270470000CD
:1052C0000349086000BF024909680029FBD1704703
:1052D000000000200448006820B103480068401E18
:1052E0000149086070470000000000202DE9F041EE
:1052F000074611480068A7FB005006460F480068A3
:105300005A2802DD0D48006800E05A200446E017E4
:10531000611BB04101DBBDE8F0812D1B66EBE4763B
:1053200001F0BAFE45194E4100BF01F0B5FE401B29
:10533000B141FADB00BFEEE7F8010020F0010020E8
:105340002DE9F041074611480068A7FB00500646CA
:105350000F4800685A2802DD0D48006800E05A2016
:105360000446E017611BB04101DBBDE8F0812D1B55
:1053700066EBE47601F090FE45194E4100BF01F066
:105380008BFE401BB141FADB00BFEEE7F4010020C9
:10539000F00100202DE9F04704460021204600F0EE
:1053A000BAF9074617B13846BDE8F0874FF0FF0954
:1053B000CA4600BF2169206802F038FA074607B1E3
:1053C00054E065692E780EB904274FE0E87A00F0C2
:1053D0003F08E52E05D008F0080028B1B8F10F0FFE
:1053E00002D04FF0FF093AE0B8F10F0F1CD1E0698D
:1053F000A0B306F0400030B195F80DA026F04006AD
:10540000B146E08820844E450AD1687B504507D1DB
:105410002946E069FFF728FC10B1A9F1010000E07E
:10542000FF2000F0FF091AE0B9F1000F05D128466E
:1054300007F01BFC504500D118E04FF0FF094FF674
:10544000FF702084A069C07A00F0010030B90B22FF
:105450002846A16902F0AEF900B907E0FFE7002194
:10546000204600F006F80746002FA3D000BF3846BC
:105470009AE72DE9F0410446884600BFE088401CC9
:1054800086B20EB1206910B90420BDE8F08106F0A3
:105490000F0000286FD12069401C2061E06828B906
:1054A00020680089B04266DC0420EEE7206880783E
:1054B000401E00EA161000285DD1E168206801F066
:1054C00047FD0546012D01D80220DEE7681C08B91A
:1054D0000120DAE720688069A84246D8B8F1000FB9
:1054E00001D10420D1E7E1682068FFF7C3FC05463D
:1054F0000DB90720C9E7012D01D10220C5E7681CBD
:1055000008B90120C1E70021206802F08FF908B135
:105510000120BAE7216801F130004FF40072002148
:1055200002F068F929462068FFF778FB2168C86215
:10553000002710E00120216808710021206802F096
:1055400075F908B10120A0E72068C06A401C2168F5
:10555000C862781CC7B220688078B842EADC20684C
:10556000C06AC01B2168C86200BFE5602946206888
:10557000FFF754FB2061E6802068303006F00F0111
:1055800000EB4110606100207FE72DE9F04F85B00E
:105590000446D4F81880D4F81CB00C22414601A867
:1055A00002F01BF900BF9DF80F0000F0010030B3BE
:1055B000002088F80B00E06101270DE03B465A46C9
:1055C00001A9404601F070FC2046FFF7E3FE0546C6
:1055D00005B103E0781C87B2642FEFDB00BF642FB6
:1055E00003D1072005B0BDE8F08F042D01D0284677
:1055F000F8E79DF80F0088F80B00C4F81CB09DF880
:105600000F0000F0020070B1002601E0701C86B2AD
:105610003BF816000028F9D106F119000D2190FB86
:10562000F1F086B200E001260021204600F073F878
:1056300005460DB12846D5E700200746049000BF77
:105640002169206802F0F2F8054605B119E06069A9
:1056500090F80090B9F1E50F02D0B9F1000F08D130
:105660000FB9E0880490781C80B20746B04201D19F
:1056700007E0002701212046FFF7FBFE0546002D2D
:10568000DED000BF4DBB012E27DD2046049900F07F
:1056900042F805460DBBA06907F0E7FA0090701EBE
:1056A00086B200BF2169206802F0C0F8054605B146
:1056B00012E0F2B26169E069009B01F0FFF901209C
:1056C0002168087100212046FFF7D3FE05461DB969
:1056D000701E80B2061EE5D100BFD5B921692068D1
:1056E00002F0A4F80546A5B9D4F814A020220021A0
:1056F000504602F07FF80B225046A16902F06DF887
:10570000A069C07A00F018008AF80C000120216816
:105710000871284666E72DE9F04104460E46E6800A
:10572000A568012D03D020688069A84202D8022014
:10573000BDE8F0812DB920680078032801D12068E8
:10574000456A65B9E56020680089B04201DC022045
:10575000EEE72068406A00EB1610206120E0206828
:105760008078070112E02946206801F0F1FB054628
:10577000681C08B90120DBE7022D03D3206880698B
:10578000A84201D80220D3E7F01B86B2BE42EADA73
:10579000E56029462068FFF741FA00EB161020610A
:1057A0002068303006F00F0100EB411060610020EE
:1057B000BEE730B593B0054600200090002D39D1EA
:1057C00006F03EF904461D2C04D101A805F044FC66
:1057D000044602E0012013B030BD1D2C05D1BDF8F8
:1057E000480005F027FE044601E00120F3E7684683
:1057F00005F090FE0446009800F0007008B100BF6C
:10580000FEE71D2C05D14FF4006005F009FB0446AE
:1058100001E00120DFE71D2C04D1002006F032FE5C
:10582000044601E00120D6E71D2C01D10020D2E77B
:105830000120D0E70120CEE70346002070472DE984
:10584000F04107460C4615461E464FF01C0814B999
:105850000420BDE8F0810EB90420FAE787B9012ED3
:1058600006D169027202204605F03EF8804607E044
:10587000690233464FF40072204606F09DF98046D7
:10588000B8F11D0F01D10020E3E70120E1E7014657
:1058900009B9002070470120FCE72DE9F0410746D7
:1058A0000C4615461E464FF01C0814B90420BDE8EE
:1058B000F0810EB90420FAE787B9012E06D16902FA
:1058C0007202204605F01CF9804607E06902334663
:1058D0004FF40072204606F0BDFA8046B8F11D0F65
:1058E00001D10020E3E70120E1E710B501EB41021F
:1058F000D30000F11002D25822F0010301EB410263
:10590000D40000F11002135110BD10B501EB41029B
:10591000D30000F11002D25842F0010301EB410222
:10592000D40000F11002135110BD30B5134601EB45
:105930004104E50000F11004625922F0606242EA7D
:10594000436201EB4104E50000F11004625130BDF7
:1059500010B501EB4102D30000F11002D25822F43D
:10596000807301EB4102D40000F11002135110BD0D
:1059700010B501EB4102D30000F11002D25842F4FD
:10598000807301EB4102D40000F11002135110BDED
:1059900010B501EB4102D30000F11002D25822F001
:1059A000010301EB4102D40000F110021351002366
:1059B00001EB4102D40000F11002135101EB41024E
:1059C000D40000F11402135101EB4102D40000F1A4
:1059D0001802135101EB4102D40000F11C021351D3
:1059E00001EB4102D40000F120021351212301EB0D
:1059F0004102D40000F12402135104290CDA01EB16
:105A000041025300C1F3400203EB82033D229A405E
:105A100083681A4382600DE00A1FD1B201EB410294
:105A20005300C1F3400203EB82033D229A40C36856
:105A30001A43C26010BD10B504290CDA01EB410312
:105A40005C00C1F3400304EB830302FA03F38468B0
:105A5000234383600DE00B1FD9B201EB41035C00CF
:105A6000C1F3400304EB830302FA03F3C468234346
:105A7000C36010BD30B50346002004290FDA01EBE6
:105A800041046500C1F3400405EB840402FA04F408
:105A90001D682C400CB1012012E0002010E00C1F0A
:105AA000E1B201EB41046500C1F3400405EB84045D
:105AB00002FA04F45D682C400CB1012000E00020E3
:105AC00030BD30B572B901EB4103DC0000F11003C9
:105AD0001B5923F0200401EB4103DD0000F110030A
:105AE0005C510DE001EB4103DC0000F110031B5998
:105AF00043F0200401EB4103DD0000F110035C5191
:105B000030BD30B532B101EB4104E50000F12004B5
:105B1000635105E001EB4104E50000F11C04635111
:105B200030BD000070B501EB4104E50000F1240434
:105B30006459156A45F004052C4301EB4105EE005C
:105B400000F12405AC5101EB4104E60000F118041A
:105B50001568A55101EB4104E60000F11C04D5686D
:105B6000A55101EB4104E60000F11404D56AA551EA
:105B700001EB4104E50000F110046359414C23405E
:105B8000156954682C43156B2C43956A2C43956911
:105B90002C43D5692C43234301EB4104E50000F17C
:105BA00010046351946874B901EB4104E50000F1FD
:105BB0001004645944F4007501EB4104E60000F15F
:105BC0001004A5511FE09468012C0ED101EB410493
:105BD000E50000F11004645924F4007501EB410460
:105BE000E60000F11004A5510DE001EB4104E500D1
:105BF00000F11004645944F4004501EB4104E6004F
:105C000000F11004A551546974B901EB4104E50099
:105C100000F11004645944F4806501EB4104E6008E
:105C200000F11004A5510DE001EB4104E50000F185
:105C30001004645924F4806501EB4104E60000F18E
:105C40001004A551546A74B901EB4104E50000F158
:105C50001004645944F4807501EB4104E60000F13E
:105C60001004A5510DE001EB4104E50000F1100422
:105C7000645924F4807501EB4104E60000F110043E
:105C8000A55170BD3F871CFE30B58DB004460D4652
:105C9000012203212748FFF7CEFE042203212548D5
:105CA000FFF7C9FE082203212248FFF7C4FE102295
:105CB00003212048FFF7BFFE202203211D48FFF7E4
:105CC000BAFE03211B48FFF710FE03211948FFF716
:105CD0005FFE19480090039400200A900B90012069
:105CE0000290002005904FF48050019080000490B5
:105CF0004FF440300C904FF4001007908000069055
:105D000003200890012009906A4603210948FFF703
:105D100009FF012203210748FFF7D3FE04220321D4
:105D20000448FFF702FE03210248FFF7EEFD0DB025
:105D300030BD000000640240802C014070B501EBD2
:105D40004104E50000F12404645924F0040501EB4A
:105D50004104E60000F12404A55101EB4104E600F2
:105D600000F118041568A55101EB4104E60000F1AB
:105D70001C049568A55101EB4104E60000F11404F0
:105D8000D569A55101EB4104E50000F11004635908
:105D90003F4C2340146944EA8404156A2C439569F6
:105DA0002C43234301EB4104E50000F1100463514F
:105DB000546874B901EB4104E50000F11004645922
:105DC00044F4007501EB4104E60000F11004A55114
:105DD0001FE05468012C0ED101EB4104E50000F1F5
:105DE0001004645924F4007501EB4104E60000F14D
:105DF0001004A5510DE001EB4104E50000F1100491
:105E0000645944F4004501EB4104E60000F110043C
:105E1000A551D46874B901EB4104E50000F1100408
:105E2000645944F4806501EB4104E60000F110047C
:105E3000A5510DE001EB4104E50000F110046459A7
:105E400024F4806501EB4104E60000F11004A55143
:105E5000546974B901EB4104E50000F11004645980
:105E600044F4807501EB4104E60000F11004A551F3
:105E70000DE001EB4104E50000F11004645924F445
:105E8000807501EB4104E60000F11004A55170BDDE
:105E90003F87FCFF002101600121416000218160FA
:105EA0000121C16000210161012141610021816165
:105EB000C16101627047000030B58DB004460D46E7
:105EC000012203212748FFF7B6FD042203212548BC
:105ED000FFF7B1FD082203212248FFF7ACFD102295
:105EE00003212048FFF7A7FD202203211D48FFF7CB
:105EF000A2FD03211B48FFF7F8FC03211948FFF717
:105F000047FD19480090039440200A9000200B9010
:105F100001200290002005904FF4805001908000F5
:105F200004904FF440300C904FF400100790800024
:105F3000069001200990032008906A460321094831
:105F4000FFF7F0FD012203210648FFF7BAFD042206
:105F500003210448FFF7E9FC03210248FFF7D5FCC1
:105F60000DB030BD00640240802C014010B501EB43
:105F70004103DC0000F114031A5110BD024601EB8D
:105F80004100C30002F11400C05870472DE9F041F0
:105F90000746134C00250DE0C5EBC503226802EB54
:105FA0008300E16988478046424629463846FDF726
:105FB0005AFA6D1CA088A842EEDC2669A5880AE082
:105FC000301DE16988478046424629463846FDF73C
:105FD0004AFA36686D1C002EF2D1BDE8F08100004F
:105FE000780600202DE9F04782460D4616461F46EA
:105FF000DDE90889114CB9F1000F02D0B8F1000FAA
:1060000002D10020BDE8F0873C212046FBF7DEF9F5
:10601000C4F800A0A580A660A781C4F81890C4F8B1
:106020001C80002084F830004FF6FF70608600204E
:1060300060634FF4FA70A0630120E3E77806002064
:106040001CB504460020009001906846FFF79EFFB3
:106050002146684600F05EF81CBD2DE9FC47074666
:106060000D4616461C46DDF8288021463046FDF7D1
:1060700023FA00F0FF0921462846FDF71DFA00F03B
:10608000FF0A002043464A465146CDE900403846C3
:1060900003F098FABDE8FC872DE9FF4706460F4656
:1060A00015461C46DDF83080002002900390402108
:1060B0002046FDF70CFA08B9BDE8FF8740232246C9
:1060C000294602A8FDF7BCF94022214602A8FDF7A7
:1060D000E1F908B9012000E0002081464023224672
:1060E000394602A8FDF7ACF94022214602A8FDF787
:1060F000D1F908B9012000E0002082460120811E6C
:1061000043464A46CDE900105146304603F05AFA5C
:1061100000BFD1E72DE9FE4F074688466C4C94F846
:10612000300000F0010ABAF1000F0ED004F1280B84
:10613000402002900298401E012202EB5010810084
:106140005846FBF743F900BF00BFBAF1000F49D032
:10615000002521E000200190029005EBC501A06818
:1061600000EB810B40235A46394601A8FDF768F938
:106170004022594601A8FDF78DF908B9012000E039
:1061800000200090009830B140235A4604F12801C5
:106190000846FDF7C6F96D1CA089A842DADC6669DD
:1061A0001EE000200190029006F1040B40235A46A5
:1061B000394601A8FDF744F94022594601A8FDF7E8
:1061C00069F908B9012000E000200090009830B182
:1061D00040235A4604F128010846FDF7A2F9366823
:1061E000002EDED1002518E0BAF1000F06D02946B6
:1061F00004F12800FDF760F900B10DE0CDF8008052
:10620000C5EBC502216801EB82002B463A4604F13A
:106210002001FFF722FF00BF6D1CA088A842E3DC2D
:10622000D4F81090A58817E0BAF1000F06D02946DF
:1062300004F12800FDF740F900B10AE02B463A4688
:1062400004F1200109F10400CDF80080FFF705FFFB
:1062500000BFD9F800906D1CB9F1000FE4D1002502
:1062600012E0CDF8008005EBC502A16801EB8203C6
:1062700005EBC50201EB820101F108003A4604F189
:106280002001FFF709FF6D1CA089A842E9DC6669BF
:106290000AE0331D3A4604F1200106F10C00CDF866
:1062A0000080FFF7F9FE3668002EF2D104F12000DD
:1062B0004FF0400B0290ABF10100012101EB5010B7
:1062C000820039460298FBF768F800BFBDE8FE8FF0
:1062D000780600200246501A704730B599B004463F
:1062E00060681590207A8DF85800E0681790206952
:1062F0001890502201A915A806F03EFD05461DB1D3
:10630000294601A804F0B6F819B030BD10B52D4BE0
:106310001B6883432B4C2360231D1B688343241D70
:106320002360231D1B688343241D2360231D1B68DA
:106330008343241D236011B101290ED105E0214BB7
:106340001B6803431F4C236008E01E4B1B1D1B688A
:1063500003431C4C241D236000E000BF00BF32B18A
:10636000012A11D0022A1CD0032A27D127E0154B7D
:1063700008331B680343134C08342360231D1B6838
:106380008343241D23601BE00E4B08331B688343AB
:106390000C4C08342360231D1B680343241D236019
:1063A0000EE0084B08331B680343064C0834236097
:1063B000231D1B680343241D236001E000BF00BFB1
:1063C00000BF10BD003C014001490860704700005B
:1063D000143C01400146044A12680A400AB10120F7
:1063E00000E0002070470000143C014070B50446F6
:1063F000204600F0BEF905460DB900202060284671
:1064000070BD00000246012A01DB0B2070470748DF
:1064100050F822300BB10020187009B1002008702C
:10642000024840F822100020F0E700005C00002045
:106430002DE9F743ADF50C7D054616460020286092
:1064400006F01F0626F0010283A98DA8FEF71CFAAC
:10645000074680A88990CDF828D227B983A88D99BE
:1064600000F0D0FC0746889C0FB904B9062706F057
:106470001C00002858D04FB1042F03D183A8FFF788
:1064800084F8074646F00806889C09E0E07A00F0A8
:10649000110008B1072703E006F0040000B1082747
:1064A000002F40D106F0080000283CD000F0C2FDCB
:1064B000804684F80E804FEA1821E1734FEA1841B4
:1064C00021744FEA186161740020E0722077002186
:1064D0006177A177E177A17EE07E41EA0021227D0C
:1064E000607D42EA002041EA00490020A0760021B8
:1064F000E17620756175012083990871B9F1000F6B
:1065000011D08398D0F82C804946839803F096FEEA
:10651000074647B9A9F101008399C86041468398AD
:1065200001F084F907460EE06FB9E07A00F0100040
:1065300008B1042707E006F0020020B1E07A00F07D
:10654000010000B1072747B906F0080008B146F07E
:1065500020068398C06AE8612C62F7B9AE71A17E0B
:10656000E07E41EA0021227D607D42EA002041EA8E
:1065700000402861E07F0106A07F41EA0041607F82
:1065800041EA0020217F0843E8600020A860A8615C
:10659000839828608398C088A88038460DF50F7DC1
:1065A000BDE8F0832DE9FF4F83B0044615469A46B7
:1065B000DDF810B00020CAF80000A188206807F0BC
:1065C00070FE0290029818B1029807B0BDE8F08FF3
:1065D000A07900F0800008B10220F6E7A07900F071
:1065E000010008B90720F0E7D4E90210401A009032
:1065F0000098854200D9009DB6E02089C0F30800CC
:1066000000287DD120688078401EA16800EA5120D2
:1066100000F0FF09B9F1000F1DD1A06810B9206981
:10662000019004E06169206800F092FC01900198FB
:10663000022805D2A07940F08000A0710220C4E7B2
:106640000198401C28B9A07940F08000A071012079
:10665000BBE70198606161692068FEF7DFFA0646D2
:106660002EB9A07940F08000A0710220ADE74E4421
:106670004FEA5528B8F1000F2DD009EB080021682A
:106680008978884203D920688078A0EB090808F04F
:10669000FF032168487832465946FFF7D0F828B101
:1066A000A07940F08000A07101208EE7A07900F071
:1066B000400068B1A069801B404509D2A169891BCF
:1066C0000BEB41204FF4007204F1240101F085F836
:1066D0004FEA48273EE0A069B04227D0A07900F0F9
:1066E0004000A0B121684878012304F12401A26987
:1066F000FFF7D3F838B1A07940F08000A07100E036
:1067000015E0012061E7A07920F04000A071216828
:1067100048780123324604F12401FFF790F828B1AC
:10672000A07940F08000A07101204EE7A661208989
:10673000C0F30800C0F50077AF4200D92F4620898A
:10674000C0F3080204F1240011183A46584601F03B
:1067500044F800BFBB44A0683844A060DAF80000E9
:106760003844CAF80000ED1B002D7FF446AF00202E
:106770002BE72DE9F0410446A188206807F091FD40
:106780000746002F4FD1A07900F0200000284AD002
:10679000A07900F0400078B121684878012304F125
:1067A0002401A269FFF779F810B10120BDE8F0815A
:1067B000A07920F04000A071E169206801F036F86E
:1067C0000746002F2FD1256AE87A40F02000E872B2
:1067D000207B2877A089010A6977E068010CA977F6
:1067E000E068010EE977207CA876208A010AE97624
:1067F0002069000C28752069010E697500F01AFCEB
:106800000646AE75310AE975310C2976310E697686
:10681000A07920F02000A071012021680871206873
:1068200006F033FA07463846C0E72DE9FF4F83B03C
:10683000044615469B46049801900020CBF80000C2
:10684000A188206807F02DFD0290029818B10298E7
:1068500007B0BDE8F08FA07900F0800008B10220F9
:10686000F6E7A07900F0020008B90720F0E7E06839
:106870002844E168884200D20025CDE02089C0F399
:106880000800002877D120688078401EA16800EABF
:10689000512000F0FF0ABAF1000F2AD1A06858B9C0
:1068A000D4F81080B8F1000F0BD100212068FEF75A
:1068B000E1FA8046206104E061692068FEF7DAFAB7
:1068C0008046B8F1000F00D1A9E0B8F1010F05D161
:1068D000A07940F08000A0710220B9E708F1010022
:1068E00028B9A07940F08000A0710120B0E7C4F879
:1068F0001480A07900F0400090B12168487801230D
:1069000004F12401A269FEF7C8FF28B1A07940F084
:106910008000A07101209BE7A07920F04000A071C9
:1069200061692068FEF77AF906462EB9A07940F031
:106930008000A07102208BE756444FEA5529B9F137
:10694000000F2FD00AEB090021688978884203D90B
:1069500020688078A0EB0A0909F0FF0321684878D5
:1069600032460199FEF799FF30B1A07940F08000DE
:10697000A07101206CE72CE0A069801B48450ED275
:10698000A069801B019A02EB40214FF4007204F1D0
:10699000240000F022FFA07920F04000A0714FEA0F
:1069A00049272DE0A069B04212D0D4E90201884203
:1069B0000ED2216848780123324604F12401FEF703
:1069C0003EFF28B1A07940F08000A07101203FE790
:1069D000A6612089C0F30800C0F50077AF4200D956
:1069E0002F462189C1F3080204F1240150183A46C8
:1069F000019900F0F2FEA07940F04000A07100BFC4
:106A0000019838440190A0683844A060DBF8000089
:106A10003844CBF80000ED1B002D7FF42FAF00BFF2
:106A2000D4E90201884201D9A068E060A07940F071
:106A30002000A07100200BE710B50246802A01DA81
:106A400010461BE051B1FF2A01DD002304E0A2F152
:106A500080030B4C34F8133018460FE0002007E099
:106A6000074B33F81030934200D103E0431C98B237
:106A70008028F5DB00BF00F18003D8B210BD000014
:106A8000F2ED01080246002100E0491C094830F8F7
:106A9000110020B1074830F811009042F5D10548A7
:106AA00030F8110018B1044830F811007047104652
:106AB000FCE70000F2EE0108D2F00108F0B5044650
:106AC0001D464D730F27CF7200270F738F76BC467C
:106AD00081F81BC0571E07EB870C0CEBC70600277D
