:020000040800F2
:1000000008060020C50100081502000811020008BA
:10001000130200080D0200082D0400080000000073
:100020000000000000000000000000005B0200086B
:100030000F0200080000000037020008FD0200085F
:10004000DF010008DF010008DF010008DF01000810
:10005000DF010008DF010008DF010008DF01000800
:10006000DF010008DF010008DF010008DF010008F0
:10007000DF010008DF010008DF010008DF010008E0
:10008000DF010008DF010008DF010008DF010008D0
:10009000DF010008DF010008DF010008DF010008C0
:1000A000DF010008DF010008DF010008DF010008B0
:1000B000DF010008DF010008DF010008DF010008A0
:1000C000DF010008DF010008DF010008DF01000890
:1000D000DF010008DF010008F9030008DF01000864
:1000E000DF01000839020008DF010008DF01000815
:1000F000DF010008DF010008DF010008DF01000860
:10010000DF010008DF010008DF010008DF0100084F
:10011000DF010008DF010008DF010008D10300084B
:10012000DF010008DF010008DF010008DF0100082F
:10013000DF010008DF010008DF010008DF0100081F
:10014000DF010008DF010008DF010008DF0100080F
:10015000DF010008DF010008DF010008DF010008FF
:10016000DF010008DF010008DF010008DF010008EF
:10017000DF010008DF010008DF01000800000000C7
:10018000DF010008DF010008DF010008DF010008CF
:10019000DF010008DF010008DF01000800000000A7
:1001A000DF010008DF010008DF010008DFF810D0E0
:1001B00000F01AF800480047B7080008AFF30080C5
:1001C000080600200648804706480047FEE7FEE78D
:1001D000FEE7FEE7FEE7FEE7FEE7FEE7FEE7FEE7F7
:1001E00001030008AD010008064C074D06E0E06879
:1001F00040F0010394E8070098471034AC42F6D36E
:10020000FFF7D8FF94170008B4170008FEE77047FF
:10021000FEE7FEE770470907090E002806DA00F03E
:100220000F0000F1E02080F8141D704700F1E0207D
:1002300080F800147047704710B54FF48074204662
:1002400000F004FD002807D0204600F0F7FC600213
:10025000BDE8104000F0ACBA10BD704770B5002A80
:100260001AD0CC1850B1012817D0022825D0032865
:1002700012D10A2C10D800201E4C37E0062C0BD8C7
:1002800000201D4C06E00E1832F8105024F81650CD
:10029000401C80B29842F6D370BD102CFCD80020D0
:1002A000154C0C3406E00E1832F8105024F8165095
:1002B000401C80B29842F6D370BD0A2CFCD80020B6
:1002C0000D4C2C3407E012F810500E1805F0010503
:1002D000A555401C80B29842F5D370BD12F810505D
:1002E0000E1805F00105A555401C80B29842F5D3C3
:1002F00070BD0000C0000020CC01002000F0ACB8B0
:1003000018B42048016841F4700101601E4801687A
:1003100041F00101016001688907FCD51A4A0832E1
:10032000116841F0800111600023009302E0009900
:10033000491C009100995029F9D3116841F09001AE
:100340001160009302E00099491C00910099502926
:10035000F9D3116821F00301116001680B4C2140B1
:100360000160016821F48021016013601068064972
:100370000748091D086004480C30036018BC00F0F1
:10038000C7BC000088ED00E000380240FFFFF6FE29
:100390001030002408B54FF4407000F073FB00F0FB
:1003A000B9FC00210623094A0846FFF757FF002041
:1003B0004FF4E13302460121009000F099F808B9AA
:1003C00000F054F8002800D0FEE708BD241500080E
:1003D00010B5084C0121204600F0E7FD012807D1A7
:1003E0000121204600F0DEFDBDE8104000F062BBB8
:1003F00010BD00000014004010B50A4C084920460A
:1004000000F0EEFE08B100F05BFB0749204600F06B
:10041000E7FE002803D0BDE8104000F057BB10BD38
:10042000050305000044004007030700FEE700F055
:10043000A1F8FCE772B6FEE702E008C8121F08C187
:10044000002AFAD170477047002001E001C1121F55
:10045000002AFBD17047000003480168002902D040
:100460000168491E016070470000002070B500243B
:10047000054D2878012802D00624204670BD286941
:10048000804700202870F8E70800002070B50C466F
:1004900000262188052902D00326304670BD417808
:1004A0000A0281781143491C89B2C2781202057987
:1004B00015436A1E7C2A19D200222280042202706F
:1004C0002288521C22806A004270801C2288521CA2
:1004D00022802A4600F050F918B100F0DDFA0646F5
:1004E000DBE7208800EB45002080D6E70326D4E731
:1004F00070B514461A46049B0646002901D0F72918
:1005000001D9022421E0134D0846297116B10224B5
:10051000ACB11AE010492961104969611049E960DC
:100520001049A9610021E9610F4929620F496962F7
:100530000F49A962214600F073F80446E8E700F08D
:10054000DBFE20B16E7101202870204670BD0324AF
:10055000FBE70000080000204907000865070008C5
:10056000F506000861060008691300088D140008EC
:100570001D140008F8B5294D2878002801D0062060
:10058000F8BD684600F0AAFE012844D19DF800009D
:10059000E8B3012802D002283DD10FE01F4AAB6921
:1005A000921D911CC81F984788BB6878297988429A
:1005B00000D060BB022000F0A7FE2CE0A868047801
:1005C000AC700126EE700021144B2C3313F831204F
:1005D00062B1A24207D103EBC1014A680F49891DEC
:1005E0009047E87002E0491C1029EFDB687870B191
:1005F000E97849B1A878EE80AA6840F080001070D0
:10060000E888431CEB801154EA88287900E002E076
:10061000D5E9021398470020F8BD0000080000202B
:1006200070B50846154600240822294600F07EFED3
:10063000012801D003240EE0B5F5964F01D92320FF
:1006400003E006496800B1FBF0F080B200F084FEE0
:10065000012800D00324204670BD0000A07F1700B1
:100660002DE9F04180460E46174600240F4DA8881C
:10067000FF280BD8A888042804D3A9880C4800F0C8
:100680009FFC40B105242046BDE8F081A32209A1CA
:100690000EA0FFF7CFFE0648007888F80000A88873
:1006A000C01E38800248401C3060ECE7B4000020D7
:1006B000CC0000202E2E5C4D6F646275735C7274EA
:1006C000755C6D627274752E630000007573526301
:1006D00076427566666572506F73203C204D425FAE
:1006E0005345525F5044555F53495A455F4D4158F9
:1006F0000000000070B5034608460025104C6678DF
:10070000012E02D00525284670BD401EA06001269E
:1007100066800370618811446180618800F050FC3C
:1007200061884A1C6280074A5054030A6088411C51
:100730006180135426700121002000F077FDE2E76C
:10074000B4000020CC00002010B5054900204870FE
:100750000021012000F06AFDBDE8104000F0A6BDB8
:10076000B400002010B50021084600F05FFDBDE890
:10077000104000F089BD000010B5491E89B28B18E9
:10078000062B01D9012010BD084B0BE033F81140B6
:10079000240A047013F811404470801C491C89B26B
:1007A000521E92B2002AF1D1002010BDCC010020CF
:1007B0000149086070470000143C01402DE9F043F6
:1007C000046A456A002301274FF00F0C07FA03F66D
:1007D000164208D09E000CFA06F824EA080401FA32
:1007E00006F848EA04045B1C9BB2082BEED30823EE
:1007F00007FA03F818EA020F0AD0A3F10806B600B8
:100800000CFA06F825EA080501FA06F949EA050591
:100810005B1C9BB2102BEBD304624562BDE8F083F6
:1008200081627047816170472DE9F0470568C668AD
:1008300000244FF001084FF0030908FA04F71F42A3
:100840000ED0670009FA07FC25EA0C0501FA07FA41
:100850004AEA050526EA0C0602FA07FC4CEA0606F7
:10086000641CA4B2102CE8D30560C660BDE8F08714
:100870002DE9F04101291AD041689943416084680B
:1008800000214FF001084FF0030C08FA01F71F4256
:1008900006D04D000CFA05F6B44302FA05F63443CF
:1008A000491C89B21029F0D38460BDE8F081416809
:1008B00019434160E3E710B5FFF76CFDFFF7B7FDA3
:1008C000002010BD7FB5044600220421372000F02F
:1008D0008BF84FF0807000F0A1F941F2050000F0B4
:1008E0006DF90B4D284600F03DFAEF20ADF8000001
:1008F0000021ADF80210ADF80410641E0294ADF8AA
:1009000006108DF80C106946284600F0F9FA7FBDF4
:100910000014004010B500220521262000F064F8E4
:1009200041F2110000F04AF94FF44064204600F013
:1009300045F9204600F042F9224C02231A460121D3
:100940002046FFF771FF02231A4600212046FFF7D9
:100950008FFF042207212046FFF730FF04230022E7
:1009600002212046FFF760FF0423022200212046D7
:10097000FFF77EFF082207212046FFF71FFF08230D
:10098000002202212046FFF74FFF08230222002108
:100990002046FFF76DFF0C4C204600F08BFB4FF418
:1009A000E131204600F022FB0821204600F037FC10
:1009B0000421204600F02DFC2046BDE8104000F048
:1009C000E9BB00000000024000440040054A012845
:1009D00003D002211046FFF723BF02211046FFF784
:1009E00021BF00000000024070B505460E460023FE
:1009F000002423480168C1F30221072932D001688D
:100A0000C1F3022106292FD00168C1F30221052973
:100A10002DD00168C1F3022104292BD00068C0F356
:100A20000220032829D04FF4A06000F02BF8022305
:100A30000224C3F104008640C4F104010F20C84021
:100A400010403043000105F1E02181F8000405F079
:100A50001F01012088406909890001F1E021C1F8E6
:100A6000000170BD0424E4E701230324E1E702232D
:100A70000224DEE703230124DBE70423D9E7000097
:100A80000CED00E00249084302490860704700008D
:100A90000000FA050CED00E0002805D0012805D083
:100AA000072805D0042070470020704702207047B7
:100AB0000620704701480068004700003000002011
:100AC0000148006800470000280000200148006835
:100AD000004700002C000020F0B588B0024600203E
:100AE0002FA104AE91E83800C96838C607912DA13E
:100AF0000AC9CDE902132BA10AC9CDE900132C4C78
:100B00002168C1F381012B4B002925D0DFF8A8C053
:100B1000012923D0022923D019462368C3F30313E4
:100B200004ADEB5C21FA03F32568C5F3822502AE20
:100B3000755D23FA05F52468C4F342341DF80440BA
:100B400023FA04F432B3012A26D0022A26D0032A3B
:100B500000D1204608B0F0BD1946DEE76146DCE76B
:100B60001349091F0D6805F03F050E68C6F3881686
:100B70000F68C7F301477F1C7F00096801F48001FB
:100B8000B1F5800F00D16346B3FBF5F17143B1FBC2
:100B9000F7F1C2E70846DDE71846DBE72846D9E764
:100BA000000000000000000001020304060708091D
:100BB000083802400024F40040787D01064901EB2A
:100BC0009011D1F8002800F01F0301209840024343
:100BD000C1F800287047000000300240064901EBD0
:100BE0009011D1F8002800F01F03012098408243A3
:100BF000C1F800287047000000300240064901EBB0
:100C00009011D1F8002800F01F0301209840024302
:100C1000C1F800287047000000300240064900F18A
:100C20008072521C03D00A6802430A6070470A6847
:100C300002400A60704700008C38024002490A688E
:100C400082430A60704700000C28004001460020E3
:100C5000024A12680A4200D0012070470C28004066
:100C600010B50020274A116841F4803111604FF619
:100C7000FF73401C116801F4003109B99842F8D1A2
:100C80001068800302D410688003FCD51D484030F2
:100C9000016841F0805101601B49086840F4404000
:100CA00008601848083003680360036843F4004391
:100CB0000360036843F4A0530360041F134B2360D5
:100CC000136843F08073136013689B01FCD50A68B6
:100CD00042F480320A604A68D203FCD50A6842F4C2
:100CE00000320A604A689203FCD5016821F00301D2
:100CF0000160016841F00201016001680907FCD54B
:100D000010BD000000380240007000401978400A11
:100D1000FFF7A6BF70B511484FF47A710068B0FBB9
:100D2000F1F1491E4FF0FF35B1F1807F01D3012170
:100D30000BE04FF0E02461610F212846FFF76BFACA
:100D40000020A06107202061002101B1FEE72846B4
:100D5000BDE870400021FFF75EBA000004000020EB
:100D60004162704710B55E4A811A131590427DD0DA
:100D70002ADC5C4A4FF40064A0EB0201904265D08B
:100D800011DCB0F1804F4FD05749401854D09842F1
:100D90006DD140F602042046FFF730FF2046BDE843
:100DA0001040FFF71BBF99425AD0A14265D0B1F560
:100DB000406F5CD140F606042046FFF71FFF204637
:100DC000BDE81040FFF70ABFB1F5923F5FD011DCDC
:100DD00099427AD0B1F5644F1CD0B1F5684F7ED1FD
:100DE00040F601142046FFF709FF2046BDE81040F9
:100DF000FFF7F4BEB1F5943F53D0B1F5963F6ED1F5
:100E000040F612142046FFF7F9FE2046BDE81040D8
:100E1000FFF7E4BE4FF410642046FFF7EFFE2046D4
:100E2000BDE81040FFF7DABE2046FFF7E7FE204698
:100E3000BDE81040FFF7D2BE40F601042046FFF7A0
:100E4000DDFE2046BDE81040FFF7C8BE40F60304B3
:100E50002046FFF7D3FE2046BDE81040FFF7BEBE98
:100E600040F604042046FFF7C9FE01E023E036E027
:100E70002046BDE81040FFF7B1BE40F6050420460D
:100E8000FFF7BCFE2046BDE81040FFF7A7BE4FF4B9
:100E900011642046FFF7B2FE2046BDE81040FFF780
:100EA0009DBE40F611142046FFF7A8FE2046BDE87F
:100EB0001040FFF793BE40F607042046FFF79EFE62
:100EC0002046BDE81040FFF789BE40F608042046E2
:100ED000FFF794FE2046BDE81040FFF77FBE10BD2F
:100EE000001C0040000C004000FCFFBF016821F026
:100EF000010101607047016841F001010160704724
:100F000030B50A8882621C4B1C4A98420DD0B0F161
:100F1000804F0AD01A4CA04207D01A4CA04204D0ED
:100F2000194CA04201D090420BD1046824F0700407
:100F3000046004684D882C43046004688D882C4349
:100F400004608C68C462114CA0420AD0104CA042CC
:100F500007D0046824F4407404600468CD882C43EE
:100F60000460984201D0904201D1097B016341693C
:100F700041F00101416130BD000001400004014029
:100F80000004004000080040000C00400010004039
:100F900000140040C2688A43C2607047C2680A43B6
:100FA000C2607047C94301617047C2680A40006966
:100FB000084202D00AB101207047002070470000AB
:100FC00070B5FF23FF22084D05F5807605E010F887
:100FD000014B54402A5D5A40335D491E89B2F6D216
:100FE00042EA032070BD00003015000870B50446C9
:100FF0000D460020294AA11A131594422DD00BDC6E
:101000002749621819D09A421BD0B2F5006F1CD044
:10101000B2F5406F28D11CE0994222D0B1F5184FAB
:1010200003D0B1F51C4F1FD103E00320FFF754FD9F
:101030001AE00320FFF750FD16E00220FFF74CFDF9
:1010400012E00220FFF748FD0EE00220FFF744FD0A
:101050000AE00220FFF740FD06E00220FFF73CFD1A
:1010600002E00220FFF738FDE1680A044FF6F07154
:101070000AD5400000EB5500B0FBF5F00140C0F38D
:1010800042021143A16070BD00EB5500B0FBF5F0CA
:10109000014000F00F021143A16070BD00780040D4
:1010A00000BCFFBF4068C0F308007047C1F30801EF
:1010B0004160704710B5354A811A131590424FD0E0
:1010C00014DC334940182DD0984235D0B0F5006F6C
:1010D0003CD0B0F5406F57D140F614042046FFF7DE
:1010E0008DFD2046BDE81040FFF778BD994241D004
:1010F000B1F5184F0CD0B1F51C4F45D140F6051491
:101100002046FFF77BFD2046BDE81040FFF766BD97
:1011100040F604142046FFF771FD2046BDE810405C
:10112000FFF75CBD40F611042046FFF767FD20463F
:10113000BDE81040FFF752BD40F612042046FFF70D
:101140005DFD2046BDE81040FFF748BD40F61304A2
:101150002046FFF753FD2046BDE81040FFF73EBD97
:1011600040F61E042046FFF749FD2046BDE810402A
:10117000FFF734BD40F61F042046FFF73FFD204631
:10118000BDE81040FFF72ABD10BD00000078004008
:1011900000BCFFBFC16841F40051C160704700EB63
:1011A0009110006801F01F0201219140084201D016
:1011B000012070470020704700EB9110026801F099
:1011C0001F03012199408A430260704700EB911090
:1011D000026801F01F03012199400A430260704731
:1011E00030B5C1F38912825801F01F04012505FAB8
:1011F00004F31A4000EB91500068C1F3044105FA72
:1012000001F31840002802D00AB1012030BD0020AF
:1012100030BDC26822F004020A43C2607047C2684F
:1012200022F008020A43C2607047000070B50C4605
:10123000144D40F20531012807D02846FFF7BCFFC6
:1012400040F20736012C04D00DE02846FFF7BEFF20
:10125000F6E70120FFF7BAFB31462846BDE87040AB
:10126000FFF7B4BF00BF06212846FFF798FF00280C
:10127000F8D00020FFF7AAFB31462846BDE87040B1
:10128000FFF79ABF0044004010B5074C01212046EB
:10129000FFF780FE01212046FFF784FE2046BDE8CF
:1012A0001040FFF723BE00000014004010B50A4CA8
:1012B0002046FFF71BFE00212046FFF751FD0121CC
:1012C0002046FFF76FFE2046FFF715FE2046BDE8DB
:1012D00010400121FFF762BE0014004002460020CA
:1012E00004494B78002B04D0087810700020487017
:1012F00001207047CA0000200249002048700120E8
:1013000070470000CA000020024901224A7008709C
:1013100001207047CA00002010B504460248FFF7BC
:10132000C1FE2070012010BD0044004010B50C46E5
:10133000FFF7F0FA21460248FFF758FE012010BDE2
:101340000044004010B501460248FFF7AFFE0120FF
:1013500010BD00000044004010B532214843FFF7A3
:10136000B1FA012010BD000038B500251C4C2078D2
:10137000002804D0ED221BA120A0FFF75BF86846EF
:10138000FFF7CAFF617839B1234801290AD0022941
:1013900015D0032921D102E0FFF788FF1DE0FFF7F8
:1013A00085FF1AE00021A1809DF80030A1884A1C29
:1013B000A280435402206070FFF778FF0DE0A188FF
:1013C000FF2906D89DF80030A1884A1CA28043540A
:1013D00001E003206070FFF769FF284638BD000078
:1013E000B40000202E2E5C4D6F646275735C7274C5
:1013F000755C6D627274752E6300000065536E64D7
:101400005374617465203D3D2053544154455F54ED
:10141000585F49444C450000CC00002070B50024C2
:10142000124D6878002811D0022814D0032816D055
:101430006878A0B16878022811D0687803280ED0A7
:101440004FF4B2720AA11048FEF7F4FF0020FFF734
:101450005BFF044603E00120FFF756FF0446FFF759
:1014600013FF01206870204670BD0000B40000200A
:101470002E2E5C4D6F646275735C7274755C6D6268
:101480007274752E630000003017000870B50025D7
:10149000164C6078012805D040F22B1214A11AA036
:1014A000FEF7C8FF207810B101281CD104E000210C
:1014B0000120FFF7BBFE16E0608850B1A0680078FD
:1014C000FFF740FFA068401CA0606088401E60805D
:1014D00009E00320FFF718FF054600210120FFF770
:1014E000A5FE00202070284670BD0000B40000203A
:1014F0002E2E5C4D6F646275735C7274755C6D62E8
:101500007274752E630000006552637653746174C3
:1015100065203D3D2053544154455F52585F494436
:101520004C4500003412785601000200030004000C
:1015300000C1814001C0804101C0804100C18140A3
:1015400001C0804100C1814000C1814001C0804193
:1015500001C0804100C1814000C1814001C0804183
:1015600000C1814001C0804101C0804100C1814073
:1015700001C0804100C1814000C1814001C0804163
:1015800000C1814001C0804101C0804100C1814053
:1015900000C1814001C0804101C0804100C1814043
:1015A00001C0804100C1814000C1814001C0804133
:1015B00001C0804100C1814000C1814001C0804123
:1015C00000C1814001C0804101C0804100C1814013
:1015D00000C1814001C0804101C0804100C1814003
:1015E00001C0804100C1814000C1814001C08041F3
:1015F00000C1814001C0804101C0804100C18140E3
:1016000001C0804100C1814000C1814001C08041D2
:1016100001C0804100C1814000C1814001C08041C2
:1016200000C1814001C0804101C0804100C18140B2
:1016300000C0C101C30302C2C60607C705C5C40472
:10164000CC0C0DCD0FCFCE0E0ACACB0BC90908C8E2
:10165000D81819D91BDBDA1A1EDEDF1FDD1D1CDCD2
:1016600014D4D515D71716D6D21213D311D1D01042
:10167000F03031F133F3F23236F6F737F53534F432
:101680003CFCFD3DFF3F3EFEFA3A3BFB39F9F838A2
:1016900028E8E929EB2B2AEAEE2E2FEF2DEDEC2C92
:1016A000E42425E527E7E62622E2E323E12120E002
:1016B000A06061A163A3A26266A6A767A56564A4F2
:1016C0006CACAD6DAF6F6EAEAA6A6BAB69A9A86862
:1016D00078B8B979BB7B7ABABE7E7FBF7DBDBC7C52
:1016E000B47475B577B7B67672B2B373B17170B0C2
:1016F00050909151935352929656579755959454B2
:101700009C5C5D9D5F9F9E5E5A9A9B5B9959589821
:10171000884849894B8B8A4A4E8E8F4F8D4D4C8C11
:101720004484854587474686824243834181804081
:101730002820655263765374617465203D3D2053C3
:10174000544154455F52585F494E49542029207CEA
:101750007C202820655263765374617465203D3D7A
:101760002053544154455F52585F5243562029201C
:101770007C7C202820655263765374617465203D1B
:101780003D2053544154455F52585F4552524F5289
:1017900020290000B417000800000020CC00000041
:1017A0003804000880180008CC0000203C05000028
:1017B0004804000800000000001C4E0E020000005B
:1017C0000000000000000000000000000000000019
:1017D0000000000000000000000000000000000009
:1017E0000000000000000000040000008D0400085C
:1017F00000000000000000000000000000000000E9
:1018000000000000000000000000000000000000D8
:1018100000000000000000000000000000000000C8
:1018200000000000000000000000000000000000B8
:1018300000000000000000000000000000000000A8
:101840000000000000000000000000000000000098
:101850000000000000000000000000000000000088
:101860000000000000000000000000000000000078
:101870000000000001010101000000000101000062
:04000005080001AD41
:00000001FF
