:020000040800F2
:1000000030300020C1010008C1080008BB0700080B
:10001000BD080008B3070008C90E00080000000072
:10002000000000000000000000000000410D00087A
:10003000B7070008000000003D0D0008450D00084E
:10004000DB010008DB010008DB010008DB01000820
:10005000DB010008DB010008DB010008DB01000810
:10006000DB010008DB010008DB010008DB01000800
:10007000DB010008DB010008DB010008DB010008F0
:10008000DB010008DB010008DB010008DB010008E0
:10009000DB010008DB010008DB010008DB010008D0
:1000A000DB010008DB010008DB010008DB010008C0
:1000B000DB010008DB010008DB010008DB010008B0
:1000C000DB010008DB010008DB010008DB010008A0
:1000D000DB010008DB010008DB010008DB01000890
:1000E000DB010008DB010008DB010008DB01000880
:1000F000DB010008DB010008DB010008DB01000870
:10010000DB010008DB010008DB010008DB0100085F
:10011000DB010008DB010008DB010008DB0100084F
:10012000DB010008DB010008DB010008DB0100083F
:10013000DB010008DB010008DB010008DB0100082F
:10014000DB010008DB010008DB010008DB0100081F
:10015000DB010008DB010008DB010008DB0100080F
:10016000DB010008DB010008DB010008DB010008FF
:10017000DB010008DB010008DB01000800000000D3
:10018000DB010008DB010008DB010008DB010008DF
:10019000DB010008DB010008DB01000800000000B3
:1001A000DB010008DB010008DB010008DFF80CD0F0
:1001B00000F03CFA0048004755300008303000207D
:1001C0000648804706480047FEE7FEE7FEE7FEE7F1
:1001D000FEE7FEE7FEE7FEE7FEE7FEE74D0D00085F
:1001E000AD01000840EA01039B0703D009E008C9FC
:1001F000121F08C0042AFAD203E011F8013B00F8EC
:10020000013B521EF9D27047D2B201E000F8012B37
:10021000491EFBD270470022F6E710B513460A4686
:1002200004461946FFF7F0FF204610BD30B50B46D7
:10023000014600202022012409E021FA02F59D4216
:1002400005D303FA02F5491B04FA02F52844151EEA
:10025000A2F10102F1DC30BD2DE9F05F054600207E
:1002600092469B4688460646814640241BE0284627
:1002700041464746224600F0FAF953465A46C01A0C
:10028000914110D311461846224600F0E1F92D1A8B
:1002900067EB01084F4622460120002100F0D8F903
:1002A00017EB00094E41201EA4F10104DFDC484693
:1002B00031462A464346BDE8F09F2DE9FE4F804671
:1002C00081EA0300C00F0C46009021F0004123F0AA
:1002D0000045B8EB0200A94105D2404621469046B0
:1002E0001C460B46024623F00040104347D0270D22
:1002F000C7F30A00C3F30A510290401A0190402844
:100300006BDAC3F3130040F4801B0098924620B1CF
:100310000023D2EB030A63EB0B0B01985946C0F1A3
:100320004002504600F094F906460D4650465946A4
:10033000019A00F0ACF910EB08006141002487EA53
:10034000115284EAE7731A4340D0009A62B3019ACB
:10035000012A4FEA075215DC001B61EB02014FF046
:10036000004202EA0752CDE90042001C41F580112B
:1003700032462B4600F0ACF903B0BDE8F08F4046A2
:100380002146F9E7001B61EB0201001C41F58013D7
:1003900000185B412018A2F5001747EB030140EA63
:1003A000D570B6196D4111E06D084FEA360645EA81
:1003B000C0754FEA0752001B61EB0201001C41F5BA
:1003C000801149084FEA30000019514132462B464E
:1003D00003B0BDE8F04F00F06CB900980122400076
:1003E0000023D0EB020263EBE073009821464FEA52
:1003F000E074B8EB000061EB0401E9E783F000432F
:100400005BE781F0004158E72DE9FE4F81EA0304E4
:1004100004F0004421F0004100944FF0000B23F061
:10042000004350EA01045ED052EA03045BD0C3F3F8
:100430000A54C1F30A552C44A4F2F3340194A0FBEE
:100440000254C1F3130141F48011C3F3130343F4C5
:10045000801301FB024400FB034E840A970A44EA1E
:10046000815447EA8357A4FB076802958D0A05FB70
:1004700007854FEA932C04FB0C542705029D4FEA95
:10048000065847EA1637B5EB08056EEB070C870EE2
:10049000920E47EA811742EA8312A7FB0201B6EBEC
:1004A0000B0164EB00042B0D43EA0C335E1844EBA4
:1004B0001C50DA465146E7FB0201C5F313044FEA2C
:1004C0000B3343EA14534FEA0432019C43EA060318
:1004D000A4F10C040294009CCDE900B400F0F8F8FB
:1004E00003B0BDE8F08F00200146F9E72DE9F04D9B
:1004F00081EA030404F0004B21F0004514464FF05C
:10050000000A23F0004150EA050220D054EA01021B
:100510001DD0C5F30A570246C5F31303C1F31300F8
:10052000C1F30A5640F4801543F48013A7EB060884
:10053000101BD64608F2FD3873EB050002D308F114
:10054000010801E092185B41B8F1000F03DA0020C6
:100550000146BDE8F08D00204FF480110646844628
:100560000EE0171B73EB050705D3121B63EB0503A6
:1005700006434CEA010C49084FEA300092185B41EF
:1005800050EA0107EDD152EA030012D082EA0400DA
:1005900083EA0501084305D0101BAB4106D20122B6
:1005A000002306E000224FF0004302E06FF001025A
:1005B00053101AEB06004CEB085110EB0A0041EB0C
:1005C0000B01BDE8F04D00F074B8C1F30A52C1F35D
:1005D000130140F2FF3341F480119A4202DA002005
:1005E0000146704740F233439A42A2F2334202DCA2
:1005F000524200F03CB800F02BB8000030B5041EA9
:1006000071F1000404DB4FF00044404264EB01014F
:10061000141E73F1000405DB1C464FF000435242E8
:1006200063EB0403994208BF904230BD064C074D6E
:1006300006E0E06840F0010394E8070098471034B2
:10064000AC42F6D3FFF7B6FD284500085845000830
:10065000202A04DB203A00FA02F100207047914082
:10066000C2F1200320FA03F3194390407047202A77
:1006700004DB203A21FA02F00021704721FA02F34C
:10068000D040C2F120029140084319467047202A09
:1006900006DBCB17203A41FA02F043EAE07306E0AA
:1006A00041FA02F3D040C2F12002914008431946BA
:1006B000704710B5141E73F1000408DA401C41F1B4
:1006C000000192185B411A4301D120F0010010BDD6
:1006D0002DE9F04D92469B4611B1B1FA81F202E04C
:1006E000B0FA80F220329046FFF7B2FF04460F4680
:1006F00040EA0A0041EA0B0153465A46084313D028
:10070000114653EA010019D0C8F140025046FFF7E4
:10071000AEFF05460E46504659464246FFF798FF43
:10072000084305D0012004E020463946BDE8F08D9D
:100730000020054346EAE0762C4337430A986305D8
:10074000E40AA0EB08000022FD0A44EA47540A30FC
:1007500002D500200146E9E7010510196941DDE9EC
:10076000084500196941BDE8F04DA2E743F2810C4C
:10077000C2F2000C604743F29D1CC2F2000C6047BD
:1007800043F2B50CC2F2000C604743F2A10CC2F276
:10079000000C604743F2C11CC2F2000C604743F2F8
:1007A000310CC2F2000C604743F28D0CC2F2000C17
:1007B000604700BFFEE700BFFEE700BFFEE70000A6
:1007C00010B54FF4407300220121394802F0E6FAD7
:1007D0004FF4407302220021354802F006FB4FF42B
:1007E0004071334802F0D8FA0A2002F0D7F800240A
:1007F00011E04FF480712E4802F0CCFA052002F08F
:10080000CDF84FF480712A4802F0C6FA052002F0B4
:10081000C5F8601CC4B2092CEBDB4FF4807124488E
:1008200002F0BAFA4FF40071214802F0B3FA052041
:1008300002F0B4F84FF400711D4802F0ADFA052043
:1008400002F0ACF84FF4007301220221184802F0C4
:10085000A5FA4FF4007302220121154802F0C5FAEF
:100860004FF4807301220221114802F097FA4FF4ED
:100870008073022201210E4802F0B7FA0D4802F0FF
:100880006BFB00220C490B4802F0F4FA72230022A1
:100890001146084802F0C6FB064802F091FB4FF4EF
:1008A0008061044802F0DDFA0A2002F077F810BDFA
:1008B0000004024000540040801A060000BFFEE71A
:1008C00000BFFEE770B5002415E004F1B001C8B226
:1008D00000F0B4F8002000F0B1F8102000F0AEF8FD
:1008E000002504E0002000F069F9681CC5B2802DE5
:1008F000F8DB601CC4B2042CE7DB70BD10B56420CB
:1009000002F04CF801200C490870002409E00B4962
:10091000085D00F093F80848007800B910BD601C2D
:10092000C4B2162CF3D3FFF7CDFF0021084600F028
:1009300007F800BFF2E700000E0000200F000020C3
:1009400070B504460D4605F1B001C8B200F076F866
:10095000102141EA141000F071F804F00F0000F0CB
:100960006DF870BD2DE9F04707460E469046994652
:1009700000250024A8F12000C5B27F2F02DD00274A
:10098000701CC6B2B9F1100F22D131463846FFF7BC
:10099000D7FF002407E004EB0511174A505C00F074
:1009A0000DF9601CC4B2082CF5DB701CC1B23846CE
:1009B000FFF7C6FF002408E004EB051108310E4ADA
:1009C000505C00F0FBF8601CC4B2082CF4DB11E0B2
:1009D00031463846FFF7B4FF002409E005EB450136
:1009E000064A02EB4101085D00F0E8F8601CC4B261
:1009F000062CF3DBBDE8F087693C0008413A0008AB
:100A00002DE9F04104460F461546984600260FE0B2
:100A1000AA5D434639462046FFF7A4FF04F10800CB
:100A2000C4B2782C02DD0024B81CC7B2701CC6B258
:100A3000A85D0028ECD1BDE8F081000070B5054646
:100A400042F210745848007800B970BD0020574930
:100A500008700846457040F20161554802F0C9FA35
:100A600008B1FFF7ADFE02E0012001F097FF40F270
:100A700001614F4802F0BDFA10B1601E041EF3D1AF
:100A800094B9FFF79DFE42F2107402E0012001F0DC
:100A900085FF40F20161464802F0ABFA10B1601EDA
:100AA000041EF3D104B9D0E7414802F0C9FA414A23
:100AB0004FF4A0613E4802F07AFB28B9FFF780FEB0
:100AC000002039490870C0E76FF0010278213848EA
:100AD00002F09EFA374802F035FB68B9344802F05C
:100AE000B4FA42F21071324802F073FBFFF768FE6D
:100AF00000202D490870A8E740F201512C4802F06F
:100B000064FA2C4A40F20751294802F050FB28B9F8
:100B1000FFF756FE00202449087096E7234B002279
:100B20000621254802F032F802220621224802F06E
:100B3000FAF84FF400611E4802F03AFA06211E4806
:100B400001F058FF1B4A06211B4802F01DFB68B943
:100B50000621194801F03EFF0021154802F028FA4D
:100B6000FFF72EFE0020104908706EE720220621B4
:100B7000114801F0C5FF06210F4801F02BFF0021AD
:100B80000B4802F015FA0A4802F05FFA09490848D2
:100B900002F01FFB28B9FFF713FE0020024908707E
:100BA00053E700BF51E700000E00002008000020BE
:100BB00000540040A08601000060024070B5054668
:100BC00042F210745848007800B970BD402057496F
:100BD00008700846457040F20161554802F009FA74
:100BE00008B1FFF7EDFD02E0012001F0D7FE40F271
:100BF00001614F4802F0FDF910B1601E041EF3D1EF
:100C000094B9FFF7DDFD42F2107402E0012001F01B
:100C1000C5FE40F20161464802F0EBF910B1601EDA
:100C2000041EF3D104B9D0E7414802F009FA414A61
:100C30004FF4A0613E4802F0BAFA28B9FFF7C0FDB0
:100C4000002039490870C0E76FF001027821384868
:100C500002F0DEF9374802F075FA68B9344802F05C
:100C6000F4F942F21071324802F0B3FAFFF7A8FD2E
:100C700000202D490870A8E740F201512C4802F0ED
:100C8000A4F92C4A40F20751294802F090FA28B9F9
:100C9000FFF796FD00202449087096E7234B0022B9
:100CA0000621254801F072FF02220621224802F0A7
:100CB0003AF84FF400611E4802F07AF906211E4806
:100CC00001F098FE1B4A06211B4802F05DFA68B944
:100CD0000621194801F07EFE0021154802F068F94E
:100CE000FFF76EFD0020104908706EE720220621F4
:100CF000114801F005FF06210F4801F06BFE0021AD
:100D00000B4802F055F90A4802F09FF909490848D2
:100D100002F05FFA28B9FFF753FD0020024908707E
:100D200053E700BF51E700000E0000200A0000203A
:100D300000540040A08601000060024000BFFEE7B2
:100D400000BFFEE710B501F033FE10BD1CB55A48D8
:100D5000006840F47000584908605848006840F046
:100D600001005649086000BF5448006800F00200C6
:100D70000028F9D051480830006800F00C0008281D
:100D80006ED100BF0020019002E00198401C01904C
:100D900001985028F9D3494808300068009000981D
:100DA00020F0F0000090009840F08000009043494F
:100DB0000831009808600020019002E00198401C72
:100DC000019001985028F9D33C4808300068009001
:100DD000009820F0F0000090009840F09000009003
:100DE00036490831009808600020019002E001981F
:100DF000401C019001985028F9D330480830006811
:100E00000090009820F0F0000090009840F0A000C2
:100E100000902A490831009808600020019002E003
:100E20000198401C019001985028F9D323480830BC
:100E300000680090009820F0F0000090009840F0CA
:100E4000B00000901D490831009808600020019012
:100E500002E00198401C019001985028F9D300BF8E
:100E6000C82000F0E5FC15480830006820F00300B9
:100E700012490831086011480068114908400F49BB
:100E800008600846006820F48020086000200B49B4
:100E90000831086000BF09480830006800200028B9
:100EA000F9D108480549091D0860002003490C31A3
:100EB000086002F075FC1CBD88ED00E000380240BF
:100EC000FFFFF6FE1030002400BFFEE77CB50446AD
:100ED00000201D46164600290BD0491ECDE90041D1
:100EE000044B6A462946304600F000F9009A00217A
:100EF00011707CBD1B18000810B5002804DB0A0720
:100F0000130E054A135406E00A07140E034A00F0B4
:100F10000F031B1FD45410BD00E400E018ED00E0E7
:100F2000BFF34F8F0648006800F4E06005490843AE
:100F3000001D03490860BFF34F8F00BF00BFFDE7EE
:100F40000CED00E00000FA0502E008C8121F08C11D
:100F5000002AFAD170477047002001E001C1121F3A
:100F6000002AFBD1704700002DE9FF5F82B000210D
:100F7000DDE90430020DDDF840B0034318D044F63B
:100F80001050A2F2FF3242431514119801281FD0CD
:100F9000A5EB0B00401C5FEA000A4FF000064E4F25
:100FA000DFF83891B046504615D5CAF1000413E079
:100FB000119801244AA3012801D16FEA0B0102987C
:100FC000119AC0E90031C0E9024206B0BDE8F09FC5
:100FD000CBF10000DFE704460021404A491842EB0C
:100FE0000450CDE9001012E0E00707D032463B463E
:100FF00040464946FFF708FA8046894632463B4656
:1010000010461946FFF700FA06460F466410002CFA
:10101000EAD1DDE90401DDE90023BAF1000F06DAC7
:10102000FFF7F2F942464B46FFF7EEF905E0FFF70E
:101030005DFA42464B46FFF759FA04460E46002237
:10104000284BFFF7DBFA03D84FF0FF30014607E0EB
:101050000022254B20463146FFF72FF9FFF7B5FA5E
:10106000102409E0002C0ADB0A220023FFF7F4F821
:10107000039B30321A55641E50EA0102F2D1641CFF
:10108000039AC4F111031444119A012A03D00122D6
:1010900008430DD10AE0084304D000204FF0110BA3
:1010A000119072E7A3EB0B056D1E0DE05B4504DDAF
:1010B0004FF0000205F1010504E003DA4FF00002F1
:1010C000A5F10105002AECD002981199C0E902317E
:1010D000C0E9004579E70000000014400000F03F3F
:1010E000300000000000F0430000E03F2DE9FF4F1A
:1010F00095B09B468946064600250FE2252877D104
:1011000000242746F84A0121059400E0044316F81C
:10111000013F203B01FA03F01042F7D130782A2832
:1011200011D06FF02F033078A0F13002092A16D8C1
:10113000059A44F0020402EB820203EB42021044DF
:10114000761C0590EFE759F8042B0592002A03DA84
:10115000504244F40054059044F00204761C307868
:101160002E2816D116F8010F44F004042A280DD0B9
:101170006FF02F023078A0F13003092B09D807EB6C
:10118000870302EB4303C718761CF3E759F8047B87
:10119000761C30786C280FD006DC4C2817D06828D5
:1011A0000DD06A2814D104E0742810D07A280FD109
:1011B0000DE044F400140AE044F4801401E044F427
:1011C00040147278824202D104F58014761C761C99
:1011D000307866280BD013DC582877D009DC00283B
:1011E00075D04528F6D04628F4D047281AD19DE17D
:1011F00018E0632835D0642879D0652812D195E1AC
:10120000702873D008DC6728F1D069286FD06E2869
:101210000DD06F2806D1B5E073282CD0752875D075
:10122000782874D05A46179990476D1C75E1C4F31D
:101230000250022809D003280DD0D9F80010042844
:101240000DD00D6009F1040967E1D9F80010EA1723
:10125000C1E90052F6E7D9F800100D80F2E70D70F1
:10126000F0E719F8041B8DF8001000208DF801003C
:10127000EA46012003E059F804AB4FF0FF30610764
:101280004FF0000102D40DE008F101018846B94297
:101290000FDA8045F8DB1AF808100029F4D108E0CD
:1012A00008F1010188468142FADB1AF8081000298A
:1012B000F6D105985B46A0EB080721463846179AF9
:1012C00000F094FA284400EB080507E04DE029E11E
:1012D0000DE01AF8010B5A4617999047B8F101082A
:1012E000F7D25B4621463846179A13E142E00A22BC
:1012F0000092C4F302524FF0000A022A08D059F8B3
:1013000004CB032A4FEAEC710AD00DE029E02AE071
:1013100009F1070121F00702F2E802C1914609E054
:101320000FFA8CFC4FEAEC71042A03D14FFA8CFCC3
:101330004FEAEC71002907DA0A460021DCF1000CC3
:1013400061EB02012D2202E0220504D52B228DF84B
:101350000420012203E0E20701D02022F7E79046B3
:1013600059E00A2102E010220DE010214FF0000A9E
:1013700000910BE010224FF0000A44F0040408270B
:10138000009203E008224FF0000A0092C4F30252D8
:10139000022A05D059F804CB0021032A08D009E01D
:1013A00009F1070121F00702F2E802C1914605E0C8
:1013B0001FFA8CFC042A01D10CF0FF0C4FF000083E
:1013C000220728D5702806D0009B83F0100353EA2B
:1013D0000A0305D00EE040228DF80420012208E027
:1013E0005CEA010206D030228DF804208DF8050059
:1013F00002229046009B83F0080353EA0A030AD1B5
:101400005CEA010201D1620705D530228DF8042083
:101410004FF001087F1E582804D034A003900EA876
:1014200002900DE036A0F9E753466046009AFEF7B9
:1014300013FF84460398825C0298401E029002705B
:101440005CEA0100F0D1029806A9081A00F1200A0E
:10145000600702D524F4803400E00127574502DDFF
:10146000A7EB0A0000E0002000EB0A0100900598BD
:101470004144401A0590E00306D45B462146179A82
:10148000059800F0B3F90544002706E001A85A4684
:10149000C05D179990476D1C7F1C4745F6DBE00344
:1014A0000CD55B462146179A059800F09FF9054434
:1014B00004E030205A46179990476D1C0099481E49
:1014C00000900029F5DC08E0029802995A4600785D
:1014D000491C0291179990476D1CBAF10001AAF1BD
:1014E000010AF1DC65E100000928010030313233E6
:1014F0003435363738396162636465660000000050
:101500003031323334353637383941424344454639
:101510000000000000F058F90544761C30780028DF
:101520007FF4ECAD19B02846BDE8F08F620700D417
:10153000062709F1070222F0070CFCE80223E14626
:1015400003F000485FEA080C02D00FF2702C0DE0A7
:101550005FEA045C02D50FF2682C07E05FEAC47C06
:1015600002D00FF2602C01E0AFF2700C4FF0FF38A8
:1015700023F00043CDF850C065280CD006DC452888
:1015800009D046281DD047283DD13DE0662818D017
:1015900067287ED138E00021112F01DB112000E007
:1015A000781CCDE9000106A90EA8FFF7DDFCDDE9F6
:1015B0000F010E9A03910021009207F1010A049194
:1015C0004DE04FF000400097CDE9011006A90EA8AC
:1015D000FFF7CAFCDDE90F0203920E9B119900226E
:1015E000DDF80CA00093049211B9791C00EB010AFC
:1015F000B7EB0A0004D4C0F1FF3007F1010A0490F0
:10160000AAEB0700019044E0012F00DA0127002136
:10161000112F01DD112000E03846CDE9000106A9B7
:101620000EA8FFF7A1FCDDE90F010E9A039100213E
:1016300004910092BA4621070CD40399514500DA6F
:101640008A46BAF1010F05DD009AAAF10101515C49
:10165000302908D0B84202DA10F1040F06DA01216D
:10166000CDE9011015E0AAF10101E9E7002805DC48
:10167000049901440491AAEB000102E0411C514588
:1016800000DD8A460499401A401C01904FF000404A
:101690000290200704D40198504501DBCDF8048066
:1016A00000208DF84F0002980DF14F07B0F1004F68
:1016B00025D02B200E9002984FF0020800280CDA5B
:1016C000404202902D200E9007E00A210298FEF77A
:1016D000ADFD3031029007F8011DB8F10001A8F10D
:1016E0000108F2DC02980028EFD1791E0E980870EC
:1016F000307800F0200040F0450007F8020D12A8F5
:10170000C01B00F107081498007800B1012000EB1D
:101710000A01019801EBE07105984144401A401E0E
:101720000590E00306D45B462146179A059800F021
:101730005DF805441498007818B15A4617999047F7
:101740006D1CE00324D55B462146179A059800F0EE
:101750004DF805441CE00498002807DBDDE903018F
:10176000884203DD0098405C179901E0179930200A
:101770005A469047049805F10105401C04900198D1
:10178000401E019004D12E205A46179990476D1C97
:10179000BAF10001AAF1010ADDDC05E017F8010B3E
:1017A0005A46179990476D1CB8F10001A8F101083D
:1017B000F4DC5B462146179A0598ABE62D00000045
:1017C0002B000000200000002DE9F0410446002518
:1017D0001E461746880404D405E039462020B04749
:1017E0006D1C641EF9D52846BDE8F0812DE9F04155
:1017F000044600251E469046C80301D5302700E068
:101800002027880404D505E041463846B0476D1CC2
:10181000641EF9D52846BDE8F0814A68002A06D042
:101820000A68531C0B6010704868401E486070477F
:1018300008B50021009102E00099491C009100EBDD
:101840008001009AB2EB410FF6D308BD2DE9F041BB
:1018500004460D46207801F0E9FA0646607801F06A
:10186000E5FA0746FF2E01D0FF2F03D14FF0FF30DE
:10187000BDE8F08147EA061028700020F8E7000074
:1018800010B5C0B04FF4807218496846FEF7AAFC44
:1018900017490098884203D116493F9888420FD0D3
:1018A0004FF4807214496846FEF79CFC104900987A
:1018B000884203D10F493F98884201D040B010BD03
:1018C0000B9800F02DF8044614B1B4F5964F00D1F2
:1018D000F4E70A4802F082F82146084801F092FF36
:1018E000064802F080F800BFE8E7000000000108A9
:1018F0003CC3A55AC3C3A5A500010108004400408C
:1019000008B54FF400300346034A014600900348EF
:1019100000F0BAF808BD000000100108001003082C
:101920000146112906D0122907D0132908D01429FD
:101930000CD108E04FF4965070474FF41650FBE777
:101940004FF49640F8E74FF4E130F5E70020F3E775
:1019500010B5C0B00446204600F076FA80B968465B
:1019600000F05AFBA0680290E068039020690490A0
:10197000606A09904FF4807269462046FEF732FC97
:10198000094820604FF00110606008486061084815
:10199000A0610848C4F8FC0000221146204600F06F
:1019A0000BF840B010BD00003CC3A55A0010010860
:1019B00000100508C3C3A5A52DE9F043ADF5017DD1
:1019C00005460E4617464FF4805222492248FEF73C
:1019D00009FC4FF48072294641A8FEF703FC41A898
:1019E00000F013FB7F904FF4807241A901A8FEF72D
:1019F000F9FB4FF4807241A91748FEF7F3FB4FF44F
:101A0000807201A91548FEF7EDFB77B16EB14B98D6
:101A100000F01F044FF4007000EB44180E4901EB76
:101A2000080020223146FEF7DDFB4FF480510948C3
:101A300000F09EF820B900200DF5017DBDE8F0838F
:101A4000DFF814904FF480524946024800F0C4F881
:101A5000F2E70000000001082C0000202C0100200B
:101A600038B504460548011D0D46054B2A46191D8B
:101A70000448009400F008F838BD00000010050884
:101A8000FCFF0100001001082DE9F04FC3B006462D
:101A90000F46904699464C9C00251CB1BC4201D88B
:101AA0004C4503D9002043B0BDE8F08F04F6FF7029
:101AB0004FEA103A4FEA0A3A5146304600F058F8D9
:101AC00008B90020EFE71BE0A4EB050BBBF5807F16
:101AD00002D94FF4807000E05846029008EB0500F0
:101AE000019003A8DDE90112FEF77CFB701903A940
:101AF000029A00F071F808B90020D4E70298054472
:101B0000A542E1D30120CEE730B503460C464FF0A5
:101B1000FF3100220FE0985C4140002508E001F011
:101B2000010018B1064880EA510100E049086D1C27
:101B3000082DF4D3521CA242EDD3C84330BD00009F
:101B40002083B8ED70B504460D4629462046FFF7C0
:101B5000DBFF70BD10B50120FEF708FE1020FEF778
:101B600005FE8020FEF702FE4020FEF7FFFD10BDBF
:101B70002DE9F04104460F4617B1B4F1006F02D2CF
:101B80000020BDE8F081E019451E1248854201D9C8
:101B90000020F6E7C4F30B00261AC5F30B002D1A3C
:101BA000FEF7E9FDFFF7D6FF0DE03046FEF7E8FD52
:101BB00000F092FB18B9FEF7E8FD0020E1E7FFF71F
:101BC000C9FF06F58056AE42EFD9FEF7DEFD0120D3
:101BD000D7E70000FFFF07082DE9F04104460E4655
:101BE000154606B115B90020BDE8F081B4F1006FCB
:101BF00004D36019401E1A49884201D90020F3E736
:101C0000FEF7B9FDFFF7A6FF0FE0D6F800804146CA
:101C10002046FEF7BFFD00F05FFB18B9FEF7B5FDEB
:101C20000020E1E7241D361D2D1F04F0030008B934
:101C3000042DEAD200270BE0F15DE019FEF7AFFDBD
:101C400000F04AFB18B9FEF7A0FD0020CCE77F1C8E
:101C5000AF42F1D3FFF77EFFFEF797FD0120C3E708
:101C6000FFFF07082DE9F043CBB0044601204A905E
:101C700049904FF0000900200190A060606220466A
:101C8000FFF766FE4FF480414148FFF771FF4AA815
:101C900000F090FB10B94BB0BDE8F08301F0ACFD53
:101CA00006463BE00020019001A800F0E9F98146DA
:101CB000B9F1000F0FD040F21B1302AA40F20251FB
:101CC000BDF8280101F055FB05461DB1294602A8C3
:101CD00000F054FA23E040F21B1302AA40F2025132
:101CE000BDF8280101F02BFB05461DB1294602A8CD
:101CF00000F044FA01F080FD801B4EF6602188421E
:101D000000D3C8E74FF480412148FFF731FF4AA9CB
:101D100047F2305000F0F2FA00B9BCE7C2E700BF6A
:101D200049A941F2883000F07BFA00B9B3E740F2EC
:101D30001B1302AA40F20351BDF8240101F019FB64
:101D400005461DB1294602A800F018FA019804289A
:101D500002D90198001F00E0002007464FF000085C
:101D60002FB139460A48001DFFF7CEFE80460948CC
:101D7000A0600198E060C4F81080074860610448E2
:101D8000A061002060622046FFF7E2FDFFF7C8F87F
:101D90000010050855AA55AA0010010801460B6855
:101DA0004A6808481840B0F1005F01D00020704731
:101DB000B2F1006F02D30448824201D90020F6E755
:101DC0000120F4E70000FE2FFFFF07082DE9F04196
:101DD00004460E461746042C02D9B4F5003F02D93A
:101DE0000020BDE8F08100BF251F00BF15B1B5F58B
:101DF000003F01D90020F4E71249084602785A2A28
:101E00000AD14278A52A07D18278C32A04D1C278A0
:101E10003C2A01D1012200E000220AB90020E0E7BB
:101E2000084800F1040800BF4046FFF7B7FF08B9B3
:101E30000020D6E70EB1C6F8008007B13D60012052
:101E4000CFE700000010050870B504461A49206865
:101E5000884201D0002070BD1849D4F8FC008842A7
:101E600001D00020F7E76068B0F1011F01D0002029
:101E7000F1E713496069884203D11249A069884299
:101E800001D00020E7E7E068B0F5003F06D8E06841
:101E900030B1E068011FB1F5003F01D90020DAE759
:101EA000204600F0B2F80546D4F8F800A84201D068
:101EB0000020D0E70120CEE73CC3A55AC3C3A5A5A7
:101EC00000100108001005082DE9F041044672B623
:101ED00000204FF0E021086148618861002508E09A
:101EE0004FF0FF310C4840F825100C4840F8251001
:101EF0006D1C082DF4D3BFF34F8FBFF36F8F0848CD
:101F00000460206880F3088800BF67683E4662B6B8
:101F1000B047BDE8F081000080E100E080E200E031
:101F200008ED00E0F0B587B000271BA11E4801F0C6
:101F3000B9F8002526E01D4800EB45142068B0F1F3
:101F4000B12F00D01DE01C212046FFF7DDFD064625
:101F5000E069B04201D116A300E016A3D4E904124F
:101F6000A069CDE90403CDE90212D4E90201CDE96B
:101F700000012A4610490C48636801F093F87F1C61
:101F800000BF6D1C202DD6D31FB90CA1064801F04F
:101F900089F807B0F0BD0000424C206C6F672064E8
:101FA000756D703A0D0A00000044004000020108FF
:101FB0004F4B000042414400DC44000820203C65B7
:101FC0006D7074793E0D0A002DE9F04704460D4608
:101FD00016461F46DDE9099ADDF8208020212046BB
:101FE000FEF719F94FF0B12020606560A660E76048
:101FF000C4F81080C4F81490C4F818A01C2120461E
:10200000FFF782FDE061BDE8F08710B50446F821D6
:102010002046FFF779FD10BD10B504464FF48071DE
:102020002046FEF7F8F80B4820604FF00110606082
:102030000020A060084860610848A0610020A062FC
:102040000748C4F8FC002046FFF7DFFFC4F8F8009B
:1020500010BD00003CC3A55A00100108001005087F
:10206000C3C3A5A510B501F0C7FB044600BF01F02E
:10207000C3FB001B41F288318842F8D310BD000039
:102080002DE9F043C3B006460025002401F0B4FB5F
:10209000804600270EB10020306041E001A800F02A
:1020A000ADF828B307B90127042C03D29DF804002A
:1020B00002A908559DF804202846691C8DB203A981
:1020C0000A54641C01F098FB8046FF2D0FD9601B59
:1020D000214900EB01092A4603A94846FFF77CFD88
:1020E00018B9002043B0BDE8F083002500BF17E019
:1020F000AFB101F081FBA0EB080064280FD36DB1F4
:10210000601B154900EB01092A4603A94846FFF761
:1021100063FD08B90020E5E7002500BF01E000BF2E
:10212000BCE700BF06B13460042C01D20020D9E71F
:102130009DF808005A280DD19DF80900A52809D15D
:102140009DF80A00C32805D19DF80B003C2801D159
:102150000120C7E70020C5E70010050808B54FF4C7
:1021600000300346034A014600900348FFF78CFC09
:1021700008BD00000010030800100108F8B505466E
:102180000E4600BF02201B49886100BF002000905E
:1021900003E000BF0098401C00900098B0F5FA6F73
:1021A000F7D300240BE0295D134801F0A4FB00BF26
:1021B0000721114801F01CFC0028F9D0641CB4422E
:1021C000F1D300BF06210C4801F012FC0028F9D021
:1021D0000020009003E000BF0098401C0090009891
:1021E000B0F5FA6FF7D300BF02200249886200BF42
:1021F000F8BD0000000002400044004010B5044655
:102200000521064801F0F4FB08B9002010BD034881
:1022100001F06CFB20700120F8E700000044004052
:102220002DE9F041B4B006460D46002401F0E4FA71
:10223000074649E023A8FFF7E1FF00B944E0402C3E
:102240000BD3012006E024A90A5C411E24AB5A549A
:10225000411C88B24028F6D33F249DF88C202046AC
:10226000611C8CB224A90A542BE001AA1A2124A8CB
:1022700001F0ACF88046B8F1000F14D19DF80600CB
:10228000012810D1BDF8080040F2035188420AD15C
:102290009DF80B0038B915B1BDF804002880012065
:1022A00034B0BDE8F081012006E024A90A5C411E9B
:1022B00024AB5A54411C88B2A042F6DB601E84B2A3
:1022C00000BF1A2CD1D200BF01F096FAC01BB04259
:1022D000B0D30020E4E7000010B5074C00E0641E16
:1022E0004FF48030FEF760FA08B1002CF7D10CB142
:1022F000012010BD0020FCE7FFFF3F002DE9F04169
:10230000B4B006460D46002401F076FA074649E0CF
:1023100023A8FFF773FF00B944E0402C0BD3012042
:1023200006E024A90A5C411E24AB5A54411C88B221
:102330004028F6D33F249DF88C202046611C8CB2A7
:1023400024A90A542BE001AA1A2124A801F03EF87E
:102350008046B8F1000F14D19DF80600012810D175
:10236000BDF8080040F2025188420AD19DF80B00E6
:1023700038B915B1BDF804002880012034B0BDE89B
:10238000F081012006E024A90A5C411E24AB5A54C6
:10239000411C88B2A042F6DB601E84B200BF1A2C3A
:1023A000D1D200BF01F028FAC01BB042B0D3002048
:1023B000E4E700002DE9F047B4B00546002401F041
:1023C0001BFA814600270A2632A13E4800F06AFE29
:1023D0005FE001F011FAA0EB090842F210708045AD
:1023E00003D3002034B0BDE8F087B84509D346B127
:1023F000324635A1334800F055FE07F57A77701E56
:10240000C6B223A8FFF7FAFE002841D0402C0BD318
:10241000012006E024A90A5C411E24AB5A54411C49
:1024200088B24028F6D33F249DF88C202046611CBA
:102430008CB224A90A5429E001AA1A2124A800F088
:10244000C5FF8246BAF1000F12D19DF8060001289F
:102450000ED1BDF8080040F20251884208D19DF823
:102460000B0028B915B1BDF8040028800120B9E798
:10247000012006E024A90A5C411E24AB5A54411CE9
:1024800088B2A042F6DB601E84B200BF1A2CD3D201
:1024900000BF9EE77573696E6720636F6D6D616E37
:1024A0006420746F20696E74657272757074207325
:1024B00074617274204170706C69636174696F6ECD
:1024C0000D0A0000004400407761697420666F7255
:1024D000207374617274204170706C6963617469F7
:1024E0006F6E28257573292E2E2E2E2E2E0D0A0086
:1024F000ADF54E7D4FF00009C8464FF48072AA49F1
:102500008EA8FDF76FFE4FF48072A8494EA8FDF724
:1025100069FE8EA8FFF798FC06464EA8FFF794FCCC
:102520000746A6B19FB155999598884206D34FF4B6
:1025300080728EA90EA8FDF755FE23E04FF480723D
:102540004EA90EA8FDF74EFE4FF001091AE046B164
:102550004FF480728EA90EA8FDF744FE4FF00109DA
:1025600010E047B14FF480724EA90EA8FDF73AFE75
:102570004FF0010906E00EA8FFF74EFD4FF00109EC
:1025800001201790B9F1000F15D01798CDE9006719
:102590000290DDE91502811801231A4606A8FFF70B
:1025A00013FD1898401C00F01F001890012206A986
:1025B0000EA8FFF701FA7E491098884203D10EA8B1
:1025C000FFF750FB06E07A49C9431098884201D0D2
:1025D000FFF748FD7649C9431098884279D104AA8B
:1025E00005A91198FFF7F2FB00BB724810901698EE
:1025F000401C169002201790002102221198CDE96C
:1026000000200291DDE9150281180023032206A8AB
:10261000FFF7DAFC1898401C00F01F001890012208
:1026200006A90EA8FFF7C8F9FEF77AFCDDE9041049
:10263000FFF788FA04461299A1421FD05D48109016
:102640001698401C16900220179002211298CDE98E
:1026500001040091DDE9150281180023032206A878
:10266000FFF7B2FC1898401C00F01F0018900122E0
:1026700006A90EA8FFF7A0F9FEF752FC01254E4867
:10268000FFF78CFB18B1FFF73BF90546A8461DB1D3
:102690000498FFF7E5F90546B5B347480499FFF7F5
:1026A00051FA04461298A04214D1002010901598B7
:1026B000401C159000201790129904988DE8130083
:1026C000DDE9150281180123022206A8FFF77CFC30
:1026D00034E03FE0374810901698401C16900320D5
:1026E0001790B8F1000F01D0FFF738FD03211298C1
:1026F000CDE901040091DDE91502811800230322D0
:1027000006A8FFF761FC19E0FFE72A481090169829
:10271000401C169003201790B8F1000F01D0FFF76E
:102720001DFD00200322CDE900200290DDE9150205
:1027300081180023032206A8FFF746FC1898401CC6
:1027400000F01F001890012206A90EA8FFF734F927
:10275000FEF7E6FB1848FFF721FB30B117A11D4833
:1027600000F0A0FC1448FFF7AFFBFFF7DBFB0420F1
:102770001790002010490422CDE900210290DDE9E4
:10278000150281180023042206A8FFF71DFC1898E3
:10279000401C00F01F001890012206A90EA8FFF7A8
:1027A0000BF900BFFEE7000000000108000101086E
:1027B000AA55AA550100ADDE00100108424C3A208E
:1027C0006A756D70696E6720746F206170702E2E4F
:1027D0002E0D0A000044004000B589B040F60140CB
:1027E00000F020FF41F2150000F01CFF40F61540FC
:1027F00000F018FF4FF400720421304800F09BFAFB
:102800004FF4807204212D4800F095FA4FF40073C4
:1028100001220221294800F0C1FA4FF4007302227C
:102820000121264800F0E1FA4FF4807301220221D1
:10283000224800F0B3FA4FF48073022201211F48AE
:1028400000F0D3FA00221E491E4800F013FB722349
:10285000002211461B4800F0E5FB1A4800F0B0FBCF
:102860004FF48061174800F0FCFA0621164800F08A
:10287000F4F8684600F046FA4020069013480290AB
:10288000002003900490022007900E481030009022
:10289000012001904FF4403008906A4606210A4812
:1028A00000F084F90621084800F0C7F8012206214B
:1028B000054800F0AFF809B000BD00000004024078
:1028C000801A060000540040006002400A00002008
:1028D00010B54FF4406000F0A5FE4FF4406000F0EA
:1028E000A1FE41F2110000F09DFE042207212248C2
:1028F00000F021FA082207211F4800F01CFA0423E7
:10290000012202211C4800F049FA0423022200217E
:10291000194800F06AFA082301220221164800F043
:102920003DFA082302220021134800F05EFA022338
:1029300001221146104800F031FA02231A46002104
:102940000D4800F052FA00BF02200B49886200BF18
:102950000A4800F0D5FF4FF49641084800F052FFB6
:102960000421064801F054F80821044801F058F801
:10297000024801F038F810BD000002400044004059
:10298000054A02EB101212780A7000F00F02024B97
:102990009A5C4A7070470000303A000803490860AA
:1029A00000BF024909680029FBD1704700000020E0
:1029B00006480068401C054908600548006820B1C9
:1029C00003480068401E0249086070470400002068
:1029D0000000002010B501EB4102D30000F110020D
:1029E000D25822F0010301EB4102D40000F11002A1
:1029F000135110BD10B501EB4102D30000F11002DC
:102A0000D25842F0010301EB4102D40000F1100260
:102A1000135110BD30B5134601EB4104E50000F140
:102A20001004625922F0606242EA436201EB410401
:102A3000E50000F11004625130BD10B501EB410218
:102A4000D30000F11002D25822F4807301EB41024E
:102A5000D40000F11002135110BD10B501EB41027A
:102A6000D30000F11002D25822F0010301EB410221
:102A7000D40000F110021351002301EB4102D400F5
:102A800000F11002135101EB4102D40000F11402D5
:102A9000135101EB4102D40000F11802135101EB74
:102AA0004102D40000F11C02135101EB4102D40099
:102AB00000F120021351212301EB4102D40000F167
:102AC0002402135104290CDA01EB41025300C1F333
:102AD000400203EB82033D229A4083681A438260DE
:102AE0000DE00A1FD1B201EB41025300C1F34002D5
:102AF00003EB82033D229A40C3681A43C26010BDB3
:102B000010B504290CDA01EB41035C00C1F340036A
:102B100004EB830302FA03F38468234383600DE02C
:102B20000B1FD9B201EB41035C00C1F3400304EB7E
:102B3000830302FA03F3C4682343C36010BD30B5B6
:102B40000346002004290FDA01EB41046500C1F3BC
:102B5000400405EB840402FA04F41D682C400CB117
:102B6000012012E0002010E00C1FE1B201EB410453
:102B70006500C1F3400405EB840402FA04F45D68C7
:102B80002C400CB1012000E0002030BD30B532B146
:102B900001EB4104E50000F12004635105E001EB85
:102BA0004104E50000F11C04635130BD70B501EB38
:102BB0004104E50000F12404645924F0040501EB0C
:102BC0004104E60000F12404A55101EB4104E600B4
:102BD00000F118041568A55101EB4104E60000F16D
:102BE0001C049568A55101EB4104E60000F11404B2
:102BF000D569A55101EB4104E50000F110046359CA
:102C00003F4C2340146944EA8404156A2C439569B7
:102C10002C43234301EB4104E50000F11004635110
:102C2000546874B901EB4104E50000F110046459E3
:102C300044F4007501EB4104E60000F11004A551D5
:102C40001FE05468012C0ED101EB4104E50000F1B6
:102C50001004645924F4007501EB4104E60000F10E
:102C60001004A5510DE001EB4104E50000F1100452
:102C7000645944F4004501EB4104E60000F11004FE
:102C8000A551D46874B901EB4104E50000F11004CA
:102C9000645944F4806501EB4104E60000F110043E
:102CA000A5510DE001EB4104E50000F11004645969
:102CB00024F4806501EB4104E60000F11004A55105
:102CC000546974B901EB4104E50000F11004645942
:102CD00044F4807501EB4104E60000F11004A551B5
:102CE0000DE001EB4104E50000F11004645924F407
:102CF000807501EB4104E60000F11004A55170BDA0
:102D00003F87FCFF002101600121416000218160BB
:102D10000121C16000210161012141610021816126
:102D2000C1610162704710B501EB4103DC0000F1A5
:102D300014031A5110BDF0B503461C6A5D6A0020E9
:102D40000DE00126864016403EB187000F26BE40AA
:102D5000B443860001FA06F63443461CB0B2082894
:102D6000EFD3082011E00126864016405EB1A0F1A5
:102D70000806B7000F26BE40B543A0F10806B6000E
:102D800001FA06F63543461CB0B21028EBD31C629C
:102D90005D62F0BD8162704781617047F0B50446A5
:102DA0000D4616462168E268002019E00127874099
:102DB0001F409FB14FEA400C032707FA0CF7B943B5
:102DC000470005FA07F739434FEA400C032707FA93
:102DD0000CF7BA43470006FA07F73A43471CB8B264
:102DE0001028E3D32160E260F0BDF0B50C46154633
:102DF000012C03D146681E43466002E046689E43AC
:102E00004660826800210DE001268E401E403EB1E2
:102E10004F000326BE40B2434E0005FA06F6324389
:102E20004E1CB1B21029EFD38260F0BD01463029AB
:102E300005DB392903DCA1F13000C0B2704741291C
:102E400005DB462903DCA1F13700C0B2F6E76129B2
:102E500005DB662903DCA1F15700C0B2EEE7FF20D5
:102E6000ECE70A460021016821F48061114301600A
:102E7000704700002DE9F05F04460E46934602209D
:102E800000F03EFB07463148B7FBF0F9B9F13C0FC3
:102E900001D34FF03C09D4F804A02AF03F0A4AEAD3
:102EA000090AC4F804A02A4886421ED82748B7FB5E
:102EB000F0F000F10108B8F13C0F02D33C20206291
:102EC00007E0B8F1020F02D80220206201E0C4F846
:102ED00020807000B7FBF0F5042D00D20425E069D6
:102EE000C5F30B010843E0612EE01A4886422BD857
:102EF0004FF4967009FB00F04FF47A71B0FBF1F0DB
:102F0000401C2062BBF1000F08D106EB4600B7FB66
:102F1000F0F5E06920F48040E06109E006EBC600CE
:102F200000EB0610B7FBF0F5E06940F48040E0618B
:102F3000C5F30B0008B945F00105E06940F4004015
:102F4000E061E0692843E061BDE8F09F40420F0086
:102F5000A0860100801A060010B5044613482044DC
:102F600030B1B0F5806F0CD0B0F5006F1BD111E01F
:102F700040F6150000F07AFB40F6150000F064FB07
:102F800012E040F6160000F071FB40F6160000F06B
:102F90005BFB09E040F6170000F068FB40F6170005
:102FA00000F052FB00E000BF00BF10BD00ACFFBF4F
:102FB0000A460021416821F40061114341607047D5
:102FC000016841F001010160704710B540F2015203
:102FD000914202D1426982690AE000EB91121268C3
:102FE00001F01F040123A3409A4300EB91131A60E0
:102FF00010BD30B5024602EB91131B6801F01F05AE
:103000000124AC4023400BB1012000E0002030BD82
:1030100012F1020F02D121F0010101E041F00101A2
:103020000161704730B50C460021016821F00201B2
:1030300021430160C3F3090342EA0305856030BD03
:10304000016841F4807101607047016841F40071CA
:103050000160704700F0A8FBFFF73AFCFEF710FC98
:10306000FFF7BAFBFDF74AFCFDF72CFC102307A283
:1030700000210846FDF7C4FC102307A2022100200E
:10308000FDF7BEFCFFF734FA00BFFEE73230323600
:103090003833343039350000426F6F746C6F6164BF
:1030A000657200000FB430B5ADF5017D044686A809
:1030B00000904FF4007101A8009B859AFDF706FF70
:1030C0000546002000901C48844204D100BF022025
:1030D0001A49886100BF00201949088012E001A840
:1030E000174A1288815C204600F005FC00BF0721CA
:1030F000204600F07DFC0028F9D011480088401CD3
:103100000F4908800E480088A842E8DB0A4884423C
:103110000BD100BF0621204600F06AFC0028F9D040
:1031200000BF02200549886200BF28460DF5017DD9
:1031300030BC5DF814FB0000004400400000024079
:103140000C00002010B5044615E040F201510D4876
:10315000FFF74FFF012800D110BD40F20A51094886
:10316000FFF747FF012806D140F20A510548FFF753
:103170002CFF0020F0E7201EA4F10104E5D100BFE0
:10318000EAE700000054004070B505460E461446BC
:1031900007E0202231462846FFF7D1FC012800D164
:1031A00070BD201EA4F10104F3D100BFF8E770B593
:1031B00005460E46144606E031462846FFF719FF3D
:1031C000012800D170BD201EA4F10104F4D100BF7C
:1031D000F8E7024605E0106800F4007008B9012025
:1031E0007047081EA1F10101F5D100BFF8E72DE9F4
:1031F000F74FA4B00446884614B1B8F1000F03D1CC
:10320000002027B0BDE8F08FE079802801D90020A8
:10321000F7E7E07900F10D05012000EB450B26985A
:10322000584501DA0020ECE7A5208DF80000B62013
:103230008DF80100208800128DF8020020788DF8AA
:103240000300A0788DF80400A08800128DF8050016
:1032500020798DF80600E0798DF80700A07908B193
:10326000A07900E002208DF80800002008E004F1B9
:1032700008010A5C00F109010DF80120411CC8B2E7
:10328000E1798142F3DCE07900F1090631466846D4
:1032900000F07FF88146B2464FEA292156460AF1EE
:1032A000010A0DF8061009F0FF0251460AF1010A61
:1032B0000DF80120B62251460AF1010A0DF801204D
:1032C000A52251460AF1010A0DF80120002707E066
:1032D00008EB47011DF80700FFF752FB781C87B287
:1032E000AF42F5DB002008F815004FF6FF7000EA4A
:1032F000450086E72DE9F043A3B005460E46174684
:103300001C46DDE92A89ADF8045002208DF806003C
:10331000ADF808608DF80A008DF80B40002004E03D
:103320003A5C03A90A54411CC8B2A042F8DB4A46E1
:10333000414601A8FFF75BFF23B0BDE8F083F0B57D
:10334000A3B004460D4616461F46ADF80440FF20C4
:103350008DF80600ADF8085002208DF80A00002014
:103360008DF80B003A46314601A8FFF740FF23B025
:10337000F0BDFEB506460F4614461D46FF200290DE
:10338000012302AA39463046CDE90045FFF7B2FFD6
:10339000FEBD30B502460B464FF6FF70002112E02D
:1033A000545C604000240AE000F0010525B14AF2B7
:1033B000010585EA600000E04010651CECB2082CB5
:1033C000F2D34C1CA1B29942EADB30BD2DE9F04F9B
:1033D000A7B0824688461446BAF1000F00D024B93F
:1033E0004FF0FF3027B0BDE8F08FB8F11A0F02D2CE
:1033F0004FF0FF30F6E708F0010010B16FF0060063
:10340000F0E74FEA58058D2D02D96FF00500E9E786
:1034100000270BE003AAD1190AEB4700FEF716FAC2
:1034200010B14FF0FF30DDE7781C87B2AF42F1DB1F
:103430009DF80D009DF80C1040EA012002904AF220
:10344000B6510298884202D06FF00100CAE7681EA8
:1034500003A9095CA81E03AA105C41EA00200190A0
:103460004BF2A5610198884202D06FF00200B9E7E3
:103470009DF8136006F10D00A84202D06FF0040021
:10348000B0E7802E02D96FF00500ABE706F109091D
:10349000494603A8FFF77DFF834603A909F1010010
:1034A000085C11F8091040EA0121009100998B4550
:1034B00002D06FF0030095E79DF80F009DF80E1005
:1034C00040EA012020809DF81000A0709DF81200B5
:1034D0009DF8111040EA0120A080E6719DF81400CB
:1034E000A071002008E000F1090103AA525C04F178
:1034F00008010A54411CC8B2B042F4DB002071E755
:103500002DE9F04F8CB0064600200A903EA090E8CE
:10351000004CC068CDE905BECDF810A007900FF2B1
:10352000EC0ADAE9000ACDE9020A0FF2E00ADAE968
:10353000000ACDE9000A38480068C0F381000B900A
:103540000B9820B1012804D0022828D103E0334988
:1035500027E0334925E03048001F006800F03F07AE
:103560002D48001F0068C0F3881C2B48001F00680E
:10357000C0F30140401C4FEA40092748001F006883
:1035800000F48008B8F5800F01D1254B00E0234BF3
:10359000B3FBF7F000FB0CF0B0FBF9F101E01F49C1
:1035A00000BF00BF1C480068C0F3031404A8055DF9
:1035B00021FA05F218480068C0F3822402A8055DCC
:1035C00022FA05F0099014480068C0F342341DF84F
:1035D000045022FA05F0089036B1012E06D0022ED2
:1035E00006D0032E0AD106E00A9108E00A9206E00E
:1035F00009980A9003E008980A9000E000BF00BF15
:103600000A980CB0BDE8F08F000000000000000038
:103610000102030406070809083802400024F400E8
:1036200040787D01074A02EB9011D1F8001800F0B4
:103630001F0301229A401143024B03EB9012C2F880
:103640000018704700300240074A02EB9011D1F891
:10365000001800F01F0301229A409143024B03EB34
:103660009012C2F80018704700300240074A02EB7F
:103670009011D1F8001800F01F0301229A40114365
:10368000024B03EB9012C2F8001870470030024062
:1036900008B5002000213F4A126842F480323D4BB9
:1036A0001A6000BF401C3B4A126802F4003119B98D
:1036B0004FF6FF729042F5D1364A126802F400329A
:1036C00032B900BF334A126802F40032002AF9D03E
:1036D000304A4032126842F080522E4B40331A601A
:1036E0002D4A126842F440422B4B1A60294A083294
:1036F0001268284B08331A601A46126842F40042D6
:103700001A601A46126842F4A0521A60234A1B1F1C
:103710001A601A1F126842F080721B1F1A6000BFE5
:103720001C4A126802F00072002AF9D01A4A126884
:1037300042F48032184B1A6000BF174A526802F4F4
:103740008032002AF9D0144A126842F40032124B37
:103750001A6000BF104A526802F40032002AF9D001
:103760000C4A083212680092009A22F0030200927A
:10377000009A42F002020092064B0833009A1A6047
:1037800000BF044A0832126802F00802002AF8D08A
:1037900008BD000000380240007000401978400A5F
:1037A00010B5FFF775FF10BD10B5124800684FF453
:1037B0007A71B0FBF1F4601EB0F1807F01D301207B
:1037C0000FE0601E4FF0E02148610F214FF0FF3005
:1037D000FDF792FB00204FF0E0218861072008618F
:1037E000002008B100BFFEE70021481EFDF784FB62
:1037F00010BD00002800002001480068704700004C
:10380000040000202DE9F04704460D460027B84685
:10381000B94600263349601A8C4235D00CDC324858
:103820002044E8B1B0F5806F1FD0B0F5006F21D013
:10383000B0F5406F32D122E0B0F5806F29D0B0F5FD
:10384000184F03D0B0F51C4F28D104E00320FFF738
:1038500057FE074623E00320FFF752FE07461EE00F
:103860000220FFF74DFE074619E00220FFF748FE51
:10387000074614E00220FFF743FE07460FE0022050
:10388000FFF73EFE07460AE00220FFF739FE074633
:1038900005E00220FFF734FE074600E000BF00BF4E
:1038A000E06800F4004070B1780000EB5500B0FB18
:1038B000F5F64FF6F07006EA0008C6F3420948EA4A
:1038C0000900A0600CE007EB5500B0FBF5F64FF6E1
:1038D000F07006EA000806F00F0948EA0900A06047
:1038E000BDE8F0870078004000BCFFBF0146486893
:1038F000C0F308007047C1F308024260704700003F
:1039000010B504463349601A8C424DD00CDC324865
:103910002044E0B1B0F5806F22D0B0F5006F31D017
:10392000B0F5406F52D136E0B0F5806F45D0B0F5BC
:10393000184F03D0B0F51C4F48D11AE040F60410E0
:10394000FFF794FE40F60410FFF77EFE3FE040F6DE
:103950001100FFF78BFE40F61100FFF775FE36E011
:1039600040F61200FFF782FE40F61200FFF76CFEF1
:103970002DE040F60510FFF779FE40F60510FFF741
:1039800063FE24E040F61300FFF770FE40F61300DC
:10399000FFF75AFE1BE040F61400FFF767FE40F603
:1039A0001400FFF751FE12E040F61E00FFF75EFE26
:1039B00040F61E00FFF748FE09E040F61F00FFF743
:1039C00055FE40F61F00FFF73FFE00E000BF00BFBE
:1039D00010BD00000078004000BCFFBFC16821F4AA
:1039E0000051C1607047C16841F40051C160704727
:1039F00030B50246002002EB91131B6801F01F0551
:103A00000124AC4023400BB1012000E0002030BD78
:103A10000A460021C16821F004011143C1607047CA
:103A20000A460021C16821F008011143C1607047B6
:103A300030313233343536373839414243444546E4
:103A4000000000000000000000002F000000000740
:103A500000070000147F147F1400242A7F2A12001C
:103A60006264081323003649552250000005030004
:103A70000000001C224100000041221C000014082C
:103A80003E08140008083E0808000000A06000007E
:103A90000808080808000060600000002010080402
:103AA00002003E5149453E0000427F400000426115
:103AB000514946002141454B31001814127F100036
:103AC0002745454539003C4A4949300001710905FF
:103AD0000300364949493600064949291E00003687
:103AE0003600000000563600000008142241000095
:103AF0001414141414000041221408000201510986
:103B00000600324959513E007C1211127C007F4957
:103B1000494936003E41414122007F4141221C007B
:103B20007F49494941007F09090901003E4149494E
:103B30007A007F0808087F0000417F410000204094
:103B4000413F01007F08142241007F404040400077
:103B50007F020C027F007F0408107F003E4141413C
:103B60003E007F09090906003E4151215E007F09A0
:103B70001929460046494949310001017F010100E8
:103B80003F4040403F001F2040201F003F40384042
:103B90003F006314081463000708700807006151B0
:103BA00049454300007F41410000552A552A5500F0
:103BB0000041417F000004020102040040404040F7
:103BC00040000001020400002054545478007F4853
:103BD00044443800384444442000384444487F007A
:103BE000385454541800087E0901020018A4A4A4F3
:103BF0007C007F080404780000447D400000408081
:103C0000847D00007F102844000000417F400000B8
:103C10007C04180478007C08040478003844444488
:103C20003800FC242424180018242418FC007C08E4
:103C300004040800485454542000043F4440200029
:103C40003C4040207C001C2040201C003C40304078
:103C50003C004428102844001CA0A0A07C00446420
:103C6000544C4414141414141400000000000000F8
:103C7000000000000000000000000000F80000004C
:103C800000000000333000000000100C06100C068D
:103C900000000000000000000040C07840C07840F4
:103CA00000043F04043F040400007088FC08300056
:103CB00000001820FF211E0000F008F000E01800AE
:103CC0000000211C031E211E0000F0088870000067
:103CD000001E2123241927211010160E00000000B9
:103CE000000000000000000000000000E0180402D6
:103CF00000000000071820400000020418E0000047
:103D0000000040201807000000404080F080404044
:103D1000000202010F01020200000000F00000009A
:103D2000000101011F01010100000000000000006E
:103D30000080B070000000000000000000000000E3
:103D4000000001010101010101000000000000006C
:103D5000000030300000000000000000008060180B
:103D600004006018060100000000E010080810E0E0
:103D700000000F102020100F00001010F8000000AD
:103D8000000020203F2020000000700808088870F4
:103D90000000302824222130000030088888483074
:103DA000000018202020110E000000C02010F80094
:103DB0000000070424243F240000F808888808082D
:103DC000000019212020110E0000E0108888180042
:103DD00000000F112020110E0000380808C8380814
:103DE000000000003F000000000070880808887094
:103DF00000001C222121221C0000E010080810E015
:103E0000000000312222110F00000000C0C000009D
:103E100000000000303000000000000080000000C2
:103E200000000080600000000000008040201008BA
:103E30000000010204081020004040404040404083
:103E4000000404040404040400000810204080005E
:103E5000000020100804020100007048080808F063
:103E6000000000003036010000C030C828E810E033
:103E7000000718272423140B000000C038E00000BE
:103E800000203C23020227382008F8888888700028
:103E900000203F202020110E00C0300808080838FC
:103EA00000071820202010080008F808080810E073
:103EB00000203F202020100F0008F88888E8081014
:103EC00000203F20202320180008F88888E80810E8
:103ED00000203F200003000000C030080808380020
:103EE0000007182020221E020008F808000008F829
:103EF00008203F210101213F20000808F8080800A0
:103F0000000020203F2020000000000808F80808DA
:103F100000C08080807F00000008F888C028180852
:103F200000203F20012638200008F808000000008B
:103F300000203F20202020300008F8F800F8F80882
:103F400000203F003F003F200008F830C00008F884
:103F500008203F200007183F00E01008080810E084
:103F6000000F10202020100F0008F808080808F0A3
:103F700000203F210101010000E01008080810E0C6
:103F8000000F18242438504F0008F888888888705B
:103F900000203F2000030C302000708808080838FB
:103FA000000038202121221C00180808F8080818F1
:103FB000000000203F2000000008F808000008F87A
:103FC00008001F202020201F000878880000C83823
:103FD00008000007380E010000F80800F80008F893
:103FE00000033C0700073C0300081868808068183D
:103FF0000820302C03032C30200838C800C83808AB
:10400000000000203F2000000010080808C8380801
:10401000002038262120201800000000FE020202A5
:10402000000000007F40404000000C30C000000055
:1040300000000000010638C00000020202FE00007D
:1040400000004040407F0000000000040202020423
:104050000000000000000000000000000000000060
:104060000080808080808080800002020400000048
:104070000000000000000000000000808080800040
:10408000000019242222223F2008F800808000002E
:1040900000003F112020110E0000000080808000F1
:1040A00000000E112020201100000000808088F800
:1040B00000000E112020103F200000808080800032
:1040C00000001F222222221300008080F0888888AE
:1040D000180020203F202000000000808080808089
:1040E00000006B94949493600000F80080808080BE
:1040F00000003F010000003F000080989800000091
:10410000000020203F202000000000008098980040
:104110000000C08080807F000008F8000080808060
:1041200000203F24022D302000000808F800000085
:10413000000020203F202000008080808080808040
:1041400000203F20003F20003F80800080808000D2
:1041500000203F210000203F200000808080800060
:1041600000001F202020201F008080008080000091
:104170000080FFA12020110E0000000080808080C0
:1041800000000E112020A0FF8080808000808080B1
:104190000020203F212000010000008080808080DE
:1041A000000033242424241900008080E080800053
:1041B000000000001F2020000080800000008080A0
:1041C00000001F202020103F208080800000808081
:1041D0008000010E30080601008080008000808091
:1041E000800F300C030C300F000080800080808036
:1041F000000020312E0E3120008080800000808061
:104200008080818E70180601000080808080808010
:10421000000021302C2221300000000000807C02B0
:104220000200000000003F404000000000FF0000CE
:104230000000000000FF0000000002027C8000007F
:10424000000040403F00000000000601010202049F
:10425000040000000000000000002046CC08040418
:104260007CC4040484F40C00000000000000000082
:104270000000000000000000000040300C444060DE
:1042800020110E0E1320604000000000000000000E
:104290000000000000000000000000380848484806
:1042A0004E4CC8C848083838000000000000000024
:1042B000000000000000000000000404040404C426
:1042C000447F050404040404000000000000000012
:1042D0000000000000000000000000000008103096
:1042E00060E0E0000040404040404040404020202E
:1042F00020A0F0702000000000000000000000007E
:1043000000000000000000000000000000000000AD
:10431000000000000000000000000000000000009D
:10432000000000000000000000000000000000008D
:10433000000000000000000000000000000000007D
:10434000000000000000000000000000000000006D
:104350000000000000000000000008081810307085
:104360000000C0700C020002061C70C0800080E0DB
:10437000780F0300000000000000000000000000B3
:10438000000000000000000000000000000000002D
:10439000000000000000000000000000000000001D
:1043A000000000000000000000000000000000000D
:1043B00000000000000000000000000000000000FD
:1043C00000000000000000000000000000000000ED
:1043D000000000000000000000000000000080E07D
:1043E000780E01000000000080C060301B0E1B71C1
:1043F000E08000000000000000000000000000005D
:1044000000000000000000000000000000000000AC
:10441000000000000000000000000000000000009C
:10442000000000000000000000000000000000008C
:10443000000000000000000000000000000000007C
:10444000000000000000000000000000000000006C
:10445000000000000000000000000102060E0F2115
:10446000101008080406030100000000000000000E
:104470000003070E0C0C0C080800000000000000F0
:10448000000000000000000000000000000000002C
:10449000000000000000000000000000000000001C
:1044A000000000000000000000000000000000000C
:1044B00000000000000000000000000000000000FC
:1044C00000000000000000000000000000000000EC
:1044D00000000000000000000000000020205B251C
:1044E0003032755D207365713D2575206576656E8A
:1044F000743D257520726573756C743D2575207645
:10450000303D3078253038582076313D30782530B0
:1045100038582076323D3078253038582063726321
:104520003D25730D0A0000005845000800000020DA
:104530002C000000480F000884450008303000209F
:10454000E4010000480F0008844500082C0000200A
:1045500004300000580F00080000000000000000B8
:1045600000004000000001AED580A81FD300408DA0
:1045700014A1C8DA008180D91FDB40A4AF0000007D
:10458000001C4E0E70B504460D4600266FF03040FC
:1045900000F078F80646CEB90D48006820F4407067
:1045A0000B4908600846006808600846006840F04B
:1045B0000100086025706FF0304000F063F8064697
:1045C0000348006820F0010001490860304670BDD2
:1045D000103C024001490860704700000C3C02405A
:1045E00001460020024A12680A4002B101207047C9
:1045F0000C3C02400348006840F00040014908605C
:1046000070470000103C024030B5044600256FF0B2
:10461000304000F037F805466DBB1848184908606F
:1046200044F00040091F086015481438006820F065
:10463000F8001349143908600846006840F0020089
:1046400008600846006840F4803008606FF0304031
:1046500000F018F805460A48001F006820F00040E6
:104660000749091F086006481438006820F0020056
:10467000034914390860284630BD0000D6C7B8A9E0
:10468000243C024010B50346012400BF00F00AF8A4
:1046900004465B1E012C01D1002BF7D103B907247E
:1046A000204610BD0020114A116801F480320AB181
:1046B000012019E001F480720AB1022014E001F037
:1046C00080020AB103200FE001F040020AB1042089
:1046D0000AE001F010020AB1052005E001F0020233
:1046E0000AB1062000E00020704700000C3C0240A8
:1046F0000548006800F0004028B1044802490C3920
:104700000860034808607047103C02402301674579
:10471000AB89EFCD70B504460D4600266FF03040F2
:10472000FFF7B0FF0646DEB90E48006820F440707F
:104730000C4908600846006840F4007008600846AC
:10474000006840F00100086025606FF03040FFF71E
:1047500099FF06460348006820F0010001490860FF
:08476000304670BD103C024020
:04000005080001AD41
:00000001FF
